{
  "_format": "hh-sol-artifact-1",
  "contractName": "NFTManager",
  "sourceName": "contracts/NFTManager.sol",
  "abi": [
    {
      "inputs": [
        {
          "internalType": "address",
          "name": "target",
          "type": "address"
        }
      ],
      "name": "AddressEmptyCode",
      "type": "error"
    },
    {
      "inputs": [
        {
          "internalType": "address",
          "name": "implementation",
          "type": "address"
        }
      ],
      "name": "ERC1967InvalidImplementation",
      "type": "error"
    },
    {
      "inputs": [],
      "name": "ERC1967NonPayable",
      "type": "error"
    },
    {
      "inputs": [],
      "name": "FailedCall",
      "type": "error"
    },
    {
      "inputs": [],
      "name": "InvalidInitialization",
      "type": "error"
    },
    {
      "inputs": [],
      "name": "NotInitializing",
      "type": "error"
    },
    {
      "inputs": [
        {
          "internalType": "address",
          "name": "owner",
          "type": "address"
        }
      ],
      "name": "OwnableInvalidOwner",
      "type": "error"
    },
    {
      "inputs": [
        {
          "internalType": "address",
          "name": "account",
          "type": "address"
        }
      ],
      "name": "OwnableUnauthorizedAccount",
      "type": "error"
    },
    {
      "inputs": [],
      "name": "ReentrancyGuardReentrantCall",
      "type": "error"
    },
    {
      "inputs": [
        {
          "internalType": "address",
          "name": "token",
          "type": "address"
        }
      ],
      "name": "SafeERC20FailedOperation",
      "type": "error"
    },
    {
      "inputs": [],
      "name": "UUPSUnauthorizedCallContext",
      "type": "error"
    },
    {
      "inputs": [
        {
          "internalType": "bytes32",
          "name": "slot",
          "type": "bytes32"
        }
      ],
      "name": "UUPSUnsupportedProxiableUUID",
      "type": "error"
    },
    {
      "anonymous": false,
      "inputs": [
        {
          "indexed": true,
          "internalType": "uint256",
          "name": "batchId",
          "type": "uint256"
        }
      ],
      "name": "BatchActivated",
      "type": "event"
    },
    {
      "anonymous": false,
      "inputs": [
        {
          "indexed": true,
          "internalType": "uint256",
          "name": "batchId",
          "type": "uint256"
        },
        {
          "indexed": false,
          "internalType": "uint256",
          "name": "maxMintable",
          "type": "uint256"
        },
        {
          "indexed": false,
          "internalType": "uint256",
          "name": "mintPrice",
          "type": "uint256"
        }
      ],
      "name": "BatchCreated",
      "type": "event"
    },
    {
      "anonymous": false,
      "inputs": [
        {
          "indexed": true,
          "internalType": "uint256",
          "name": "batchId",
          "type": "uint256"
        }
      ],
      "name": "BatchDeactivated",
      "type": "event"
    },
    {
      "anonymous": false,
      "inputs": [
        {
          "indexed": false,
          "internalType": "uint64",
          "name": "version",
          "type": "uint64"
        }
      ],
      "name": "Initialized",
      "type": "event"
    },
    {
      "anonymous": false,
      "inputs": [
        {
          "indexed": false,
          "internalType": "uint256",
          "name": "newFeeRate",
          "type": "uint256"
        }
      ],
      "name": "MarketFeeRateUpdated",
      "type": "event"
    },
    {
      "anonymous": false,
      "inputs": [
        {
          "indexed": false,
          "internalType": "uint256",
          "name": "totalAmount",
          "type": "uint256"
        },
        {
          "indexed": false,
          "internalType": "uint256",
          "name": "nftAmount",
          "type": "uint256"
        },
        {
          "indexed": false,
          "internalType": "uint256",
          "name": "multisigAmount",
          "type": "uint256"
        }
      ],
      "name": "MiningDistributed",
      "type": "event"
    },
    {
      "anonymous": false,
      "inputs": [
        {
          "indexed": true,
          "internalType": "address",
          "name": "multisigNode",
          "type": "address"
        }
      ],
      "name": "MultisigNodeSet",
      "type": "event"
    },
    {
      "anonymous": false,
      "inputs": [
        {
          "indexed": true,
          "internalType": "address",
          "name": "token",
          "type": "address"
        },
        {
          "indexed": false,
          "internalType": "uint256",
          "name": "amount",
          "type": "uint256"
        },
        {
          "indexed": false,
          "internalType": "uint256",
          "name": "timestamp",
          "type": "uint256"
        }
      ],
      "name": "MultisigRewardClaimed",
      "type": "event"
    },
    {
      "anonymous": false,
      "inputs": [
        {
          "indexed": true,
          "internalType": "uint256",
          "name": "orderId",
          "type": "uint256"
        },
        {
          "indexed": true,
          "internalType": "uint256",
          "name": "nftId",
          "type": "uint256"
        },
        {
          "indexed": true,
          "internalType": "address",
          "name": "seller",
          "type": "address"
        },
        {
          "indexed": false,
          "internalType": "address",
          "name": "buyer",
          "type": "address"
        },
        {
          "indexed": false,
          "internalType": "uint256",
          "name": "price",
          "type": "uint256"
        },
        {
          "indexed": false,
          "internalType": "uint256",
          "name": "timestamp",
          "type": "uint256"
        }
      ],
      "name": "NFTBought",
      "type": "event"
    },
    {
      "anonymous": false,
      "inputs": [
        {
          "indexed": true,
          "internalType": "uint256",
          "name": "nftId",
          "type": "uint256"
        },
        {
          "indexed": true,
          "internalType": "address",
          "name": "minter",
          "type": "address"
        },
        {
          "indexed": true,
          "internalType": "uint256",
          "name": "batchId",
          "type": "uint256"
        },
        {
          "indexed": false,
          "internalType": "uint256",
          "name": "mintPrice",
          "type": "uint256"
        },
        {
          "indexed": false,
          "internalType": "uint256",
          "name": "timestamp",
          "type": "uint256"
        }
      ],
      "name": "NFTMinted",
      "type": "event"
    },
    {
      "anonymous": false,
      "inputs": [
        {
          "indexed": true,
          "internalType": "address",
          "name": "nodeNFT",
          "type": "address"
        }
      ],
      "name": "NodeNFTSet",
      "type": "event"
    },
    {
      "anonymous": false,
      "inputs": [
        {
          "indexed": true,
          "internalType": "address",
          "name": "oracle",
          "type": "address"
        }
      ],
      "name": "OracleSet",
      "type": "event"
    },
    {
      "anonymous": false,
      "inputs": [
        {
          "indexed": true,
          "internalType": "address",
          "name": "previousOwner",
          "type": "address"
        },
        {
          "indexed": true,
          "internalType": "address",
          "name": "newOwner",
          "type": "address"
        }
      ],
      "name": "OwnershipTransferred",
      "type": "event"
    },
    {
      "anonymous": false,
      "inputs": [
        {
          "indexed": true,
          "internalType": "uint256",
          "name": "nftId",
          "type": "uint256"
        },
        {
          "indexed": true,
          "internalType": "address",
          "name": "user",
          "type": "address"
        },
        {
          "indexed": false,
          "internalType": "uint256",
          "name": "amount",
          "type": "uint256"
        }
      ],
      "name": "ProducedClaimed",
      "type": "event"
    },
    {
      "anonymous": false,
      "inputs": [
        {
          "indexed": false,
          "internalType": "uint256",
          "name": "amount",
          "type": "uint256"
        },
        {
          "indexed": false,
          "internalType": "uint256",
          "name": "accProducedPerNFT",
          "type": "uint256"
        },
        {
          "indexed": false,
          "internalType": "uint256",
          "name": "timestamp",
          "type": "uint256"
        }
      ],
      "name": "ProducedDistributed",
      "type": "event"
    },
    {
      "anonymous": false,
      "inputs": [
        {
          "indexed": true,
          "internalType": "uint256",
          "name": "nftId",
          "type": "uint256"
        },
        {
          "indexed": true,
          "internalType": "address",
          "name": "user",
          "type": "address"
        },
        {
          "indexed": true,
          "internalType": "address",
          "name": "token",
          "type": "address"
        },
        {
          "indexed": false,
          "internalType": "uint256",
          "name": "amount",
          "type": "uint256"
        }
      ],
      "name": "RewardClaimed",
      "type": "event"
    },
    {
      "anonymous": false,
      "inputs": [
        {
          "indexed": true,
          "internalType": "address",
          "name": "token",
          "type": "address"
        },
        {
          "indexed": false,
          "internalType": "uint256",
          "name": "totalAmount",
          "type": "uint256"
        },
        {
          "indexed": false,
          "internalType": "uint256",
          "name": "nftAmount",
          "type": "uint256"
        },
        {
          "indexed": false,
          "internalType": "uint256",
          "name": "multisigAmount",
          "type": "uint256"
        },
        {
          "indexed": false,
          "internalType": "uint256",
          "name": "accRewardPerNFT",
          "type": "uint256"
        },
        {
          "indexed": false,
          "internalType": "uint256",
          "name": "timestamp",
          "type": "uint256"
        }
      ],
      "name": "RewardDistributed",
      "type": "event"
    },
    {
      "anonymous": false,
      "inputs": [
        {
          "indexed": true,
          "internalType": "address",
          "name": "token",
          "type": "address"
        }
      ],
      "name": "RewardTokenAdded",
      "type": "event"
    },
    {
      "anonymous": false,
      "inputs": [
        {
          "indexed": true,
          "internalType": "address",
          "name": "token",
          "type": "address"
        }
      ],
      "name": "RewardTokenRemoved",
      "type": "event"
    },
    {
      "anonymous": false,
      "inputs": [
        {
          "indexed": true,
          "internalType": "uint256",
          "name": "orderId",
          "type": "uint256"
        },
        {
          "indexed": true,
          "internalType": "uint256",
          "name": "nftId",
          "type": "uint256"
        },
        {
          "indexed": false,
          "internalType": "address",
          "name": "seller",
          "type": "address"
        },
        {
          "indexed": false,
          "internalType": "uint256",
          "name": "timestamp",
          "type": "uint256"
        }
      ],
      "name": "SellOrderCancelled",
      "type": "event"
    },
    {
      "anonymous": false,
      "inputs": [
        {
          "indexed": true,
          "internalType": "uint256",
          "name": "orderId",
          "type": "uint256"
        },
        {
          "indexed": true,
          "internalType": "uint256",
          "name": "nftId",
          "type": "uint256"
        },
        {
          "indexed": true,
          "internalType": "address",
          "name": "seller",
          "type": "address"
        },
        {
          "indexed": false,
          "internalType": "uint256",
          "name": "price",
          "type": "uint256"
        },
        {
          "indexed": false,
          "internalType": "uint256",
          "name": "timestamp",
          "type": "uint256"
        }
      ],
      "name": "SellOrderCreated",
      "type": "event"
    },
    {
      "anonymous": false,
      "inputs": [
        {
          "indexed": true,
          "internalType": "uint256",
          "name": "nftId",
          "type": "uint256"
        },
        {
          "indexed": true,
          "internalType": "address",
          "name": "owner",
          "type": "address"
        },
        {
          "indexed": false,
          "internalType": "uint256",
          "name": "timestamp",
          "type": "uint256"
        }
      ],
      "name": "TerminationCancelled",
      "type": "event"
    },
    {
      "anonymous": false,
      "inputs": [
        {
          "indexed": true,
          "internalType": "uint256",
          "name": "nftId",
          "type": "uint256"
        },
        {
          "indexed": true,
          "internalType": "address",
          "name": "owner",
          "type": "address"
        },
        {
          "indexed": false,
          "internalType": "uint256",
          "name": "timestamp",
          "type": "uint256"
        }
      ],
      "name": "TerminationConfirmed",
      "type": "event"
    },
    {
      "anonymous": false,
      "inputs": [
        {
          "indexed": true,
          "internalType": "uint256",
          "name": "nftId",
          "type": "uint256"
        },
        {
          "indexed": true,
          "internalType": "address",
          "name": "owner",
          "type": "address"
        },
        {
          "indexed": false,
          "internalType": "uint256",
          "name": "initiateTime",
          "type": "uint256"
        },
        {
          "indexed": false,
          "internalType": "uint256",
          "name": "confirmDeadline",
          "type": "uint256"
        }
      ],
      "name": "TerminationInitiated",
      "type": "event"
    },
    {
      "anonymous": false,
      "inputs": [
        {
          "indexed": false,
          "internalType": "uint256",
          "name": "tgeTime",
          "type": "uint256"
        }
      ],
      "name": "TgeTimeSet",
      "type": "event"
    },
    {
      "anonymous": false,
      "inputs": [
        {
          "indexed": false,
          "internalType": "uint256",
          "name": "amount",
          "type": "uint256"
        },
        {
          "indexed": false,
          "internalType": "string",
          "name": "reason",
          "type": "string"
        }
      ],
      "name": "TokensBurnedFromSwap",
      "type": "event"
    },
    {
      "anonymous": false,
      "inputs": [
        {
          "indexed": false,
          "internalType": "bool",
          "name": "enabled",
          "type": "bool"
        }
      ],
      "name": "TransfersEnabled",
      "type": "event"
    },
    {
      "anonymous": false,
      "inputs": [
        {
          "indexed": true,
          "internalType": "address",
          "name": "treasury",
          "type": "address"
        }
      ],
      "name": "TreasurySet",
      "type": "event"
    },
    {
      "anonymous": false,
      "inputs": [
        {
          "indexed": true,
          "internalType": "uint256",
          "name": "nftId",
          "type": "uint256"
        },
        {
          "indexed": true,
          "internalType": "address",
          "name": "owner",
          "type": "address"
        },
        {
          "indexed": false,
          "internalType": "uint256",
          "name": "amount",
          "type": "uint256"
        },
        {
          "indexed": false,
          "internalType": "uint256",
          "name": "timestamp",
          "type": "uint256"
        }
      ],
      "name": "UnlockedWithdrawn",
      "type": "event"
    },
    {
      "anonymous": false,
      "inputs": [
        {
          "indexed": true,
          "internalType": "address",
          "name": "implementation",
          "type": "address"
        }
      ],
      "name": "Upgraded",
      "type": "event"
    },
    {
      "anonymous": false,
      "inputs": [
        {
          "indexed": true,
          "internalType": "address",
          "name": "oldUsdt",
          "type": "address"
        },
        {
          "indexed": true,
          "internalType": "address",
          "name": "newUsdt",
          "type": "address"
        }
      ],
      "name": "UsdtTokenUpdated",
      "type": "event"
    },
    {
      "anonymous": false,
      "inputs": [
        {
          "indexed": true,
          "internalType": "uint256",
          "name": "nftId",
          "type": "uint256"
        },
        {
          "indexed": true,
          "internalType": "address",
          "name": "from",
          "type": "address"
        },
        {
          "indexed": true,
          "internalType": "address",
          "name": "to",
          "type": "address"
        }
      ],
      "name": "UserNFTListSynced",
      "type": "event"
    },
    {
      "anonymous": false,
      "inputs": [
        {
          "indexed": false,
          "internalType": "address[]",
          "name": "users",
          "type": "address[]"
        }
      ],
      "name": "WhitelistAdded",
      "type": "event"
    },
    {
      "anonymous": false,
      "inputs": [
        {
          "indexed": false,
          "internalType": "address",
          "name": "user",
          "type": "address"
        }
      ],
      "name": "WhitelistRemoved",
      "type": "event"
    },
    {
      "inputs": [],
      "name": "ECLV_PER_NFT",
      "outputs": [
        {
          "internalType": "uint256",
          "name": "",
          "type": "uint256"
        }
      ],
      "stateMutability": "view",
      "type": "function"
    },
    {
      "inputs": [],
      "name": "LOCK_PERIOD",
      "outputs": [
        {
          "internalType": "uint256",
          "name": "",
          "type": "uint256"
        }
      ],
      "stateMutability": "view",
      "type": "function"
    },
    {
      "inputs": [],
      "name": "MAX_SUPPLY",
      "outputs": [
        {
          "internalType": "uint256",
          "name": "",
          "type": "uint256"
        }
      ],
      "stateMutability": "view",
      "type": "function"
    },
    {
      "inputs": [],
      "name": "TERMINATION_COOLDOWN",
      "outputs": [
        {
          "internalType": "uint256",
          "name": "",
          "type": "uint256"
        }
      ],
      "stateMutability": "view",
      "type": "function"
    },
    {
      "inputs": [],
      "name": "TERMINATION_TIMEOUT",
      "outputs": [
        {
          "internalType": "uint256",
          "name": "",
          "type": "uint256"
        }
      ],
      "stateMutability": "view",
      "type": "function"
    },
    {
      "inputs": [],
      "name": "UNLOCK_INTERVAL",
      "outputs": [
        {
          "internalType": "uint256",
          "name": "",
          "type": "uint256"
        }
      ],
      "stateMutability": "view",
      "type": "function"
    },
    {
      "inputs": [],
      "name": "UNLOCK_PERCENTAGE",
      "outputs": [
        {
          "internalType": "uint256",
          "name": "",
          "type": "uint256"
        }
      ],
      "stateMutability": "view",
      "type": "function"
    },
    {
      "inputs": [],
      "name": "UNLOCK_PERIODS",
      "outputs": [
        {
          "internalType": "uint256",
          "name": "",
          "type": "uint256"
        }
      ],
      "stateMutability": "view",
      "type": "function"
    },
    {
      "inputs": [],
      "name": "UPGRADE_INTERFACE_VERSION",
      "outputs": [
        {
          "internalType": "string",
          "name": "",
          "type": "string"
        }
      ],
      "stateMutability": "view",
      "type": "function"
    },
    {
      "inputs": [
        {
          "internalType": "uint256",
          "name": "batchId",
          "type": "uint256"
        }
      ],
      "name": "activateBatch",
      "outputs": [],
      "stateMutability": "nonpayable",
      "type": "function"
    },
    {
      "inputs": [
        {
          "internalType": "uint256",
          "name": "",
          "type": "uint256"
        }
      ],
      "name": "activeOrderIds",
      "outputs": [
        {
          "internalType": "uint256",
          "name": "",
          "type": "uint256"
        }
      ],
      "stateMutability": "view",
      "type": "function"
    },
    {
      "inputs": [
        {
          "internalType": "address",
          "name": "token",
          "type": "address"
        }
      ],
      "name": "addRewardToken",
      "outputs": [],
      "stateMutability": "nonpayable",
      "type": "function"
    },
    {
      "inputs": [
        {
          "internalType": "address[]",
          "name": "users",
          "type": "address[]"
        }
      ],
      "name": "addToWhitelist",
      "outputs": [],
      "stateMutability": "nonpayable",
      "type": "function"
    },
    {
      "inputs": [
        {
          "internalType": "uint256",
          "name": "",
          "type": "uint256"
        }
      ],
      "name": "batches",
      "outputs": [
        {
          "internalType": "uint256",
          "name": "batchId",
          "type": "uint256"
        },
        {
          "internalType": "uint256",
          "name": "maxMintable",
          "type": "uint256"
        },
        {
          "internalType": "uint256",
          "name": "currentMinted",
          "type": "uint256"
        },
        {
          "internalType": "uint256",
          "name": "mintPrice",
          "type": "uint256"
        },
        {
          "internalType": "bool",
          "name": "active",
          "type": "bool"
        },
        {
          "internalType": "uint256",
          "name": "createdAt",
          "type": "uint256"
        }
      ],
      "stateMutability": "view",
      "type": "function"
    },
    {
      "inputs": [
        {
          "internalType": "uint256",
          "name": "amount",
          "type": "uint256"
        },
        {
          "internalType": "string",
          "name": "reason",
          "type": "string"
        }
      ],
      "name": "burnTokensFromSwap",
      "outputs": [],
      "stateMutability": "nonpayable",
      "type": "function"
    },
    {
      "inputs": [
        {
          "internalType": "uint256",
          "name": "orderId",
          "type": "uint256"
        }
      ],
      "name": "buyNFT",
      "outputs": [],
      "stateMutability": "nonpayable",
      "type": "function"
    },
    {
      "inputs": [
        {
          "internalType": "uint256",
          "name": "nftId",
          "type": "uint256"
        }
      ],
      "name": "calculateUnlockedAmount",
      "outputs": [
        {
          "internalType": "uint256",
          "name": "",
          "type": "uint256"
        }
      ],
      "stateMutability": "view",
      "type": "function"
    },
    {
      "inputs": [
        {
          "internalType": "uint256",
          "name": "orderId",
          "type": "uint256"
        }
      ],
      "name": "cancelSellOrder",
      "outputs": [],
      "stateMutability": "nonpayable",
      "type": "function"
    },
    {
      "inputs": [
        {
          "internalType": "uint256",
          "name": "nftId",
          "type": "uint256"
        }
      ],
      "name": "cancelTermination",
      "outputs": [],
      "stateMutability": "nonpayable",
      "type": "function"
    },
    {
      "inputs": [],
      "name": "claimAllMultisigRewards",
      "outputs": [
        {
          "internalType": "address[]",
          "name": "tokens",
          "type": "address[]"
        },
        {
          "internalType": "uint256[]",
          "name": "amounts",
          "type": "uint256[]"
        },
        {
          "internalType": "uint256",
          "name": "totalClaimed",
          "type": "uint256"
        }
      ],
      "stateMutability": "nonpayable",
      "type": "function"
    },
    {
      "inputs": [
        {
          "internalType": "uint256",
          "name": "nftId",
          "type": "uint256"
        }
      ],
      "name": "claimAllRewards",
      "outputs": [
        {
          "internalType": "address[]",
          "name": "tokens",
          "type": "address[]"
        },
        {
          "internalType": "uint256[]",
          "name": "amounts",
          "type": "uint256[]"
        },
        {
          "internalType": "uint256",
          "name": "totalClaimed",
          "type": "uint256"
        }
      ],
      "stateMutability": "nonpayable",
      "type": "function"
    },
    {
      "inputs": [
        {
          "internalType": "address",
          "name": "token",
          "type": "address"
        }
      ],
      "name": "claimMultisigReward",
      "outputs": [
        {
          "internalType": "uint256",
          "name": "",
          "type": "uint256"
        }
      ],
      "stateMutability": "nonpayable",
      "type": "function"
    },
    {
      "inputs": [
        {
          "internalType": "uint256",
          "name": "nftId",
          "type": "uint256"
        }
      ],
      "name": "claimProduced",
      "outputs": [
        {
          "internalType": "uint256",
          "name": "",
          "type": "uint256"
        }
      ],
      "stateMutability": "nonpayable",
      "type": "function"
    },
    {
      "inputs": [
        {
          "internalType": "uint256",
          "name": "nftId",
          "type": "uint256"
        },
        {
          "internalType": "address",
          "name": "token",
          "type": "address"
        }
      ],
      "name": "claimReward",
      "outputs": [
        {
          "internalType": "uint256",
          "name": "",
          "type": "uint256"
        }
      ],
      "stateMutability": "nonpayable",
      "type": "function"
    },
    {
      "inputs": [
        {
          "internalType": "uint256",
          "name": "nftId",
          "type": "uint256"
        }
      ],
      "name": "confirmTermination",
      "outputs": [],
      "stateMutability": "nonpayable",
      "type": "function"
    },
    {
      "inputs": [
        {
          "internalType": "uint256",
          "name": "maxMintable",
          "type": "uint256"
        },
        {
          "internalType": "uint256",
          "name": "mintPrice",
          "type": "uint256"
        }
      ],
      "name": "createBatch",
      "outputs": [
        {
          "internalType": "uint256",
          "name": "",
          "type": "uint256"
        }
      ],
      "stateMutability": "nonpayable",
      "type": "function"
    },
    {
      "inputs": [
        {
          "internalType": "uint256",
          "name": "nftId",
          "type": "uint256"
        },
        {
          "internalType": "uint256",
          "name": "price",
          "type": "uint256"
        }
      ],
      "name": "createSellOrder",
      "outputs": [
        {
          "internalType": "uint256",
          "name": "",
          "type": "uint256"
        }
      ],
      "stateMutability": "nonpayable",
      "type": "function"
    },
    {
      "inputs": [],
      "name": "currentBatchId",
      "outputs": [
        {
          "internalType": "uint256",
          "name": "",
          "type": "uint256"
        }
      ],
      "stateMutability": "view",
      "type": "function"
    },
    {
      "inputs": [
        {
          "internalType": "uint256",
          "name": "batchId",
          "type": "uint256"
        }
      ],
      "name": "deactivateBatch",
      "outputs": [],
      "stateMutability": "nonpayable",
      "type": "function"
    },
    {
      "inputs": [
        {
          "internalType": "uint256",
          "name": "totalAmount",
          "type": "uint256"
        }
      ],
      "name": "distributeProduced",
      "outputs": [],
      "stateMutability": "nonpayable",
      "type": "function"
    },
    {
      "inputs": [
        {
          "internalType": "address",
          "name": "token",
          "type": "address"
        },
        {
          "internalType": "uint256",
          "name": "amount",
          "type": "uint256"
        }
      ],
      "name": "distributeReward",
      "outputs": [],
      "stateMutability": "nonpayable",
      "type": "function"
    },
    {
      "inputs": [],
      "name": "eclvToken",
      "outputs": [
        {
          "internalType": "contract EnclaveToken",
          "name": "",
          "type": "address"
        }
      ],
      "stateMutability": "view",
      "type": "function"
    },
    {
      "inputs": [
        {
          "internalType": "address",
          "name": "token",
          "type": "address"
        }
      ],
      "name": "getAccRewardPerNFT",
      "outputs": [
        {
          "internalType": "uint256",
          "name": "",
          "type": "uint256"
        }
      ],
      "stateMutability": "view",
      "type": "function"
    },
    {
      "inputs": [],
      "name": "getActiveBatch",
      "outputs": [
        {
          "internalType": "uint256",
          "name": "",
          "type": "uint256"
        }
      ],
      "stateMutability": "view",
      "type": "function"
    },
    {
      "inputs": [
        {
          "internalType": "uint256",
          "name": "nftId",
          "type": "uint256"
        }
      ],
      "name": "getActiveOrderByNFT",
      "outputs": [
        {
          "internalType": "uint256",
          "name": "",
          "type": "uint256"
        }
      ],
      "stateMutability": "view",
      "type": "function"
    },
    {
      "inputs": [
        {
          "internalType": "uint256",
          "name": "offset",
          "type": "uint256"
        },
        {
          "internalType": "uint256",
          "name": "limit",
          "type": "uint256"
        }
      ],
      "name": "getActiveOrders",
      "outputs": [
        {
          "components": [
            {
              "internalType": "uint256",
              "name": "orderId",
              "type": "uint256"
            },
            {
              "internalType": "uint256",
              "name": "nftId",
              "type": "uint256"
            },
            {
              "internalType": "address",
              "name": "seller",
              "type": "address"
            },
            {
              "internalType": "uint256",
              "name": "price",
              "type": "uint256"
            },
            {
              "internalType": "uint256",
              "name": "createdAt",
              "type": "uint256"
            },
            {
              "internalType": "enum NFTManager.OrderStatus",
              "name": "status",
              "type": "uint8"
            }
          ],
          "internalType": "struct NFTManager.SellOrder[]",
          "name": "orders",
          "type": "tuple[]"
        },
        {
          "internalType": "uint256",
          "name": "total",
          "type": "uint256"
        }
      ],
      "stateMutability": "view",
      "type": "function"
    },
    {
      "inputs": [],
      "name": "getActiveOrdersCount",
      "outputs": [
        {
          "internalType": "uint256",
          "name": "",
          "type": "uint256"
        }
      ],
      "stateMutability": "view",
      "type": "function"
    },
    {
      "inputs": [],
      "name": "getAllActiveOrders",
      "outputs": [
        {
          "components": [
            {
              "internalType": "uint256",
              "name": "orderId",
              "type": "uint256"
            },
            {
              "internalType": "uint256",
              "name": "nftId",
              "type": "uint256"
            },
            {
              "internalType": "address",
              "name": "seller",
              "type": "address"
            },
            {
              "internalType": "uint256",
              "name": "price",
              "type": "uint256"
            },
            {
              "internalType": "uint256",
              "name": "createdAt",
              "type": "uint256"
            },
            {
              "internalType": "enum NFTManager.OrderStatus",
              "name": "status",
              "type": "uint8"
            }
          ],
          "internalType": "struct NFTManager.SellOrder[]",
          "name": "",
          "type": "tuple[]"
        }
      ],
      "stateMutability": "view",
      "type": "function"
    },
    {
      "inputs": [],
      "name": "getAllRewardTokens",
      "outputs": [
        {
          "internalType": "address[]",
          "name": "",
          "type": "address[]"
        }
      ],
      "stateMutability": "view",
      "type": "function"
    },
    {
      "inputs": [],
      "name": "getCurrentBatchId",
      "outputs": [
        {
          "internalType": "uint256",
          "name": "",
          "type": "uint256"
        }
      ],
      "stateMutability": "view",
      "type": "function"
    },
    {
      "inputs": [
        {
          "internalType": "address",
          "name": "token",
          "type": "address"
        }
      ],
      "name": "getMultisigRewardInfo",
      "outputs": [
        {
          "internalType": "uint256",
          "name": "totalDistributed",
          "type": "uint256"
        },
        {
          "internalType": "uint256",
          "name": "withdrawn",
          "type": "uint256"
        },
        {
          "internalType": "uint256",
          "name": "available",
          "type": "uint256"
        }
      ],
      "stateMutability": "view",
      "type": "function"
    },
    {
      "inputs": [
        {
          "internalType": "uint256",
          "name": "nftId",
          "type": "uint256"
        }
      ],
      "name": "getNFTPool",
      "outputs": [
        {
          "internalType": "enum NFTManager.NFTStatus",
          "name": "status",
          "type": "uint8"
        },
        {
          "internalType": "uint256",
          "name": "createdAt",
          "type": "uint256"
        },
        {
          "internalType": "uint256",
          "name": "terminationInitiatedAt",
          "type": "uint256"
        },
        {
          "internalType": "uint256",
          "name": "totalEclvLocked",
          "type": "uint256"
        },
        {
          "internalType": "uint256",
          "name": "remainingMintQuota",
          "type": "uint256"
        },
        {
          "internalType": "uint256",
          "name": "unlockedAmount",
          "type": "uint256"
        },
        {
          "internalType": "uint256",
          "name": "unlockedWithdrawn",
          "type": "uint256"
        },
        {
          "internalType": "uint256",
          "name": "unlockedPeriods",
          "type": "uint256"
        },
        {
          "internalType": "uint256",
          "name": "producedWithdrawn",
          "type": "uint256"
        }
      ],
      "stateMutability": "view",
      "type": "function"
    },
    {
      "inputs": [
        {
          "internalType": "uint256",
          "name": "orderId",
          "type": "uint256"
        }
      ],
      "name": "getOrder",
      "outputs": [
        {
          "components": [
            {
              "internalType": "uint256",
              "name": "orderId",
              "type": "uint256"
            },
            {
              "internalType": "uint256",
              "name": "nftId",
              "type": "uint256"
            },
            {
              "internalType": "address",
              "name": "seller",
              "type": "address"
            },
            {
              "internalType": "uint256",
              "name": "price",
              "type": "uint256"
            },
            {
              "internalType": "uint256",
              "name": "createdAt",
              "type": "uint256"
            },
            {
              "internalType": "enum NFTManager.OrderStatus",
              "name": "status",
              "type": "uint8"
            }
          ],
          "internalType": "struct NFTManager.SellOrder",
          "name": "",
          "type": "tuple"
        }
      ],
      "stateMutability": "view",
      "type": "function"
    },
    {
      "inputs": [
        {
          "internalType": "address",
          "name": "seller",
          "type": "address"
        },
        {
          "internalType": "uint256",
          "name": "offset",
          "type": "uint256"
        },
        {
          "internalType": "uint256",
          "name": "limit",
          "type": "uint256"
        }
      ],
      "name": "getOrdersBySeller",
      "outputs": [
        {
          "components": [
            {
              "internalType": "uint256",
              "name": "orderId",
              "type": "uint256"
            },
            {
              "internalType": "uint256",
              "name": "nftId",
              "type": "uint256"
            },
            {
              "internalType": "address",
              "name": "seller",
              "type": "address"
            },
            {
              "internalType": "uint256",
              "name": "price",
              "type": "uint256"
            },
            {
              "internalType": "uint256",
              "name": "createdAt",
              "type": "uint256"
            },
            {
              "internalType": "enum NFTManager.OrderStatus",
              "name": "status",
              "type": "uint8"
            }
          ],
          "internalType": "struct NFTManager.SellOrder[]",
          "name": "orders",
          "type": "tuple[]"
        },
        {
          "internalType": "uint256",
          "name": "total",
          "type": "uint256"
        }
      ],
      "stateMutability": "view",
      "type": "function"
    },
    {
      "inputs": [
        {
          "internalType": "uint256",
          "name": "nftId",
          "type": "uint256"
        }
      ],
      "name": "getPendingProduced",
      "outputs": [
        {
          "internalType": "uint256",
          "name": "",
          "type": "uint256"
        }
      ],
      "stateMutability": "view",
      "type": "function"
    },
    {
      "inputs": [
        {
          "internalType": "uint256",
          "name": "nftId",
          "type": "uint256"
        },
        {
          "internalType": "address",
          "name": "token",
          "type": "address"
        }
      ],
      "name": "getPendingReward",
      "outputs": [
        {
          "internalType": "uint256",
          "name": "",
          "type": "uint256"
        }
      ],
      "stateMutability": "view",
      "type": "function"
    },
    {
      "inputs": [
        {
          "internalType": "uint256",
          "name": "nftId",
          "type": "uint256"
        },
        {
          "internalType": "address",
          "name": "token",
          "type": "address"
        }
      ],
      "name": "getRewardDebt",
      "outputs": [
        {
          "internalType": "uint256",
          "name": "",
          "type": "uint256"
        }
      ],
      "stateMutability": "view",
      "type": "function"
    },
    {
      "inputs": [],
      "name": "getRewardTokenCount",
      "outputs": [
        {
          "internalType": "uint256",
          "name": "",
          "type": "uint256"
        }
      ],
      "stateMutability": "view",
      "type": "function"
    },
    {
      "inputs": [
        {
          "internalType": "uint256",
          "name": "nftId",
          "type": "uint256"
        },
        {
          "internalType": "address",
          "name": "token",
          "type": "address"
        }
      ],
      "name": "getRewardWithdrawn",
      "outputs": [
        {
          "internalType": "uint256",
          "name": "",
          "type": "uint256"
        }
      ],
      "stateMutability": "view",
      "type": "function"
    },
    {
      "inputs": [],
      "name": "getUnlockedPeriods",
      "outputs": [
        {
          "internalType": "uint256",
          "name": "",
          "type": "uint256"
        }
      ],
      "stateMutability": "view",
      "type": "function"
    },
    {
      "inputs": [
        {
          "internalType": "address",
          "name": "user",
          "type": "address"
        }
      ],
      "name": "getUserNFTs",
      "outputs": [
        {
          "internalType": "uint256[]",
          "name": "",
          "type": "uint256[]"
        }
      ],
      "stateMutability": "view",
      "type": "function"
    },
    {
      "inputs": [],
      "name": "getWhitelistCount",
      "outputs": [
        {
          "internalType": "uint256",
          "name": "",
          "type": "uint256"
        }
      ],
      "stateMutability": "view",
      "type": "function"
    },
    {
      "inputs": [],
      "name": "globalState",
      "outputs": [
        {
          "internalType": "uint256",
          "name": "accProducedPerNFT",
          "type": "uint256"
        },
        {
          "internalType": "uint256",
          "name": "totalActiveNFTs",
          "type": "uint256"
        },
        {
          "internalType": "uint256",
          "name": "lastUpdateTime",
          "type": "uint256"
        }
      ],
      "stateMutability": "view",
      "type": "function"
    },
    {
      "inputs": [
        {
          "internalType": "address",
          "name": "nodeNFT_",
          "type": "address"
        },
        {
          "internalType": "address",
          "name": "eclvToken_",
          "type": "address"
        },
        {
          "internalType": "address",
          "name": "usdtToken_",
          "type": "address"
        },
        {
          "internalType": "address",
          "name": "oracle_",
          "type": "address"
        },
        {
          "internalType": "address",
          "name": "treasury_",
          "type": "address"
        }
      ],
      "name": "initialize",
      "outputs": [],
      "stateMutability": "nonpayable",
      "type": "function"
    },
    {
      "inputs": [
        {
          "internalType": "uint256",
          "name": "nftId",
          "type": "uint256"
        }
      ],
      "name": "initiateTermination",
      "outputs": [],
      "stateMutability": "nonpayable",
      "type": "function"
    },
    {
      "inputs": [
        {
          "internalType": "address",
          "name": "",
          "type": "address"
        }
      ],
      "name": "isRewardToken",
      "outputs": [
        {
          "internalType": "bool",
          "name": "",
          "type": "bool"
        }
      ],
      "stateMutability": "view",
      "type": "function"
    },
    {
      "inputs": [
        {
          "internalType": "address",
          "name": "user",
          "type": "address"
        }
      ],
      "name": "isWhitelisted",
      "outputs": [
        {
          "internalType": "bool",
          "name": "",
          "type": "bool"
        }
      ],
      "stateMutability": "view",
      "type": "function"
    },
    {
      "inputs": [],
      "name": "marketFeeRate",
      "outputs": [
        {
          "internalType": "uint256",
          "name": "",
          "type": "uint256"
        }
      ],
      "stateMutability": "view",
      "type": "function"
    },
    {
      "inputs": [],
      "name": "mintNFT",
      "outputs": [
        {
          "internalType": "uint256",
          "name": "",
          "type": "uint256"
        }
      ],
      "stateMutability": "nonpayable",
      "type": "function"
    },
    {
      "inputs": [],
      "name": "multisigNode",
      "outputs": [
        {
          "internalType": "address",
          "name": "",
          "type": "address"
        }
      ],
      "stateMutability": "view",
      "type": "function"
    },
    {
      "inputs": [
        {
          "internalType": "address",
          "name": "",
          "type": "address"
        }
      ],
      "name": "multisigRewardDistributed",
      "outputs": [
        {
          "internalType": "uint256",
          "name": "",
          "type": "uint256"
        }
      ],
      "stateMutability": "view",
      "type": "function"
    },
    {
      "inputs": [
        {
          "internalType": "address",
          "name": "",
          "type": "address"
        }
      ],
      "name": "multisigRewardWithdrawn",
      "outputs": [
        {
          "internalType": "uint256",
          "name": "",
          "type": "uint256"
        }
      ],
      "stateMutability": "view",
      "type": "function"
    },
    {
      "inputs": [],
      "name": "nextOrderId",
      "outputs": [
        {
          "internalType": "uint256",
          "name": "",
          "type": "uint256"
        }
      ],
      "stateMutability": "view",
      "type": "function"
    },
    {
      "inputs": [
        {
          "internalType": "uint256",
          "name": "",
          "type": "uint256"
        }
      ],
      "name": "nftActiveOrder",
      "outputs": [
        {
          "internalType": "uint256",
          "name": "",
          "type": "uint256"
        }
      ],
      "stateMutability": "view",
      "type": "function"
    },
    {
      "inputs": [
        {
          "internalType": "uint256",
          "name": "",
          "type": "uint256"
        }
      ],
      "name": "nftPools",
      "outputs": [
        {
          "internalType": "uint256",
          "name": "nftId",
          "type": "uint256"
        },
        {
          "internalType": "enum NFTManager.NFTStatus",
          "name": "status",
          "type": "uint8"
        },
        {
          "internalType": "uint256",
          "name": "createdAt",
          "type": "uint256"
        },
        {
          "internalType": "uint256",
          "name": "terminationInitiatedAt",
          "type": "uint256"
        },
        {
          "internalType": "uint256",
          "name": "unlockedWithdrawn",
          "type": "uint256"
        },
        {
          "internalType": "uint256",
          "name": "producedWithdrawn",
          "type": "uint256"
        }
      ],
      "stateMutability": "view",
      "type": "function"
    },
    {
      "inputs": [],
      "name": "nodeNFT",
      "outputs": [
        {
          "internalType": "contract NodeNFT",
          "name": "",
          "type": "address"
        }
      ],
      "stateMutability": "view",
      "type": "function"
    },
    {
      "inputs": [
        {
          "internalType": "address",
          "name": "from",
          "type": "address"
        },
        {
          "internalType": "address",
          "name": "to",
          "type": "address"
        },
        {
          "internalType": "uint256",
          "name": "nftId",
          "type": "uint256"
        }
      ],
      "name": "onNFTTransfer",
      "outputs": [],
      "stateMutability": "nonpayable",
      "type": "function"
    },
    {
      "inputs": [],
      "name": "oracle",
      "outputs": [
        {
          "internalType": "address",
          "name": "",
          "type": "address"
        }
      ],
      "stateMutability": "view",
      "type": "function"
    },
    {
      "inputs": [],
      "name": "owner",
      "outputs": [
        {
          "internalType": "address",
          "name": "",
          "type": "address"
        }
      ],
      "stateMutability": "view",
      "type": "function"
    },
    {
      "inputs": [],
      "name": "proxiableUUID",
      "outputs": [
        {
          "internalType": "bytes32",
          "name": "",
          "type": "bytes32"
        }
      ],
      "stateMutability": "view",
      "type": "function"
    },
    {
      "inputs": [
        {
          "internalType": "address",
          "name": "user",
          "type": "address"
        }
      ],
      "name": "removeFromWhitelist",
      "outputs": [],
      "stateMutability": "nonpayable",
      "type": "function"
    },
    {
      "inputs": [
        {
          "internalType": "address",
          "name": "token",
          "type": "address"
        }
      ],
      "name": "removeRewardToken",
      "outputs": [],
      "stateMutability": "nonpayable",
      "type": "function"
    },
    {
      "inputs": [],
      "name": "renounceOwnership",
      "outputs": [],
      "stateMutability": "nonpayable",
      "type": "function"
    },
    {
      "inputs": [
        {
          "internalType": "uint256",
          "name": "",
          "type": "uint256"
        }
      ],
      "name": "rewardTokens",
      "outputs": [
        {
          "internalType": "address",
          "name": "",
          "type": "address"
        }
      ],
      "stateMutability": "view",
      "type": "function"
    },
    {
      "inputs": [
        {
          "internalType": "uint256",
          "name": "",
          "type": "uint256"
        }
      ],
      "name": "sellOrders",
      "outputs": [
        {
          "internalType": "uint256",
          "name": "orderId",
          "type": "uint256"
        },
        {
          "internalType": "uint256",
          "name": "nftId",
          "type": "uint256"
        },
        {
          "internalType": "address",
          "name": "seller",
          "type": "address"
        },
        {
          "internalType": "uint256",
          "name": "price",
          "type": "uint256"
        },
        {
          "internalType": "uint256",
          "name": "createdAt",
          "type": "uint256"
        },
        {
          "internalType": "enum NFTManager.OrderStatus",
          "name": "status",
          "type": "uint8"
        }
      ],
      "stateMutability": "view",
      "type": "function"
    },
    {
      "inputs": [
        {
          "internalType": "uint256",
          "name": "feeRate",
          "type": "uint256"
        }
      ],
      "name": "setMarketFeeRate",
      "outputs": [],
      "stateMutability": "nonpayable",
      "type": "function"
    },
    {
      "inputs": [
        {
          "internalType": "address",
          "name": "multisigNode_",
          "type": "address"
        }
      ],
      "name": "setMultisigNode",
      "outputs": [],
      "stateMutability": "nonpayable",
      "type": "function"
    },
    {
      "inputs": [
        {
          "internalType": "address",
          "name": "nodeNFT_",
          "type": "address"
        }
      ],
      "name": "setNodeNFT",
      "outputs": [],
      "stateMutability": "nonpayable",
      "type": "function"
    },
    {
      "inputs": [
        {
          "internalType": "address",
          "name": "oracle_",
          "type": "address"
        }
      ],
      "name": "setOracle",
      "outputs": [],
      "stateMutability": "nonpayable",
      "type": "function"
    },
    {
      "inputs": [
        {
          "internalType": "uint256",
          "name": "tgeTime_",
          "type": "uint256"
        }
      ],
      "name": "setTgeTime",
      "outputs": [],
      "stateMutability": "nonpayable",
      "type": "function"
    },
    {
      "inputs": [
        {
          "internalType": "bool",
          "name": "enabled",
          "type": "bool"
        }
      ],
      "name": "setTransfersEnabled",
      "outputs": [],
      "stateMutability": "nonpayable",
      "type": "function"
    },
    {
      "inputs": [
        {
          "internalType": "address",
          "name": "treasury_",
          "type": "address"
        }
      ],
      "name": "setTreasury",
      "outputs": [],
      "stateMutability": "nonpayable",
      "type": "function"
    },
    {
      "inputs": [
        {
          "internalType": "address",
          "name": "usdtToken_",
          "type": "address"
        }
      ],
      "name": "setUsdtToken",
      "outputs": [],
      "stateMutability": "nonpayable",
      "type": "function"
    },
    {
      "inputs": [],
      "name": "tgeTime",
      "outputs": [
        {
          "internalType": "uint256",
          "name": "",
          "type": "uint256"
        }
      ],
      "stateMutability": "view",
      "type": "function"
    },
    {
      "inputs": [],
      "name": "totalMinted",
      "outputs": [
        {
          "internalType": "uint256",
          "name": "",
          "type": "uint256"
        }
      ],
      "stateMutability": "view",
      "type": "function"
    },
    {
      "inputs": [
        {
          "internalType": "address",
          "name": "newOwner",
          "type": "address"
        }
      ],
      "name": "transferOwnership",
      "outputs": [],
      "stateMutability": "nonpayable",
      "type": "function"
    },
    {
      "inputs": [],
      "name": "transfersEnabled",
      "outputs": [
        {
          "internalType": "bool",
          "name": "",
          "type": "bool"
        }
      ],
      "stateMutability": "view",
      "type": "function"
    },
    {
      "inputs": [],
      "name": "treasury",
      "outputs": [
        {
          "internalType": "address",
          "name": "",
          "type": "address"
        }
      ],
      "stateMutability": "view",
      "type": "function"
    },
    {
      "inputs": [
        {
          "internalType": "address",
          "name": "newImplementation",
          "type": "address"
        },
        {
          "internalType": "bytes",
          "name": "data",
          "type": "bytes"
        }
      ],
      "name": "upgradeToAndCall",
      "outputs": [],
      "stateMutability": "payable",
      "type": "function"
    },
    {
      "inputs": [],
      "name": "usdtToken",
      "outputs": [
        {
          "internalType": "contract IERC20",
          "name": "",
          "type": "address"
        }
      ],
      "stateMutability": "view",
      "type": "function"
    },
    {
      "inputs": [
        {
          "internalType": "address",
          "name": "",
          "type": "address"
        },
        {
          "internalType": "uint256",
          "name": "",
          "type": "uint256"
        }
      ],
      "name": "userNFTList",
      "outputs": [
        {
          "internalType": "uint256",
          "name": "",
          "type": "uint256"
        }
      ],
      "stateMutability": "view",
      "type": "function"
    },
    {
      "inputs": [
        {
          "internalType": "address",
          "name": "",
          "type": "address"
        }
      ],
      "name": "whitelist",
      "outputs": [
        {
          "internalType": "bool",
          "name": "",
          "type": "bool"
        }
      ],
      "stateMutability": "view",
      "type": "function"
    },
    {
      "inputs": [],
      "name": "whitelistCount",
      "outputs": [
        {
          "internalType": "uint256",
          "name": "",
          "type": "uint256"
        }
      ],
      "stateMutability": "view",
      "type": "function"
    },
    {
      "inputs": [
        {
          "internalType": "uint256",
          "name": "nftId",
          "type": "uint256"
        },
        {
          "internalType": "uint256",
          "name": "amount",
          "type": "uint256"
        }
      ],
      "name": "withdrawUnlocked",
      "outputs": [
        {
          "internalType": "uint256",
          "name": "",
          "type": "uint256"
        }
      ],
      "stateMutability": "nonpayable",
      "type": "function"
    }
  ],
  "bytecode": "0x60a0806040523461002b573060805261574290816200003182396080518181816125d4015261293f0152f35b600080fdfe608060408181526004918236101561001657600080fd5b600090813560e01c9081630a763da11461433a5750806312edb24c146142a757806313678b49146142175780631459457a14613fb357806314f710fe14613cc35780631820cabb14613ca457806319f874be14613bdd5780631a46e42a14613adb5780631c03e6cc146139eb5780631df68102146135cf5780631ec8bb8c1461346a578063239d460e1461330457806326b9ce13146132a1578063279d440a146131f057806328fc79c4146131cc5780632940d29b1461308457806329e3cbb514612fed5780632a58b33014612fce5780632c174dda14612f6a5780633163e3a814612f4b57806332cb6b0c14612f2e5780633926fd0814612f125780633af32abf146116d55780633d509c9714612df45780633edff20f1461061e57806345d332a814612cf657806345d7046f14612cce578063461e01fe14612cb157806346e26597146114a757806347a00aa214612535578063489c340314612c255780634a8393f314612bb35780634bc7176214612b7b5780634c7c8d7414612b0c5780634f1ef286146128ef57806351ed82881461262657806352d1902d146125c057806352de4ee51461253a5780635ce10521146125355780635d2af488146125165780636018623a14610eca57806361d027b3146124ed578063626384ee146124d0578063670e90111461239857806367bb3d42146121f65780637140515b146121d8578063715018a61461217f5780637adbf973146121105780637bb7bed1146120cf5780637c95cdc614611fbe5780637dc0d1d014611f955780637ebd739f14611de75780637f64978314611c6e57806382e5d07314611c4f5780638ab1d68114611b835780638da5cb5b14611b4d57806392a2d846146119065780639535e9b2146117135780639b19251a146116d55780639e89980614611637578063a2309ff814611618578063a32accc8146114cf578063a5606220146114a7578063a5e1fad71461145f578063a6a8fbaf14611314578063a98ad46c146112eb578063ad3cb1cc14611281578063b32c4d8d1461121e578063b5fd73f8146111e0578063b916905c14610f48578063be2ccd2b14610f2b578063bef97c8714610f07578063c3174ad714610ecf578063c36bbb2a14610eca578063c59b1f3c14610ea3578063c6eab62314610e6b578063d09ef24114610e2b578063d5aef15d14610df7578063d7f3c66d14610c01578063dadcfd9a14610be2578063e101487814610b78578063e70eb392146109f9578063e720ac8e146109da578063e76c01e4146109af578063eabc1bb714610976578063eb9c68d31461094d578063f0075b04146106ac578063f0f442601461063d578063f2624b5d1461061e578063f2e8553a146105d5578063f2fde38b146105a8578063f93cb0b414610483578063fd758665146104565763ff58a74d1461042e57600080fd5b34610453576020366003190112610453575061044c6020923561537b565b9051908152f35b80fd5b50903461047f578160031936011261047f5760055490516001600160a01b039091168152602090f35b5080fd5b509190346105a45760209283600319360112610453576104a1614393565b6104a9614ff9565b6009546001600160a01b039182916104c49083163314614da5565b1691828152601586526104dc60ff85832054166149e6565b828152600a865283812054600b8752848220548082111561059b5761050091614849565b945b8515610562575061052f91848285889452600b895220610523838254614ac9565b90556009541683615219565b60008051602061566d8339815191528280518581524287820152a2600160008051602061568d8339815191525551908152f35b845162461bcd60e51b815290810187905260136024820152724e6f2072657761726420617661696c61626c6560681b6044820152606490fd5b50508094610502565b8280fd5b5034610453576020366003190112610453576105d26105c5614393565b6105cd614fc0565b614f5e565b80f35b503461045357606036600319011261045357506106006105f3614393565b6044359060243590614df0565b825183815292839261061491840190614618565b9060208301520390f35b50903461047f578160031936011261047f57602090600d549051908152f35b503461045357602036600319011261045357610657614393565b61065f614fc0565b6001600160a01b0316610673811515614795565b600880546001600160a01b031916821790557f3c864541ef71378c6229510ed90f376565ee42d9c5e0904a984a9e863e6db44f8280a280f35b5091346105a457816003193601126105a4576024916001600160401b039180359190859085358581116105a457366023820112156105a4576106f6903690888185013591016144ab565b9560018060a01b0361070d81600754163314614966565b610715614ff9565b6107208615156149a0565b60055485516370a0823160e01b8152308582015260209891831689828681845afa91821561094357879261090c575b508882106108ee575b50508160055416878751928a888186016107928761078463095ea7b360e01b97888552898d84016148d8565b03601f19810189528861446d565b86519082875af188513d826108d2575b50501561086c575b505050506005541691823b15610868578592858593815195869463330b421160e01b86528501528301528183816107e4604482018d614687565b03925af1801561085e57610846575b50507f56fa7f9e10f2f1c2c34646163a4d6095e9dd017c4dfce38cdf6e039c6dbf4a1593818061082e93519586958652850152830190614687565b0390a1600160008051602061568d8339815191525580f35b61084f9061445a565b61085a5784386107f3565b8480fd5b83513d84823e3d90fd5b8380fd5b90919293949596508751918a83015282868301528b6044830152604482526080820190828210908211176108be57916108b08c97969594926108b5948a52826154a1565b6154a1565b388080806107aa565b85604188634e487b7160e01b600052526000fd5b9091506108e65750823b15155b38806107a2565b6001146108df565b6108fb610905928a614849565b9030903390615029565b3880610758565b965090508886813d811161093c575b610925818361446d565b81010312610937578a9551903861074f565b600080fd5b503d61091b565b88513d89823e3d90fd5b50903461047f578160031936011261047f5760095490516001600160a01b039091168152602090f35b5091346105a45760203660031901126105a4573591601b5483101561045357506109a160209261459e565b91905490519160031b1c8152f35b5034610453578060031936011261045357546109d6600254926003549051938493846143f5565b0390f35b50903461047f578160031936011261047f576020906010549051908152f35b509190346105a457806003193601126105a45781359283610a186143a9565b93610a21614ff9565b60018060a01b03908181541685519788926331a9108f60e11b84528301528160246020998a935afa908115610b6e5791610a6b8692610a9c948791610b41575b5082163314614912565b86169384815260158852610a8460ff83832054166149e6565b838152601288522094610a9683615240565b826153e3565b9384610abe575b505050600160008051602061568d8339815191525551908152f35b60ff600182015416610acf816143bf565b8015908115610b2d575b50610b0c575b50610aeb843384615219565b82519084825260008051602061564d833981519152863393a4388080610aa3565b6006908360005201855282600020610b25858254614ac9565b905538610adf565b60019150610b3a816143bf565b1438610ad9565b610b6191508a3d8c11610b67575b610b59818361446d565b8101906148f3565b38610a61565b503d610b4f565b85513d86823e3d90fd5b509190346105a45760203660031901126105a4578060c0938335815260126020522080549260ff600183015416926002830154906005600385015493850154940154948151968752610bc9816143bf565b60208701528501526060840152608083015260a0820152f35b50903461047f578160031936011261047f57602090601b549051908152f35b509190346105a45760203660031901126105a457610c1d614393565b90610c26614fc0565b6001600160a01b0382811692909190610c4084151561470d565b826006541692838514610dc5578387526015602052828720805460ff8116610cf6575b5050600680546001600160a01b0319168617905550838652601560205281862054939450919290919060ff1615610cbe575b50507fed5ebedb5d6e464974abf54b50566ba8d4b0e2962ca0d3ba3d0ef935a6c328398380a380f35b610cc7906147dc565b82845260156020528320805460ff19166001179055816000805160206155ed8339815191528480a23880610c95565b60ff19169055865b60145480821015610db857829086610d158461456d565b939054600394851b1c1614610d2e575050600101610cfe565b909193949596976000198201918211610da5575091610d6091610d54610d7e959461456d565b9054911b1c169161456d565b90919060018060a01b038084549260031b9316831b921b1916179055565b610d86614b5b565b8260008051602061558d8339815191528680a290839291388080610c63565b634e487b7160e01b8a5260119052602489fd5b5050509091929350610d86565b825162461bcd60e51b8152602081880152600c60248201526b53616d65206164647265737360a01b6044820152606490fd5b5091346105a45760203660031901126105a45760209282610e2392359182815260128652205414614bc1565b61044c61505f565b5091346105a45760203660031901126105a457610e608260c094610e6993610e51614c55565b50358152601660205220614ceb565b915180926145d1565bf35b50903461047f57602036600319011261047f5760209181906001600160a01b03610e93614393565b1681526001845220549051908152f35b50346104535781600319360112610453575061044c602092610ec36143a9565b90356153e3565b614516565b50903461047f57602036600319011261047f5760209181906001600160a01b03610ef7614393565b168152600a845220549051908152f35b50903461047f578160031936011261047f5760209060ff600e541690519015158152f35b509190346105a457826003193601126105a4576020925051908152f35b50903461047f57610f58366143df565b92610f61614ff9565b845483516331a9108f60e11b8152808701849052602096916001600160a01b0391879189908290602490829087165afa9081156111d65790610fae9186916111b9575b5083163314614912565b8484526012885285842096600260ff60018a015416610fcc816143bf565b036111815783610fda61505f565b9801918254988980821160001461117857610ff491614849565b915b8215611136578a959493929190806110d557505091611043959493916110209993998a8095614ac9565b9055600554169084885180978195829463a9059cbb60e01b8452339084016148d8565b03925af19081156110ca575061109d575b5081519083825242858301527f0896f97f16b0e06b27363dfd77b4e0b79741cdd81c49cf7d760b6f5eb8f346fa833393a3600160008051602061568d8339815191525551908152f35b6110bc90853d87116110c3575b6110b4818361446d565b81019061494e565b5038611054565b503d6110aa565b8451903d90823e3d90fd5b90999293949550116110f4579288928892611020846110439897614ac9565b865162461bcd60e51b81528085018a9052601c60248201527b125b9cdd59999a58da595b9d081d5b9b1bd8dad95908185b5bdd5b9d60221b6044820152606490fd5b885162461bcd60e51b81528087018c9052601c60248201527b4e6f20756e6c6f636b656420616d6f756e7420617661696c61626c6560201b6044820152606490fd5b50508591610ff6565b865162461bcd60e51b81528085018a90526012602482015271139195081b9bdd081d195c9b5a5b985d195960721b6044820152606490fd5b6111d091508a3d8c11610b6757610b59818361446d565b38610fa4565b87513d87823e3d90fd5b50903461047f57602036600319011261047f5760209160ff9082906001600160a01b0361120b614393565b1681526015855220541690519015158152f35b509190346105a45760203660031901126105a4578060c09383358152600f60205220805492600182015492600283015490600560ff60038601549486015416940154948151968752602087015285015260608401521515608083015260a0820152f35b5034610453578060031936011261045357508051908181016001600160401b038111838210176112d6576109d69350815260058252640352e302e360dc1b602083015251918291602083526020830190614687565b604184634e487b7160e01b6000525260246000fd5b50903461047f578160031936011261047f5760065490516001600160a01b039091168152602090f35b5091346105a4576020918260031936011261086857815481516331a9108f60e11b8152833581850181905293916001600160a01b039086908390602490829085165afa918215611455579061137492918892611436575b50163314614912565b82855260128452818520600181019160038354926113a0600160ff861661139a816143bf565b14614ad6565b01546201518081018091116114235742106113ea57509060026000805160206155ad833981519152939260ff19161790556113dc600254614d98565b60025551924284523393a380f35b835162461bcd60e51b8152908101869052601360248201527210dbdbdb191bdddb881b9bdd081c185cdcd959606a1b6044820152606490fd5b634e487b7160e01b885260118252602488fd5b61144e919250873d8911610b6757610b59818361446d565b903861136b565b84513d89823e3d90fd5b50903461047f578060031936011261047f57611479614393565b6001600160a01b0316825260136020528082208054602435939084101561045357506020926109a1916145b9565b5091346105a45760203660031901126105a45760209282913581526017845220549051908152f35b50346104535780600319360112610453576114e8614ff9565b8060018060a01b039160099361150384600954163314614da5565b60145461150f81614d42565b9361151982614d42565b95815b83811061154457600160008051602061568d833981519152558451806109d6888b8b84614659565b8161154e8261456d565b90549060031b1c1680611561838a614cd7565b52808452602090600a8252828b888720548c600b918287528b8a20549081811160001461160a5761159d9161159591614849565b948592614cd7565b52826115b1575b505050505060010161151c565b916115f481869c6115ef828b8f97888f60008051602061566d8339815191529b60019f9e8e835252206115e5848254614ac9565b9055541689615219565b614ac9565b9a82519182524290820152a2908a808b816115a4565b505061159d89948592614cd7565b50903461047f578160031936011261047f576020906011549051908152f35b50903461047f578160031936011261047f57601b549061165682614c87565b91835b818110611675578251602080825281906109d690820187614618565b8061168160019261459e565b90549060031b1c8652601660205283862060ff6005820154166116a3816143bf565b156116b0575b5001611659565b6116b990614ceb565b6116c38287614cd7565b526116ce8186614cd7565b50866116a9565b50903461047f57602036600319011261047f5760209160ff9082906001600160a01b03611700614393565b168152600c855220541690519015158152f35b509190346105a45760203660031901126105a4576007546001600160a01b0391908335906117449084163314614966565b61174c614ff9565b801561175881156149a0565b61176784600954161515614a28565b6117746002541515614a6c565b605082029082820460501417156118f3576064869104936117958584614849565b9585611879575b86611811575b505050827fc5c275cf3c1abd96cea7e1e948d49c835afccf58b09fe506ebd3cd58991b8174916117fc7fefb9f62cd6ad65913c36f83bb550fe3ec84ad4553e81ab326bf4365d326a2eda96426003558551938493846143f5565b0390a161082e845491519283924291846143f5565b8160055416916009541690823b1561086857611846928492838a9389519687958694859363352c5d7560e21b855284016148d8565b03925af1801561186f5761185b575b806117a2565b6118649061445a565b61085a578438611855565b84513d84823e3d90fd5b8160055416803b1561086857838651809263352c5d7560e21b82528183816118a48d308a84016148d8565b03925af180156118e9579084916118d5575b50506118ce6118c760025488614aa9565b8454614ac9565b835561179c565b6118de9061445a565b6105a45782386118b6565b86513d86823e3d90fd5b634e487b7160e01b865260118552602486fd5b50823461047f57611916366143df565b61191e614fc0565b8115611b10578015611ad55760105492828560015b868110611aaf57506113889161194891614ac9565b11611a605761195684614824565b60105560015b848110611a1d575094837f07978a2d36cf05f633498b1178e77417882ed002fa4dae7c3d9e4dc989fe2c8482829560008051602061562d8339815191529560209a6005868c8651936119ad85614429565b8285528f850187815288860183815260608701918883528a60808901956001875260a08a019742895281526020600f9052209751885551600188015551600287015551600386015584019051151560ff801983541691161790555191015582519182528a820152a2519380a28152f35b806001918752600f6020528288882001805460ff8116611a40575b50500161195c565b60ff19169055806000805160206156ad8339815191528880a28880611a38565b608490602087519162461bcd60e51b83528201526024808201527f546f74616c206d61784d696e7461626c652065786365656473204d41585f535560448201526350504c5960e01b6064820152fd5b9150611acb600191838952600f602052828a8a20015490614ac9565b9101908491611933565b845162461bcd60e51b8152602081850152601560248201527406d696e745072696365206d757374206265203e203605c1b6044820152606490fd5b845162461bcd60e51b8152602081850152601760248201527606d61784d696e7461626c65206d757374206265203e203604c1b6044820152606490fd5b50903461047f578160031936011261047f5760008051602061556d8339815191525490516001600160a01b039091168152602090f35b509190346105a45760203660031901126105a457611b9f614393565b611ba7614fc0565b6001600160a01b0316808452600c6020528184205490929060ff1615611c155750816020917fde8cf212af7ce38b2840785a2768d97ff2dbf3c21b516961cec0061e134c2a1e938552600c835280852060ff198154169055611c0a600d54614d98565b600d5551908152a180f35b6020606492519162461bcd60e51b83528201526015602482015274155cd95c881b9bdd081a5b881dda1a5d195b1a5cdd605a1b6044820152fd5b50903461047f578160031936011261047f576020906014549051908152f35b50903461047f57602092836003193601126105a4578035936001600160401b039182861161085a573660238701121561085a578581013592831161085a576024860195602436918560051b01011161085a57611cc8614fc0565b8215611db85750835b828110611d46575090825192818385018486525283019491845b828110611d1c57857ff74f148a4f930a0f67a2c33ba932a14e3e91b4e6468f21e545932fd82511153886890387a180f35b9091929586359060018060a01b038216809203610937579081528201958201929190600101611ceb565b6001906001600160a01b0380611d65611d6084888c614d74565b614d84565b168752600c9081855260ff878920541615611d83575b505001611cd1565b611d91611d6084888c614d74565b16875283528486208260ff19825416179055600d611daf8154614824565b90553880611d7b565b60649184519162461bcd60e51b8352820152600b60248201526a456d70747920617272617960a81b6044820152fd5b509190346105a4576020908160031936011261086857823591611e08614ff9565b835482516331a9108f60e11b81529485018490526001600160a01b03948694918390829060249082908a165afa9081156114555790611e52918891611f78575b5086163314614912565b80865260128252828620611e6582615240565b60145492611e7284614d42565b96611e7c85614d42565b985b858110611ea657600160008051602061568d833981519152558651806109d68a8d8d84614659565b8082611eb18261456d565b90549060031b1c1680611ec4838d614cd7565b528b611edb611ed3838a6153e3565b938492614cd7565b5281611eec575b5050600101611e7e565b611f2382600194939b8560ff818b01541690611f07826143bf565b8115918215611f64575b5050611f44575b6115ef823386615219565b9989519081528760008051602061564d833981519152873393a49038611ee2565b836000526006890188528b600020611f5d838254614ac9565b9055611f18565b909150611f70816143bf565b143880611f11565b611f8f9150843d8611610b6757610b59818361446d565b38611e48565b50903461047f578160031936011261047f5760075490516001600160a01b039091168152602090f35b5091346105a457611fce366143df565b601b9491945492838610156120965750611fe89085614ac9565b8483821161208e575b611ffa91614849565b9061200482614c87565b94815b83811061202557505050506106148251938385948552840190614618565b8061203a61203560019385614ac9565b61459e565b90549060031b1c8452601660205286842060ff60058201541661205c816143bf565b15612069575b5001612007565b61207290614ceb565b61207c828a614cd7565b526120878189614cd7565b5038612062565b839150611ff1565b606490602086519162461bcd60e51b835282015260136024820152724f6666736574206f7574206f662072616e676560681b6044820152fd5b5091346105a45760203660031901126105a457359160145483101561045357506120fa60209261456d565b905491519160018060a01b039160031b1c168152f35b50346104535760203660031901126104535761212a614393565b612132614fc0565b6001600160a01b0316612146811515614750565b600780546001600160a01b031916821790557f3f32684a32a11dabdbb8c0177de80aa3ae36a004d75210335b49e544e48cd0aa8280a280f35b5034610453578060031936011261045357612198614fc0565b60008051602061556d83398151915280546001600160a01b031981169091556000906001600160a01b031660008051602061560d8339815191528280a380f35b50903461047f578160031936011261047f5760209051620151808152f35b509190346105a4576020928360031936011261045357823590612217614ff9565b835483516331a9108f60e11b81528086018490526001600160a01b03929187908290602490829087165afa90811561238e579061225e918391612377575083163314614912565b82815260128652858482209261227385615240565b61227c8561537b565b968791826122a0575b505085600160008051602061568d8339815191525551908152f35b8560ff60016122e7980154166122b5816143bf565b8015908115612363575b5061234d575b50600554169084885180978195829463a9059cbb60e01b8452339084016148d8565b03925af19081156110ca5750612330575b508151908382527fec98b8698abd46dc2240ba4b7f9602e92fa50c5b84ce3c226d777b4ab65e7a21853393a338808085858280612285565b61234690853d87116110c3576110b4818361446d565b50386122f8565b60050161235b848254614ac9565b9055386122c5565b60019150612370816143bf565b14386122bf565b6111d09150883d8a11610b6757610b59818361446d565b85513d84823e3d90fd5b50903461047f57602090816003193601126105a457835481516331a9108f60e11b8152853581870181905292916001600160a01b039085908390602490829085165afa9182156124c657906123f7929187926124ae5750163314614912565b8184526012835280842060018101805460ff8116612414816143bf565b61247a5760019060ff191617905560034291015562015180420180421161246757907f1e0abe092b378e458543e7c54541dbc2ef57d58fa6c9c87a66efefa954be8b76918151944286528501523393a380f35b634e487b7160e01b855260118652602485fd5b835162461bcd60e51b8152808901879052600e60248201526d4e4654206e6f742061637469766560901b6044820152606490fd5b61144e919250863d8811610b6757610b59818361446d565b83513d88823e3d90fd5b50903461047f578160031936011261047f5760209061044c614c02565b50903461047f578160031936011261047f5760085490516001600160a01b039091168152602090f35b50903461047f578160031936011261047f57602090601a549051908152f35b61440b565b50903461047f57602090816003193601126105a4576001600160a01b0361255f614393565b16835260138252808320815190819485928583549182815201928252858220915b868282106125a95785906109d68861259a8489038561446d565b519282849384528301906144e2565b835485528895509093019260019283019201612580565b5034610453578060031936011261045357507f00000000000000000000000000000000000000000000000000000000000000006001600160a01b0316300361261957602090516000805160206155cd8339815191528152f35b5163703e46dd60e11b8152fd5b509190346105a45760208060031936011261086857823590612646614ff9565b818552601681528285209261265d83855414614856565b6005840161267860ff825416612672816143bf565b15614899565b60028501805490956001600160a01b039291831691903383146128b7578389541692600182019387855460248d8a5194859384926331a9108f60e11b84528301525afa9081156128ad579086918d91612890575b50160361285557600301978854601a54808202908282041482151715612842576127106127209104916127116127028483614849565b91886006541630903390615029565b8660065416878c541690615219565b80612828575b50898482541691858a541692855491813b15610868578361275d958a51968795869485936323b872dd60e01b855233918501614b9f565b03925af1801561281e576127f2575b5091606093916000805160206156ed8339815191529593600260ff1982541617905580548a526017845289838120556127a4876150c9565b6127b382895416825490615158565b338a52601384526127c8838b20825490614801565b5496541696548151923384528301524290820152a4600160008051602061568d8339815191525580f35b916000805160206156ed833981519152959391996128126060969461445a565b9991939550919361276c565b85513d8c823e3d90fd5b61283c908560065416866008541690615219565b38612726565b634e487b7160e01b8c526011835260248cfd5b845162461bcd60e51b8152808a018790526015602482015274139195081bdddb995c9cda1a5c0818da185b99d959605a1b6044820152606490fd5b6128a79150893d8b11610b6757610b59818361446d565b386126cc565b87513d8e823e3d90fd5b845162461bcd60e51b8152808a01879052601260248201527110d85b9b9bdd08189d5e481bdddb8813919560721b6044820152606490fd5b509190806003193601126105a457612905614393565b906024356001600160401b03811161085a573660238201121561085a5761293590369060248187013591016144ab565b6001600160a01b037f00000000000000000000000000000000000000000000000000000000000000008116308114908115612af0575b50612ae057612978614fc0565b82516352d1902d60e01b81529084169360209182818881895afa889181612aad575b506129b6578451634c9c8ce360e01b8152808801879052602490fd5b6000805160206155cd83398151915296929591939690818103612a975750833b15612a805780546001600160a01b0319168217905583518792917fbc7cd75a20ee27fd9adebab32041f755214dbc6bffa90cc0225b39da2e5c2d3b8480a2865115612a63575050808585612a5597519101845af4913d15612a59573d612a47612a3e82614490565b9251928361446d565b81528581943d92013e615509565b5080f35b5060609250615509565b9450945050505034612a7457505080f35b63b398979f60e01b8152fd5b8451634c9c8ce360e01b8152808401839052602490fd5b83602491875191632a87526960e21b8352820152fd5b9091508381813d8311612ad9575b612ac5818361446d565b81010312612ad55751903861299a565b8880fd5b503d612abb565b825163703e46dd60e11b81528590fd5b9050816000805160206155cd833981519152541614153861296b565b50823461047f57602036600319011261047f57612b27614393565b612b2f614fc0565b6001600160a01b031690612b448215156146c7565b80546001600160a01b031916821790557fede4ef3486c9ef067a9e09bfd05cfd39326e106e4b96f67c690490e2bbbcc0d88280a280f35b50903461047f57602036600319011261047f5760209181906001600160a01b03612ba3614393565b168152600b845220549051908152f35b509190346105a45760203660031901126105a4578060c0938335815260166020522080549260018201549260018060a01b036002840154169060ff600560038601549486015495015416948151968752602087015285015260608401526080830152612c1e816143bf565b60a0820152f35b509190346105a45760203660031901126105a457813591612c44614fc0565b8215612c7c5750816020917f903b590f6a5312f6a1aa6fd3eccad743d9f3cd3ac32f80b5e14e11ebc74c994a9360195551908152a180f35b6020606492519162461bcd60e51b8352820152601060248201526f496e76616c6964205447452074696d6560801b6044820152fd5b50903461047f578160031936011261047f5760209061044c61508b565b5091346105a457826003193601126105a4575490516001600160a01b03909116815260209150f35b5091346105a45760208060031936011261086857813592612d15614fc0565b838552600f8060205283828720612d2e87825414614b18565b019360ff9060ff865416612dba576001938493845b612d6a575b875460ff19166001178855898960008051602061562d8339815191528280a280f35b601054851015612db557858581968c5282895284848d20018054878116612d95575b50500194612d43565b60ff19169055806000805160206156ad8339815191528d80a23880612d8c565b612d48565b606490602085519162461bcd60e51b83528201526014602482015273426174636820616c72656164792061637469766560601b6044820152fd5b503461045357602036600319011261045357612e0e614393565b91612e17614fc0565b6001600160a01b0392831680835260156020528183205490919060ff1615612ede5781835260156020528220805460ff19169055815b60145480821015612ed357849083612e648461456d565b939054600394851b1c1614612e7d575050600101612e4d565b60009592939495198101908111612ec057612ea39495965090610d54610d60939261456d565b612eab614b5b565b60008051602061558d8339815191528280a280f35b634e487b7160e01b865260118752602486fd5b505091509150612eab565b5162461bcd60e51b8152602081860152600f60248201526e151bdad95b881b9bdd081859191959608a1b6044820152606490fd5b50903461047f578160031936011261047f576020905160198152f35b50903461047f578160031936011261047f57602090516113888152f35b50903461047f578160031936011261047f576020906019549051908152f35b50903461047f57602036600319011261047f576001600160a01b03612f8d614393565b168252600a6020526109d68183205491600b6020528084205493848411600014612fc85750612fbc8484614849565b905b51938493846143f5565b90612fbe565b50903461047f578160031936011261047f576020906018549051908152f35b5091346105a45760203660031901126105a45780359161300b614fc0565b828452600f6020528181852061302385825414614b18565b019182549160ff83161561304e57505060ff191690556000805160206156ad8339815191528280a280f35b906020606492519162461bcd60e51b8352820152601060248201526f4261746368206e6f742061637469766560801b6044820152fd5b5091346105a4576020918260031936011261086857815481516331a9108f60e11b8152833581850181905293916001600160a01b039086908390602490829085165afa91821561145557906130e3929188926114365750163314614912565b8285526012845281852060018101906003825491613109600160ff851661139a816143bf565b01928354620151808101908181116131b9576228de80018091116131a657421015613164575060ff191690558490555142815233927f790d4f36688b81d48766c435997b33f41febebee7383b92cb2e32f58536b179b91a380f35b845162461bcd60e51b8152908101879052601c60248201527b15195c9b5a5b985d1a5bdb881d1a5b595bdd5d08195e18d95959195960221b6044820152606490fd5b634e487b7160e01b895260118252602489fd5b634e487b7160e01b8a526011835260248afd5b50903461047f578160031936011261047f5760209051686c6b935b8bbd4000008152f35b5091346105a45760203660031901126105a45761320b614393565b613213614fc0565b6001600160a01b031691821561325e575050600980546001600160a01b031916821790557f69f71146778e64049706b546b628803ff396012db25241d4cb7c5322cbbf081f8280a280f35b906020606492519162461bcd60e51b8352820152601d60248201527f496e76616c6964206d756c7469736967206e6f646520616464726573730000006044820152fd5b5091346105a45760203660031901126105a45735908115158092036105a4577f2cac12335272569cae3b5eead61f36da81730100604965d574b896ad69c99153916020916132ed614fc0565b60ff19600e541660ff831617600e5551908152a180f35b509190346105a45760603660031901126105a457613320614393565b916133296143a9565b8154604435946001600160a01b0392918316330361342f578281169384151580613424575b156133ed57508561335e91615158565b169182855260136020528420928493858154905b8181106133c0575b50509080929394156133b0575b50507fa36e6cb4a3343107902bf7cefd0477c5bf12467172d938f9a9c331702ce83d1d8480a480f35b6133b991614801565b3881613387565b836133cb82856145b9565b90549060031b1c146133df57600101613372565b50600195508290503861337a565b606490602087519162461bcd60e51b83528201526011602482015270496e76616c69642061646472657373657360781b6044820152fd5b50838316151561334e565b845162461bcd60e51b8152602081860152601560248201527413db9b1e48139bd9195391950818d85b8818d85b1b605a1b6044820152606490fd5b509190346105a457806003193601126105a457613485614393565b6007546001600160a01b03936024359392916134a49086163314614966565b6134ac614ff9565b6134e1858515936134bd85156149a0565b169586885260156020526134d660ff868a2054166149e6565b600954161515614a28565b6134ee6002541515614a6c565b605084029184830460501417156135bc57509160a09160647f737d6f157a8bc3e36544a1d18c6ed0df9b2e672ba38c1146a5d1b546307944329404906135348284614849565b906135418430338a615029565b868852600a602052808820613557838254614ac9565b905561356560025484614aa9565b878952600160205261357b828a20918254614ac9565b90554260035586885260016020528088205492815194855260208501528301526060820152426080820152a2600160008051602061568d8339815191525580f35b634e487b7160e01b865260119052602485fd5b50903461047f576135df366143df565b906135e8614ff9565b60ff600e5416156139b057845483516331a9108f60e11b81528087018390526001600160a01b039660209690926024929089169088818581855afa9081156138c15790613640918491613993575b508a163314614912565b851561395d57848252601788528682205461391c57848252601288528487832054036138ea57865163020604bf60e21b81528481018690529088828581845afa9182156138c157604492918a9185936138cb575b50895163e985e9c560e01b81523388820152308782015293849182905afa9182156138c15783926138a2575b5089163014159081613899575b5061381557600596976018549788916136e583614824565b6018558a8951916136f583614429565b848352818301908982528b84019033825260608501928c84526016608087019542875260a08801998b8b528b52528d8920955186555160018601556002850191511660018060a01b0319825416179055516003830155518682015501905161375c816143bf565b613765816143bf565b60ff80198354169116179055838152601788528686822055601b5492600160401b84101561380557505050846137a48260016137bd9401601b5561459e565b90919082549060031b91821b91600019901b1916179055565b82519182524285830152837f019885652a4a8dfdfca02c68db30c0e34d05185a6ffcd7779d140e33d1a2a90c843394a4600160008051602061568d8339815191525551908152f35b634e487b7160e01b825260419052fd5b855162461bcd60e51b81528084018890526053818401527f4e46544d616e61676572206e6f7420617070726f7665642e204f776e6572206d60448201527f7573742063616c6c204e6f64654e46542e617070726f7665284e46544d616e6160648201527219d95c8b081d1bdad95b92590a48199a5c9cdd606a1b608482015260a490fd5b905015386136cd565b6138ba919250893d8b116110c3576110b4818361446d565b90386136c0565b88513d85823e3d90fd5b6138e3919350823d8411610b6757610b59818361446d565b9138613694565b865162461bcd60e51b8152808501899052600d818501526c139195081b9bdd08199bdd5b99609a1b6044820152606490fd5b865162461bcd60e51b8152808501899052601c818501527b27232a1030b63932b0b23c903430b99030b1ba34bb329037b93232b960211b6044820152606490fd5b865162461bcd60e51b81528085018990526011818501527005072696365206d757374206265203e203607c1b6044820152606490fd5b6139aa91508a3d8c11610b6757610b59818361446d565b38613636565b825162461bcd60e51b81526020818701526015602482015274151c985b9cd9995c9cc81b9bdd08195b98589b1959605a1b6044820152606490fd5b509190346105a45760203660031901126105a457613a07614393565b613a0f614fc0565b6001600160a01b038116928315613aa057838552601560205260ff8386205416613a675750613a3d906147dc565b81835260156020528220805460ff191660011790556000805160206155ed8339815191528280a280f35b606490602084519162461bcd60e51b83528201526013602482015272151bdad95b88185b1c9958591e481859191959606a1b6044820152fd5b606490602084519162461bcd60e51b83528201526015602482015274496e76616c696420746f6b656e206164647265737360581b6044820152fd5b5091346105a45760203660031901126105a457803590613af9614ff9565b818452601660205282842090613b1183835414614856565b60028201546001600160a01b03163303613ba7575060018160057f4f01217d058067ec6102d5e8fcf57570cd171598712f71f9aa9c7aa4a68ba2279301828154613b6160ff8216612672816143bf565b60ff1916179055018054855260176020528484812055613b80836150c9565b54925180613b8f4233836148d8565b0390a3600160008051602061568d8339815191525580f35b606490602085519162461bcd60e51b8352820152601060248201526f2737ba1037b93232b91039b2b63632b960811b6044820152fd5b509190346105a45760203660031901126105a457813583526012602052808320613c0561505f565b90613c0e61508b565b91686c6b935b8bbd40000081811115613c9a57818103818111613c87576101209750905b60ff60018501541696600285015496600560038701549287015496015497815199613c5c816143bf565b8a5260208a01528801526060870152608086015260a085015260c084015260e0830152610100820152f35b634e487b7160e01b885260118752602488fd5b6101209690613c32565b50903461047f578160031936011261047f57602090516301e133808152f35b50829034610453578060031936011261045357613cde614ff9565b338152602092600c845260ff80828420541615613f7e57601054839160015b828110613f57575b5050508015613f2257808352600f8552818320946002860191825460018801541115613eee576113886011541015613eb6578460018060a01b03918260065416613d5e8460085416916003809c01928354913390615029565b84848a541660248b8a5196879384926335313c2160e11b845233908401525af1928315613eac578893613e79575b508288526012855286882083815560018101805460ff1916905542600282015598890188905560058901889055949760060194875b601454811015613def5780858c613dd960019461456d565b9054911b1c168a52878752898981205501613dc1565b5082935088613e088894858b33815260138a5220614801565b613e128154614824565b9055613e1f601154614824565b601155613e2d600254614824565b6002555482519081524285820152837f19cc59039f8eb7ba436b5b291277e03e5209d6d8e48c1bdba4716897fc614b99843393a4600160008051602061568d8339815191525551908152f35b9092508481813d8311613ea5575b613e91818361446d565b81010312613ea15751918a613d8c565b8780fd5b503d613e87565b87513d8a823e3d90fd5b835162461bcd60e51b8152808701839052601260248201527113585e081cdd5c1c1b1e481c995858da195960721b6044820152606490fd5b835162461bcd60e51b8152808701839052600e60248201526d10985d18da081cdbdb19081bdd5d60921b6044820152606490fd5b815162461bcd60e51b8152808501869052600f60248201526e09cde40c2c6e8d2ecca40c4c2e8c6d608b1b6044820152606490fd5b808652600f88528187868820015416613f7257600101613cfd565b92505050858080613d05565b815162461bcd60e51b8152808501869052600f60248201526e139bdd081dda1a5d195b1a5cdd1959608a1b6044820152606490fd5b5091346105a45760a03660031901126105a457613fce614393565b613fd66143a9565b6001600160a01b03919060443583811691828203613ea15760643590858216809203612ad55760843591868316809303614213576000805160206156cd8339815191529788549760ff898c1c16159760018060401b038a16998a158061420c575b6001809c149081614202575b1590816141f9575b506141e9576001600160401b031981168b178c558291908a6141ce575b5016936140768515156146c7565b169081156141965790614123959493929161409288151561470d565b61409d831515614750565b6140a8851515614795565b6140b0615472565b6140b8615472565b6140c133614f5e565b6140c9615472565b6140d1615472565b6140d9615472565b8960008051602061568d8339815191525560018060a01b031993848254161790558260055416176005558582600654161760065581600754161760075560085416176008556147dc565b8552601560205283852060ff19908382825416179055426003558260105582601855600e5416600e5584601a55614158578380f35b815460ff60401b191690915590519081527fc7f505b2f371ae2175ee4913f4499e1f2633a7b5936321eed1cdaeb6115181d290602090a13880808380f35b60649060208c519162461bcd60e51b83528201526012602482015271496e76616c6964202445206164647265737360701b6044820152fd5b6001600160481b0319166001600160401b01178c5538614068565b8c5163f92ee8a960e01b81528490fd5b9050153861404b565b303b159150614043565b5089614037565b8980fd5b509190346105a45760203660031901126105a457813591614236614fc0565b6103e883116142715750816020917fa350042da136dc44a7d2db8ddeeee6333a4b121c3fa288f3eabe1ed31795771293601a5551908152a180f35b6020606492519162461bcd60e51b8352820152601160248201527008ccaca40e4c2e8ca40e8dede40d0d2ced607b1b6044820152fd5b503461045357806003193601126104535781516014805480835290835260208083019492937fce6d7b5282bd9a3661ae061feed1dbda4e52ab073b1f9285be6e155d9c38d4ec92915b82821061431a576109d68686614308828b038361446d565b51918291602083526020830190614356565b83546001600160a01b0316875295860195600193840193909101906142f0565b90503461047f578160031936011261047f576020906010548152f35b90815180825260208080930193019160005b828110614376575050505090565b83516001600160a01b031685529381019392810192600101614368565b600435906001600160a01b038216820361093757565b602435906001600160a01b038216820361093757565b600311156143c957565b634e487b7160e01b600052602160045260246000fd5b6040906003190112610937576004359060243590565b6040919493926060820195825260208201520152565b3461093757600036600319011261093757602060405162278d008152f35b60c081019081106001600160401b0382111761444457604052565b634e487b7160e01b600052604160045260246000fd5b6001600160401b03811161444457604052565b601f909101601f19168101906001600160401b0382119082101761444457604052565b6001600160401b03811161444457601f01601f191660200190565b9291926144b782614490565b916144c5604051938461446d565b829481845281830111610937578281602093846000960137010152565b90815180825260208080930193019160005b828110614502575050505090565b8351855293810193928101926001016144f4565b346109375760403660031901126109375760066004356145346143a9565b81600052601260205261454e604060002092835414614bc1565b60018060a01b0316600052016020526020604060002054604051908152f35b60145481101561458857601460005260206000200190600090565b634e487b7160e01b600052603260045260246000fd5b601b5481101561458857601b60005260206000200190600090565b80548210156145885760005260206000200190600090565b60a080918051845260208101516020850152600180831b0360408201511660408501526060810151606085015260808101516080850152015191614614836143bf565b0152565b90815180825260208080930193019160005b828110614638575050505090565b909192938260c08261464d60019489516145d1565b0195019392910161462a565b93929161468290614674604093606088526060880190614356565b9086820360208801526144e2565b930152565b919082519283825260005b8481106146b3575050826000602080949584010152601f8019910116010190565b602081830181015184830182015201614692565b156146ce57565b60405162461bcd60e51b8152602060048201526017602482015276496e76616c6964204e6f64654e4654206164647265737360481b6044820152606490fd5b1561471457565b60405162461bcd60e51b8152602060048201526014602482015273496e76616c69642055534454206164647265737360601b6044820152606490fd5b1561475757565b60405162461bcd60e51b8152602060048201526016602482015275496e76616c6964206f7261636c65206164647265737360501b6044820152606490fd5b1561479c57565b60405162461bcd60e51b8152602060048201526018602482015277496e76616c6964207472656173757279206164647265737360401b6044820152606490fd5b60145490600160401b82101561444457610d608260016147ff940160145561456d565b565b80549190600160401b83101561444457826137a49160016147ff950181556145b9565b60001981146148335760010190565b634e487b7160e01b600052601160045260246000fd5b9190820391821161483357565b1561485d57565b60405162461bcd60e51b815260206004820152601460248201527313dc99195c88191bd95cc81b9bdd08195e1a5cdd60621b6044820152606490fd5b156148a057565b60405162461bcd60e51b815260206004820152601060248201526f4f72646572206e6f742061637469766560801b6044820152606490fd5b6001600160a01b039091168152602081019190915260400190565b9081602091031261093757516001600160a01b03811681036109375790565b1561491957565b60405162461bcd60e51b815260206004820152600d60248201526c2737ba1027232a1037bbb732b960991b6044820152606490fd5b90816020910312610937575180151581036109375790565b1561496d57565b60405162461bcd60e51b815260206004820152600b60248201526a4f6e6c79206f7261636c6560a81b6044820152606490fd5b156149a757565b60405162461bcd60e51b8152602060048201526017602482015276416d6f756e74206d75737420626520706f73697469766560481b6044820152606490fd5b156149ed57565b60405162461bcd60e51b8152602060048201526013602482015272151bdad95b881b9bdd081cdd5c1c1bdc9d1959606a1b6044820152606490fd5b15614a2f57565b60405162461bcd60e51b8152602060048201526015602482015274135d5b1d1a5cda59c81b9bd919481b9bdd081cd95d605a1b6044820152606490fd5b15614a7357565b60405162461bcd60e51b815260206004820152600e60248201526d4e6f20616374697665204e46547360901b6044820152606490fd5b8115614ab3570490565b634e487b7160e01b600052601260045260246000fd5b9190820180921161483357565b15614add57565b60405162461bcd60e51b81526020600482015260136024820152724e4654206e6f74207465726d696e6174696e6760681b6044820152606490fd5b15614b1f57565b60405162461bcd60e51b815260206004820152601460248201527310985d18da08191bd95cc81b9bdd08195e1a5cdd60621b6044820152606490fd5b6014548015614b895760001901614b718161456d565b81549060018060a01b039060031b1b19169055601455565b634e487b7160e01b600052603160045260246000fd5b6001600160a01b03918216815291166020820152604081019190915260600190565b15614bc857565b60405162461bcd60e51b815260206004820152601260248201527113919508191bd95cc81b9bdd08195e1a5cdd60721b6044820152606490fd5b600180601054905b818110614c1957505050600090565b60ff600460406000848152600f60205220015416614c38578201614c0a565b91505090565b6001600160401b0381116144445760051b60200190565b60405190614c6282614429565b8160a06000918281528260208201528260408201528260608201528260808201520152565b90614c9182614c3e565b614c9e604051918261446d565b8281528092614caf601f1991614c3e565b019060005b828110614cc057505050565b602090614ccb614c55565b82828501015201614cb4565b80518210156145885760209160051b010190565b90604051614cf881614429565b825481526001830154602082015260028301546001600160a01b03166040820152600383015460608201526004830154608082015260059092015460ff1660a083614614836143bf565b90614d4c82614c3e565b614d59604051918261446d565b8281528092614d6a601f1991614c3e565b0190602036910137565b91908110156145885760051b0190565b356001600160a01b03811681036109375790565b8015614833576000190190565b15614dac57565b60405162461bcd60e51b815260206004820152601c60248201527b4f6e6c79206d756c7469736967206e6f64652063616e20636c61696d60201b6044820152606490fd5b92600093600193601854945b858110614f1d57508580851015614ef35750614e189084614ac9565b91858311614eeb575b614e33614e2e8585614849565b614c87565b60009160009460015b88811080614ee2575b15614ed557600081815260166020526040902060028101546001600160a01b03888116911614614e7f575b50614e7a90614824565b614e3c565b888892981015614e9e575b50614e97614e7a91614824565b9690614e70565b614ecd614e7a9296614eb2614e9793614ceb565b614ebc8289614cd7565b52614ec78188614cd7565b50614824565b959150614e8a565b5050955093505050509190565b50818710614e45565b859250614e21565b955050509150506040516020810181811060018060401b0382111761444457604052600081529190565b6000818152601660205260409020600201546001600160a01b03848116911614614f4a575b600101614dfc565b95614f56600191614824565b969050614f42565b6001600160a01b03908116908115614fa75760008051602061556d83398151915280546001600160a01b0319811684179091551660008051602061560d833981519152600080a3565b604051631e4fbdf760e01b815260006004820152602490fd5b60008051602061556d833981519152546001600160a01b03163303614fe157565b60405163118cdaa760e01b8152336004820152602490fd5b60008051602061568d83398151915260028154146150175760029055565b604051633ee5aeb560e01b8152600490fd5b906108b0906150516147ff956040519586936323b872dd60e01b602086015260248501614b9f565b03601f19810184528361446d565b61506761508b565b8015615085576804563918244f400000808202918204036148335790565b50600090565b6019548015615085576301e13380810180911161483357804210615085576150b762278d009142614849565b04601981116150c35790565b50601990565b60005b601b80548083101561515257836150e28461459e565b919054600392831b1c146150fb575050506001016150cc565b9193506000199290838101908111614833576151289261511d6137a49261459e565b9054911b1c9161459e565b81548015614b8957019061514f61513e8361459e565b8154906000199060031b1b19169055565b55565b50505050565b6001600160a01b031660009081526013602052604081209091825b825480821015615212578261518883866145b9565b919054600392831b1c146151a0575050600101615173565b9093949250600019938481019081116151fe576151d192916151c56137a492886145b9565b9054911b1c91866145b9565b82549081156151ea5750019061514f61513e83836145b9565b634e487b7160e01b81526031600452602490fd5b634e487b7160e01b84526011600452602484fd5b5050505050565b6108b06147ff939261505160405194859263a9059cbb60e01b6020850152602484016148d8565b6000908082526012602052604082206001810190815490600160ff8316615266816143bf565b14908161532b575b506152795750505050565b60029060ff191617905561528e600254614d98565b60025560018060a01b03602460208260045416604051928380926331a9108f60e11b82528760048301525afa93841561531f57936152ed575b5060206000805160206155ad83398151915291604051944286521693a338808080615152565b6000805160206155ad833981519152919350615317602091823d8411610b6757610b59818361446d565b9391506152c7565b604051903d90823e3d90fd5b600301546201518081019150818111615367576228de8001809111615353574210153861526e565b634e487b7160e01b85526011600452602485fd5b634e487b7160e01b86526011600452602486fd5b6000526012602052604060002060ff600182015416615399816143bf565b80159081156153cf575b506153ae5750600090565b60056000549101548082116153c35750615085565b6153cc91614849565b90565b600191506153dc816143bf565b14386153a3565b9060009182526012602052604082209060ff600183015416615404816143bf565b801590811561545e575b5061541857505090565b60018060a01b0316825260016020526006604083205491019081602052604083205410615443575090565b60406153cc9260016020528181205492602052205490614849565b6001915061546b816143bf565b143861540e565b60ff6000805160206156cd8339815191525460401c161561548f57565b604051631afcd79f60e31b8152600490fd5b906000602091828151910182855af1156154fd576000513d6154f457506001600160a01b0381163b155b6154d25750565b604051635274afe760e01b81526001600160a01b039091166004820152602490fd5b600114156154cb565b6040513d6000823e3d90fd5b90615530575080511561551e57602081519101fd5b60405163d6bda27560e01b8152600490fd5b81511580615563575b615541575090565b604051639996b31560e01b81526001600160a01b039091166004820152602490fd5b50803b1561553956fe9016d09d72d40fdae2fd8ceac6b6234c7706214fd39c1cd1e609a0528c19930066257bcef574219c04f7c05f7a1c78d599da10491294c92a5805c48b4cdf500905d6a7972d85a75cd56cb295f4c9abfc3fe780bd2565d328af0f5d764ea1b9f4360894a13ba1a3210667c828492db98dca3e2076cc3735a920a3ca505d382bbcf3e4c2c64e71e6ba2eaab9a599bced62f9eb91d2cda610bf41aa8c80ff2cf8268be0079c531659141344cd1fd0a4f28419497f9722a3daafe3b4186f6b6457e0961c667b60eca12529bf7f00a295a740e7c9e931ed0bd41e0a13b7ee615f09aad7566a1f449b7ee89a6af29f319e117c231ea862057eb65395ca2bf70283b1c841af14426bf7141193d6d06f589d579d078fb6c3046f465451b9477a093145009b779b17422d0df92223018b32b4d1fa46e071723d6817e2486d003becc55f0031b20a0131606dba0b9c32d2d1f0882a5e5c7abbd2395d5c02227a48d379facff0c57e16840df040f15088dc2f81fe391c3923bec73e23a9662efc9c229c6a00d9906d0e79f96c26cd3b65592e1355e9cc1406573fd2e4104360a834257dd59da2646970667358221220e19a5c8e0deac84603150b522f8d1abc1bae41d9f5852f88cb87ccd0b871cc3b64736f6c63430008160033",
  "linkReferences": {},
  "deployedLinkReferences": {}
}