{
  "_format": "hh-sol-artifact-1",
  "contractName": "NodeNFT",
  "sourceName": "contracts/NodeNFT.sol",
  "abi": [
    {
      "inputs": [
        {
          "internalType": "string",
          "name": "name_",
          "type": "string"
        },
        {
          "internalType": "string",
          "name": "symbol_",
          "type": "string"
        }
      ],
      "stateMutability": "nonpayable",
      "type": "constructor"
    },
    {
      "inputs": [
        {
          "internalType": "address",
          "name": "sender",
          "type": "address"
        },
        {
          "internalType": "uint256",
          "name": "tokenId",
          "type": "uint256"
        },
        {
          "internalType": "address",
          "name": "owner",
          "type": "address"
        }
      ],
      "name": "ERC721IncorrectOwner",
      "type": "error"
    },
    {
      "inputs": [
        {
          "internalType": "address",
          "name": "operator",
          "type": "address"
        },
        {
          "internalType": "uint256",
          "name": "tokenId",
          "type": "uint256"
        }
      ],
      "name": "ERC721InsufficientApproval",
      "type": "error"
    },
    {
      "inputs": [
        {
          "internalType": "address",
          "name": "approver",
          "type": "address"
        }
      ],
      "name": "ERC721InvalidApprover",
      "type": "error"
    },
    {
      "inputs": [
        {
          "internalType": "address",
          "name": "operator",
          "type": "address"
        }
      ],
      "name": "ERC721InvalidOperator",
      "type": "error"
    },
    {
      "inputs": [
        {
          "internalType": "address",
          "name": "owner",
          "type": "address"
        }
      ],
      "name": "ERC721InvalidOwner",
      "type": "error"
    },
    {
      "inputs": [
        {
          "internalType": "address",
          "name": "receiver",
          "type": "address"
        }
      ],
      "name": "ERC721InvalidReceiver",
      "type": "error"
    },
    {
      "inputs": [
        {
          "internalType": "address",
          "name": "sender",
          "type": "address"
        }
      ],
      "name": "ERC721InvalidSender",
      "type": "error"
    },
    {
      "inputs": [
        {
          "internalType": "uint256",
          "name": "tokenId",
          "type": "uint256"
        }
      ],
      "name": "ERC721NonexistentToken",
      "type": "error"
    },
    {
      "inputs": [
        {
          "internalType": "address",
          "name": "owner",
          "type": "address"
        }
      ],
      "name": "OwnableInvalidOwner",
      "type": "error"
    },
    {
      "inputs": [
        {
          "internalType": "address",
          "name": "account",
          "type": "address"
        }
      ],
      "name": "OwnableUnauthorizedAccount",
      "type": "error"
    },
    {
      "anonymous": false,
      "inputs": [
        {
          "indexed": true,
          "internalType": "address",
          "name": "owner",
          "type": "address"
        },
        {
          "indexed": true,
          "internalType": "address",
          "name": "approved",
          "type": "address"
        },
        {
          "indexed": true,
          "internalType": "uint256",
          "name": "tokenId",
          "type": "uint256"
        }
      ],
      "name": "Approval",
      "type": "event"
    },
    {
      "anonymous": false,
      "inputs": [
        {
          "indexed": true,
          "internalType": "address",
          "name": "owner",
          "type": "address"
        },
        {
          "indexed": true,
          "internalType": "address",
          "name": "operator",
          "type": "address"
        },
        {
          "indexed": false,
          "internalType": "bool",
          "name": "approved",
          "type": "bool"
        }
      ],
      "name": "ApprovalForAll",
      "type": "event"
    },
    {
      "anonymous": false,
      "inputs": [
        {
          "indexed": false,
          "internalType": "string",
          "name": "newBaseURI",
          "type": "string"
        }
      ],
      "name": "BaseURIUpdated",
      "type": "event"
    },
    {
      "anonymous": false,
      "inputs": [
        {
          "indexed": true,
          "internalType": "address",
          "name": "manager",
          "type": "address"
        }
      ],
      "name": "NFTManagerSet",
      "type": "event"
    },
    {
      "anonymous": false,
      "inputs": [
        {
          "indexed": true,
          "internalType": "address",
          "name": "previousOwner",
          "type": "address"
        },
        {
          "indexed": true,
          "internalType": "address",
          "name": "newOwner",
          "type": "address"
        }
      ],
      "name": "OwnershipTransferred",
      "type": "event"
    },
    {
      "anonymous": false,
      "inputs": [
        {
          "indexed": true,
          "internalType": "address",
          "name": "from",
          "type": "address"
        },
        {
          "indexed": true,
          "internalType": "address",
          "name": "to",
          "type": "address"
        },
        {
          "indexed": true,
          "internalType": "uint256",
          "name": "tokenId",
          "type": "uint256"
        }
      ],
      "name": "Transfer",
      "type": "event"
    },
    {
      "inputs": [
        {
          "internalType": "address",
          "name": "to",
          "type": "address"
        },
        {
          "internalType": "uint256",
          "name": "tokenId",
          "type": "uint256"
        }
      ],
      "name": "approve",
      "outputs": [],
      "stateMutability": "nonpayable",
      "type": "function"
    },
    {
      "inputs": [
        {
          "internalType": "address",
          "name": "owner",
          "type": "address"
        }
      ],
      "name": "balanceOf",
      "outputs": [
        {
          "internalType": "uint256",
          "name": "",
          "type": "uint256"
        }
      ],
      "stateMutability": "view",
      "type": "function"
    },
    {
      "inputs": [
        {
          "internalType": "uint256",
          "name": "tokenId",
          "type": "uint256"
        }
      ],
      "name": "burn",
      "outputs": [],
      "stateMutability": "nonpayable",
      "type": "function"
    },
    {
      "inputs": [
        {
          "internalType": "uint256",
          "name": "tokenId",
          "type": "uint256"
        }
      ],
      "name": "getApproved",
      "outputs": [
        {
          "internalType": "address",
          "name": "",
          "type": "address"
        }
      ],
      "stateMutability": "view",
      "type": "function"
    },
    {
      "inputs": [],
      "name": "getNextTokenId",
      "outputs": [
        {
          "internalType": "uint256",
          "name": "",
          "type": "uint256"
        }
      ],
      "stateMutability": "view",
      "type": "function"
    },
    {
      "inputs": [
        {
          "internalType": "address",
          "name": "owner",
          "type": "address"
        },
        {
          "internalType": "address",
          "name": "operator",
          "type": "address"
        }
      ],
      "name": "isApprovedForAll",
      "outputs": [
        {
          "internalType": "bool",
          "name": "",
          "type": "bool"
        }
      ],
      "stateMutability": "view",
      "type": "function"
    },
    {
      "inputs": [
        {
          "internalType": "address",
          "name": "to",
          "type": "address"
        }
      ],
      "name": "mint",
      "outputs": [
        {
          "internalType": "uint256",
          "name": "",
          "type": "uint256"
        }
      ],
      "stateMutability": "nonpayable",
      "type": "function"
    },
    {
      "inputs": [],
      "name": "name",
      "outputs": [
        {
          "internalType": "string",
          "name": "",
          "type": "string"
        }
      ],
      "stateMutability": "view",
      "type": "function"
    },
    {
      "inputs": [],
      "name": "nftManager",
      "outputs": [
        {
          "internalType": "address",
          "name": "",
          "type": "address"
        }
      ],
      "stateMutability": "view",
      "type": "function"
    },
    {
      "inputs": [],
      "name": "owner",
      "outputs": [
        {
          "internalType": "address",
          "name": "",
          "type": "address"
        }
      ],
      "stateMutability": "view",
      "type": "function"
    },
    {
      "inputs": [
        {
          "internalType": "uint256",
          "name": "tokenId",
          "type": "uint256"
        }
      ],
      "name": "ownerOf",
      "outputs": [
        {
          "internalType": "address",
          "name": "",
          "type": "address"
        }
      ],
      "stateMutability": "view",
      "type": "function"
    },
    {
      "inputs": [],
      "name": "renounceOwnership",
      "outputs": [],
      "stateMutability": "nonpayable",
      "type": "function"
    },
    {
      "inputs": [
        {
          "internalType": "address",
          "name": "from",
          "type": "address"
        },
        {
          "internalType": "address",
          "name": "to",
          "type": "address"
        },
        {
          "internalType": "uint256",
          "name": "tokenId",
          "type": "uint256"
        }
      ],
      "name": "safeTransferFrom",
      "outputs": [],
      "stateMutability": "nonpayable",
      "type": "function"
    },
    {
      "inputs": [
        {
          "internalType": "address",
          "name": "from",
          "type": "address"
        },
        {
          "internalType": "address",
          "name": "to",
          "type": "address"
        },
        {
          "internalType": "uint256",
          "name": "tokenId",
          "type": "uint256"
        },
        {
          "internalType": "bytes",
          "name": "data",
          "type": "bytes"
        }
      ],
      "name": "safeTransferFrom",
      "outputs": [],
      "stateMutability": "nonpayable",
      "type": "function"
    },
    {
      "inputs": [
        {
          "internalType": "address",
          "name": "operator",
          "type": "address"
        },
        {
          "internalType": "bool",
          "name": "approved",
          "type": "bool"
        }
      ],
      "name": "setApprovalForAll",
      "outputs": [],
      "stateMutability": "nonpayable",
      "type": "function"
    },
    {
      "inputs": [
        {
          "internalType": "string",
          "name": "baseURI_",
          "type": "string"
        }
      ],
      "name": "setBaseURI",
      "outputs": [],
      "stateMutability": "nonpayable",
      "type": "function"
    },
    {
      "inputs": [
        {
          "internalType": "address",
          "name": "manager_",
          "type": "address"
        }
      ],
      "name": "setNFTManager",
      "outputs": [],
      "stateMutability": "nonpayable",
      "type": "function"
    },
    {
      "inputs": [
        {
          "internalType": "bytes4",
          "name": "interfaceId",
          "type": "bytes4"
        }
      ],
      "name": "supportsInterface",
      "outputs": [
        {
          "internalType": "bool",
          "name": "",
          "type": "bool"
        }
      ],
      "stateMutability": "view",
      "type": "function"
    },
    {
      "inputs": [],
      "name": "symbol",
      "outputs": [
        {
          "internalType": "string",
          "name": "",
          "type": "string"
        }
      ],
      "stateMutability": "view",
      "type": "function"
    },
    {
      "inputs": [
        {
          "internalType": "uint256",
          "name": "tokenId",
          "type": "uint256"
        }
      ],
      "name": "tokenURI",
      "outputs": [
        {
          "internalType": "string",
          "name": "",
          "type": "string"
        }
      ],
      "stateMutability": "view",
      "type": "function"
    },
    {
      "inputs": [],
      "name": "totalMinted",
      "outputs": [
        {
          "internalType": "uint256",
          "name": "",
          "type": "uint256"
        }
      ],
      "stateMutability": "view",
      "type": "function"
    },
    {
      "inputs": [
        {
          "internalType": "address",
          "name": "from",
          "type": "address"
        },
        {
          "internalType": "address",
          "name": "to",
          "type": "address"
        },
        {
          "internalType": "uint256",
          "name": "tokenId",
          "type": "uint256"
        }
      ],
      "name": "transferFrom",
      "outputs": [],
      "stateMutability": "nonpayable",
      "type": "function"
    },
    {
      "inputs": [
        {
          "internalType": "address",
          "name": "newOwner",
          "type": "address"
        }
      ],
      "name": "transferOwnership",
      "outputs": [],
      "stateMutability": "nonpayable",
      "type": "function"
    },
    {
      "inputs": [
        {
          "internalType": "address",
          "name": "manager_",
          "type": "address"
        }
      ],
      "name": "updateNFTManager",
      "outputs": [],
      "stateMutability": "nonpayable",
      "type": "function"
    }
  ],
  "bytecode": "0x608060405234620003865762001c89803803806200001d816200038b565b9283398101604082820312620003865781516001600160401b0392908381116200038657826200004f918301620003b1565b906020928382015185811162000386576200006b9201620003b1565b92815181811162000370576000938454916001948584811c9416801562000365575b8385101462000351578190601f94858111620002fe575b5083908583116001146200029a5788926200028e575b5050600019600383901b1c191690851b1785555b85519283116200027a5783548481811c911680156200026f575b828210146200025b5782811162000213575b5080918311600114620001ad5750839482939492620001a1575b5050600019600383901b1c191690821b1781555b3315620001885760068054336001600160a01b031982168117909255604051936001600160a01b03909116907f8be0079c531659141344cd1fd0a4f28419497f9722a3daafe3b4186f6b6457e09080a36008556118659081620004248239f35b604051631e4fbdf760e01b815260048101839052602490fd5b01519050388062000114565b90601f198316958486528286209286905b888210620001fb5750508385969710620001e1575b505050811b01815562000128565b015160001960f88460031b161c19169055388080620001d3565b808785968294968601518155019501930190620001be565b8486528186208380860160051c82019284871062000251575b0160051c019085905b82811062000245575050620000fa565b87815501859062000235565b925081926200022c565b634e487b7160e01b86526022600452602486fd5b90607f1690620000e8565b634e487b7160e01b85526041600452602485fd5b015190503880620000ba565b8880528489208894509190601f1984168a5b87828210620002e75750508411620002cd575b505050811b018555620000ce565b015160001960f88460031b161c19169055388080620002bf565b8385015186558b97909501949384019301620002ac565b9091508780528388208580850160051c82019286861062000347575b918991869594930160051c01915b82811062000338575050620000a4565b8a815585945089910162000328565b925081926200031a565b634e487b7160e01b87526022600452602487fd5b93607f16936200008d565b634e487b7160e01b600052604160045260246000fd5b600080fd5b6040519190601f01601f191682016001600160401b038111838210176200037057604052565b919080601f84011215620003865782516001600160401b0381116200037057602090620003e7601f8201601f191683016200038b565b92818452828287010111620003865760005b8181106200040f57508260009394955001015290565b8581018301518482018401528201620003f956fe6080604081815260048036101561001557600080fd5b600092833560e01c90816301ffc9a71461104b5750806306fdde0314610fb8578063081812fc14610f7d578063095ea7b314610ea157806323b872dd14610e8957806342842e0e14610e5a57806342966c6814610d6e57806355f804b314610bd55780636352211e14610ba45780636a6278421461091757806370a08231146108c2578063715018a6146108775780638da5cb5b1461084e57806395d89b4114610790578063a22cb465146106ef578063a2309ff8146106af578063b88d4fde1461063d578063bb9132581461057c578063c87b56dd146102e2578063caa0f92a146102c3578063e88b91ea1461029a578063e985e9c51461024c578063f178ad7a146101a55763f2fde38b1461012b57600080fd5b346101a15760203660031901126101a1576101446110ff565b9061014d611648565b6001600160a01b0391821692831561018b575050600680546001600160a01b031981168417909155166000805160206117d08339815191528380a380f35b51631e4fbdf760e01b8152908101849052602490fd5b8280fd5b50829034610248576020366003190112610248576101c16110ff565b6101c9611648565b6001600160a01b03908116916101e0831515611597565b60075491821661020f57506001600160a01b03191681176007556000805160206117b08339815191528280a280f35b606490602086519162461bcd60e51b8352820152601360248201527213585b9859d95c88185b1c9958591e481cd95d606a1b6044820152fd5b5080fd5b50503461024857806003193601126102485760ff8160209361026c6110ff565b61027461111a565b6001600160a01b0391821683526005875283832091168252855220549151911615158152f35b50503461024857816003193601126102485760075490516001600160a01b039091168152602090f35b5050346102485781600319360112610248576020906008549051908152f35b508290346102485760209182600319360112610579578290848335610306816115dd565b508151948391600954876103198261120b565b94858252888201956001938a60018216918260001461055c575050600114610521575b5090610349910389611196565b87511561050257818093879172184f03e93ff9f4daa797ed6e38ed64bf6a1f0160401b90818110156104f5575b508990506904ee2d6d415b85acef8160201b808710156104e6575b5050662386f26fc10000808610156104d7575b506305f5e100808610156104c8575b50612710808610156104bc575b505060648410156104ae575b602190600a809510156104a6575b9081610403600185969594016103fb6103f2826111b9565b9a519a8b611196565b808a526111b9565b888b019990601f1901368b3750870101905b610470575b505050509361045b92610440949261044f61046c978a51978895518092888801906110b7565b840191518093868401906110b7565b01038084520182611196565b925b519282849384528301906110da565b0390f35b600019019083906f181899199a1a9b1b9c1cb0b131b232b360811b8282061a8353049182156104a157919082610415565b61041a565b6001016103da565b6064909304926002016103cc565b90940493018b806103c0565b6008919295049401908c6103b3565b6010919295049401908c6103a4565b9091929504940190888d610391565b0494508691508c80610376565b5050505090915061046c9250519061051982611165565b81529261045d565b600989528989208992505b8183106105415750508101880161034961033c565b8054838d018c01528c9a8e99508c945090920191840161052c565b60ff1916895291151560051b84019091019150610349905061033c565b80fd5b50829034610248576020366003190112610248576105986110ff565b6105a0611648565b6001600160a01b03908116916105b7831515611597565b600754918216156105e757506001600160a01b03191681176007556000805160206117b08339815191528280a280f35b608490602086519162461bcd60e51b8352820152602a60248201527f4d616e61676572206e6f74207365742c20757365207365744e46544d616e6167604482015269195c881a5b9cdd19585960b21b6064820152fd5b838234610248576080366003190112610248576106586110ff565b61066061111a565b604435906064356001600160401b0381116106ab57366023820112156106ab576106a894816024610696933693013591016111d4565b926106a2838383611245565b33611674565b80f35b8580fd5b509190346102485781600319360112610248576008546000198101929083116106dc576020838351908152f35b634e487b7160e01b815260118452602490fd5b5090346101a157806003193601126101a1576107096110ff565b906024359182151580930361078c576001600160a01b03169283156107775750338452600560205280842083855260205280842060ff1981541660ff8416179055519081527f17307eab39ab6107e8899845ad3d59bd9653f200f220920489ca2b5937696c3160203392a380f35b836024925191630b61174360e31b8352820152fd5b8480fd5b8284346105795780600319360112610579578151918282600193600154946107b78661120b565b91828552602096876001821691826000146108275750506001146107e9575b50505061046c929161045d910385611196565b9190869350600183528383205b82841061080f575050508201018161045d61046c6107d6565b8054848a0186015288955087949093019281016107f6565b60ff19168782015293151560051b8601909301935084925061045d915061046c90506107d6565b50503461024857816003193601126102485760065490516001600160a01b039091168152602090f35b8334610579578060031936011261057957610890611648565b600680546001600160a01b0319811690915581906001600160a01b03166000805160206117d08339815191528280a380f35b509134610579576020366003190112610579576001600160a01b036108e56110ff565b169283156109025750806020938392526003845220549051908152f35b91516322718ad960e21b815291820152602490fd5b5091903461024857602092836003193601126101a1576109356110ff565b6007549093906001600160a01b039081163303610b6557808516918215610b245760085495600019808814610b115760018801600855878588519561097987611165565b85875282865260028c5289862054168015159384610af2575b5081865260038c528986208054600101905582865260028c5289862080546001600160a01b031916831790556000805160206117f08339815191528680a4610adb573b6109e4575b5050505051908152f35b849395929451878180610a1e630a85bd0160e11b96878352338c8401528660248401528860448401526080606484015260848301906110da565b0381858a5af190829082610a97575b5050610a6457505050610a3e611618565b8051949085610a5e57505051633250574960e11b81529182015260249150fd5b85925001fd5b91949293916001600160e01b03191603610a83575050388080806109da565b6024925191633250574960e11b8352820152fd5b909192508881813d8311610ad4575b610ab08183611196565b810103126102485751906001600160e01b0319821682036105795750903880610a2d565b503d610aa6565b85516339e3563760e11b8152808601839052602490fd5b610afb84611791565b81875260038d528a872090815401905538610992565b634e487b7160e01b835260118652602483fd5b845162461bcd60e51b8152808501889052601b60248201527a43616e6e6f74206d696e7420746f207a65726f206164647265737360281b6044820152606490fd5b835162461bcd60e51b8152808401879052601960248201527813db9b1e481391950813585b9859d95c8818d85b881b5a5b9d603a1b6044820152606490fd5b5091346105795760203660031901126105795750610bc4602092356115dd565b90516001600160a01b039091168152f35b5082903461024857602092836003193601126101a1576001600160401b03823581811161078c573660238201121561078c57610c1a90369060248187013591016111d4565b92610c23611648565b8351918211610d5b5750610c3860095461120b565b601f8111610d17575b5084601f8211600114610ca1579181610c90928697946000805160206118108339815191529791610c96575b508160011b916000199060031b1c191617600955519282849384528301906110da565b0390a180f35b905085015188610c6d565b6009855285852090601f198316865b818110610d005750926000805160206118108339815191529697949260019282610c909610610ce7575b5050811b0160095561045d565b87015160001960f88460031b161c191690558880610cda565b91928860018192868a015181550194019201610cb0565b60098552858520601f830160051c810191878410610d51575b601f0160051c01905b818110610d465750610c41565b858155600101610d39565b9091508190610d30565b634e487b7160e01b855260419052602484fd5b5090346101a15760203660031901126101a157600754823591906001600160a01b039081163303610e1b578285526002602052818520541682858215928315610dfa575b828252600260205284822080546001600160a01b03191690556000805160206117f08339815191528280a4610de5578380f35b51637e27328960e01b81529182015260249150fd5b610e0383611791565b80825260036020528482208054600019019055610db2565b815162461bcd60e51b8152602081860152601960248201527827b7363c9027232a1026b0b730b3b2b91031b0b710313ab93760391b6044820152606490fd5b505034610248576106a890610e6e36611130565b91925192610e7b84611165565b8584526106a2838383611245565b8334610579576106a8610e9b36611130565b91611245565b5090346101a157806003193601126101a157610ebb6110ff565b91602435610ec8816115dd565b33151580610f6a575b80610f41575b610f2b576001600160a01b039485169482918691167f8c5be1e5ebec7d5bd14f71427d1e84f3dd0314c0f7b2291e5b200ac8c7c3b9258880a48452602052822080546001600160a01b031916909117905580f35b835163a9fbf51f60e01b81523381850152602490fd5b506001600160a01b03811686526005602090815284872033885290528386205460ff1615610ed7565b506001600160a01b038116331415610ed1565b50346101a15760203660031901126101a157918260209335610f9e816115dd565b50825283528190205490516001600160a01b039091168152f35b82843461057957806003193601126105795781519182828354610fda8161120b565b908184526020956001918760018216918260001461082757505060011461100e5750505061046c929161045d910385611196565b91908693508280528383205b828410611033575050508201018161045d61046c6107d6565b8054848a01860152889550879490930192810161101a565b925050346101a15760203660031901126101a1573563ffffffff60e01b81168091036101a157602092506380ac58cd60e01b81149081156110a6575b8115611095575b5015158152f35b6301ffc9a760e01b1490503861108e565b635b5e139f60e01b81149150611087565b60005b8381106110ca5750506000910152565b81810151838201526020016110ba565b906020916110f3815180928185528580860191016110b7565b601f01601f1916010190565b600435906001600160a01b038216820361111557565b600080fd5b602435906001600160a01b038216820361111557565b6060906003190112611115576001600160a01b0390600435828116810361111557916024359081168103611115579060443590565b602081019081106001600160401b0382111761118057604052565b634e487b7160e01b600052604160045260246000fd5b601f909101601f19168101906001600160401b0382119082101761118057604052565b6001600160401b03811161118057601f01601f191660200190565b9291926111e0826111b9565b916111ee6040519384611196565b829481845281830111611115578281602093846000960137010152565b90600182811c9216801561123b575b602083101461122557565b634e487b7160e01b600052602260045260246000fd5b91607f169161121a565b916001600160a01b0391821691821561157e576000938233151594858096611576575b6113b5575b8187528560209760028952604098868a8320541698899361131d575b509060026000805160206117f083398151915292846112fd575b858352600381528b8320805460010190558683525289812080546001600160a01b0319168517905580a416928383036112dc5750505050565b6064945051926364283d7b60e01b8452600484015260248301526044820152fd5b61130687611791565b848352600381528b832080546000190190556112a3565b91939450915080611372575b1561133957859291879138611289565b878688611356576024915190637e27328960e01b82526004820152fd5b604491519063177e802f60e01b82523360048301526024820152fd5b503387148015611397575b806113295750858252600481523385898420541614611329565b508682526005815287822033600052815260ff88600020541661137d565b90508260075416801561153b576040805163bef97c8760e01b60208201908152600480835292936001600160401b039290919080860184811182821017611528578652518b91829190845afa611409611618565b90156114db576020818051810103126114d757602001518015908115036114d75761149c57803b156114985790898493926064829651809781936311cea30760e11b835233888401528a60248401528d60448401525af1611470575b50505050839061126d565b83999499116114855750529483388080611465565b634e487b7160e01b845260419052602483fd5b8980fd5b835162461bcd60e51b81526020818501526015602482015274151c985b9cd9995c9cc81b9bdd08195b98589b1959605a1b6044820152606490fd5b8a80fd5b845162461bcd60e51b8152602081860152602160248201527f4661696c656420746f20636865636b207472616e736665727320656e61626c656044820152601960fa1b6064820152608490fd5b634e487b7160e01b8d526041865260248dfd5b60405162461bcd60e51b81526020600482015260136024820152721391950813585b9859d95c881b9bdd081cd95d606a1b6044820152606490fd5b506001611268565b604051633250574960e11b815260006004820152602490fd5b1561159e57565b60405162461bcd60e51b8152602060048201526017602482015276496e76616c6964206d616e61676572206164647265737360481b6044820152606490fd5b6000818152600260205260409020546001600160a01b0316908115611600575090565b60249060405190637e27328960e01b82526004820152fd5b3d15611643573d90611629826111b9565b916116376040519384611196565b82523d6000602084013e565b606090565b6006546001600160a01b0316330361165c57565b60405163118cdaa760e01b8152336004820152602490fd5b9293823b611684575b5050505050565b6116c89060018060a01b038094169560405194859481630a85bd0160e11b9889885216600487015216602485015260448401526080606484015260848301906110da565b03906020816000938185885af190829082611748575b505061171657826116ed611618565b805191908261170f57604051633250574960e11b815260048101839052602490fd5b6020915001fd5b6001600160e01b031916036117305750388080808061167d565b60249060405190633250574960e11b82526004820152fd5b909192506020813d602011611789575b8161176560209383611196565b810103126102485751906001600160e01b03198216820361057957509038806116de565b3d9150611758565b600090815260046020526040902080546001600160a01b031916905556feab0362c329b9c5b200033e5d428630c924428ca64d9096c8eec737912fdeffae8be0079c531659141344cd1fd0a4f28419497f9722a3daafe3b4186f6b6457e0ddf252ad1be2c89b69c2b068fc378daa952ba7f163c4a11628f55a4df523b3ef6741b2fc379fad678116fe3d4d4b9a1a184ab53ba36b86ad0fa66340b1ab41ada2646970667358221220e57644d7e577d188bafbb1266c77402e596b027b6db7b832aa41bc7c843fce4a64736f6c63430008160033",
  "linkReferences": {},
  "deployedLinkReferences": {}
}