{
  "_format": "hh-sol-artifact-1",
  "contractName": "NFTManager",
  "sourceName": "contracts/NFTManager.sol",
  "abi": [
    {
      "inputs": [],
      "stateMutability": "nonpayable",
      "type": "constructor"
    },
    {
      "inputs": [
        {
          "internalType": "address",
          "name": "target",
          "type": "address"
        }
      ],
      "name": "AddressEmptyCode",
      "type": "error"
    },
    {
      "inputs": [
        {
          "internalType": "address",
          "name": "implementation",
          "type": "address"
        }
      ],
      "name": "ERC1967InvalidImplementation",
      "type": "error"
    },
    {
      "inputs": [],
      "name": "ERC1967NonPayable",
      "type": "error"
    },
    {
      "inputs": [],
      "name": "FailedCall",
      "type": "error"
    },
    {
      "inputs": [],
      "name": "InvalidInitialization",
      "type": "error"
    },
    {
      "inputs": [],
      "name": "NotInitializing",
      "type": "error"
    },
    {
      "inputs": [
        {
          "internalType": "address",
          "name": "owner",
          "type": "address"
        }
      ],
      "name": "OwnableInvalidOwner",
      "type": "error"
    },
    {
      "inputs": [
        {
          "internalType": "address",
          "name": "account",
          "type": "address"
        }
      ],
      "name": "OwnableUnauthorizedAccount",
      "type": "error"
    },
    {
      "inputs": [],
      "name": "ReentrancyGuardReentrantCall",
      "type": "error"
    },
    {
      "inputs": [
        {
          "internalType": "address",
          "name": "token",
          "type": "address"
        }
      ],
      "name": "SafeERC20FailedOperation",
      "type": "error"
    },
    {
      "inputs": [],
      "name": "UUPSUnauthorizedCallContext",
      "type": "error"
    },
    {
      "inputs": [
        {
          "internalType": "bytes32",
          "name": "slot",
          "type": "bytes32"
        }
      ],
      "name": "UUPSUnsupportedProxiableUUID",
      "type": "error"
    },
    {
      "anonymous": false,
      "inputs": [
        {
          "indexed": true,
          "internalType": "uint256",
          "name": "nftId",
          "type": "uint256"
        },
        {
          "indexed": true,
          "internalType": "address",
          "name": "approver",
          "type": "address"
        }
      ],
      "name": "DissolutionApproved",
      "type": "event"
    },
    {
      "anonymous": false,
      "inputs": [
        {
          "indexed": true,
          "internalType": "uint256",
          "name": "nftId",
          "type": "uint256"
        },
        {
          "indexed": true,
          "internalType": "address",
          "name": "proposer",
          "type": "address"
        }
      ],
      "name": "DissolutionProposed",
      "type": "event"
    },
    {
      "anonymous": false,
      "inputs": [
        {
          "indexed": false,
          "internalType": "uint64",
          "name": "version",
          "type": "uint64"
        }
      ],
      "name": "Initialized",
      "type": "event"
    },
    {
      "anonymous": false,
      "inputs": [
        {
          "indexed": true,
          "internalType": "uint256",
          "name": "nftId",
          "type": "uint256"
        },
        {
          "indexed": false,
          "internalType": "uint256",
          "name": "timestamp",
          "type": "uint256"
        }
      ],
      "name": "NFTDissolved",
      "type": "event"
    },
    {
      "anonymous": false,
      "inputs": [
        {
          "indexed": true,
          "internalType": "uint256",
          "name": "nftId",
          "type": "uint256"
        },
        {
          "indexed": true,
          "internalType": "address",
          "name": "minter",
          "type": "address"
        },
        {
          "indexed": false,
          "internalType": "enum NFTManager.NFTType",
          "name": "nftType",
          "type": "uint8"
        },
        {
          "indexed": false,
          "internalType": "uint256",
          "name": "mintPrice",
          "type": "uint256"
        },
        {
          "indexed": false,
          "internalType": "uint256",
          "name": "eclvLocked",
          "type": "uint256"
        }
      ],
      "name": "NFTMinted",
      "type": "event"
    },
    {
      "anonymous": false,
      "inputs": [
        {
          "indexed": true,
          "internalType": "address",
          "name": "previousOwner",
          "type": "address"
        },
        {
          "indexed": true,
          "internalType": "address",
          "name": "newOwner",
          "type": "address"
        }
      ],
      "name": "OwnershipTransferred",
      "type": "event"
    },
    {
      "anonymous": false,
      "inputs": [
        {
          "indexed": true,
          "internalType": "uint256",
          "name": "nftId",
          "type": "uint256"
        },
        {
          "indexed": true,
          "internalType": "address",
          "name": "user",
          "type": "address"
        },
        {
          "indexed": false,
          "internalType": "uint256",
          "name": "amount",
          "type": "uint256"
        }
      ],
      "name": "ProducedClaimed",
      "type": "event"
    },
    {
      "anonymous": false,
      "inputs": [
        {
          "indexed": false,
          "internalType": "uint256",
          "name": "amount",
          "type": "uint256"
        },
        {
          "indexed": false,
          "internalType": "uint256",
          "name": "newAccProducedPerWeight",
          "type": "uint256"
        },
        {
          "indexed": false,
          "internalType": "uint256",
          "name": "timestamp",
          "type": "uint256"
        }
      ],
      "name": "ProducedDistributed",
      "type": "event"
    },
    {
      "anonymous": false,
      "inputs": [
        {
          "indexed": true,
          "internalType": "uint256",
          "name": "nftId",
          "type": "uint256"
        },
        {
          "indexed": true,
          "internalType": "address",
          "name": "user",
          "type": "address"
        },
        {
          "indexed": true,
          "internalType": "address",
          "name": "token",
          "type": "address"
        },
        {
          "indexed": false,
          "internalType": "uint256",
          "name": "amount",
          "type": "uint256"
        }
      ],
      "name": "RewardClaimed",
      "type": "event"
    },
    {
      "anonymous": false,
      "inputs": [
        {
          "indexed": true,
          "internalType": "address",
          "name": "token",
          "type": "address"
        },
        {
          "indexed": false,
          "internalType": "uint256",
          "name": "amount",
          "type": "uint256"
        },
        {
          "indexed": false,
          "internalType": "uint256",
          "name": "newAccRewardPerWeight",
          "type": "uint256"
        },
        {
          "indexed": false,
          "internalType": "uint256",
          "name": "timestamp",
          "type": "uint256"
        }
      ],
      "name": "RewardDistributed",
      "type": "event"
    },
    {
      "anonymous": false,
      "inputs": [
        {
          "indexed": true,
          "internalType": "uint256",
          "name": "orderId",
          "type": "uint256"
        }
      ],
      "name": "SellOrderCancelled",
      "type": "event"
    },
    {
      "anonymous": false,
      "inputs": [
        {
          "indexed": true,
          "internalType": "uint256",
          "name": "orderId",
          "type": "uint256"
        },
        {
          "indexed": true,
          "internalType": "uint256",
          "name": "nftId",
          "type": "uint256"
        },
        {
          "indexed": true,
          "internalType": "address",
          "name": "seller",
          "type": "address"
        },
        {
          "indexed": false,
          "internalType": "uint256",
          "name": "shares",
          "type": "uint256"
        },
        {
          "indexed": false,
          "internalType": "uint256",
          "name": "pricePerShare",
          "type": "uint256"
        }
      ],
      "name": "SellOrderCreated",
      "type": "event"
    },
    {
      "anonymous": false,
      "inputs": [
        {
          "indexed": true,
          "internalType": "uint256",
          "name": "nftId",
          "type": "uint256"
        },
        {
          "indexed": true,
          "internalType": "address",
          "name": "from",
          "type": "address"
        },
        {
          "indexed": true,
          "internalType": "address",
          "name": "to",
          "type": "address"
        },
        {
          "indexed": false,
          "internalType": "uint256",
          "name": "shares",
          "type": "uint256"
        }
      ],
      "name": "ShareTransferred",
      "type": "event"
    },
    {
      "anonymous": false,
      "inputs": [
        {
          "indexed": true,
          "internalType": "uint256",
          "name": "orderId",
          "type": "uint256"
        },
        {
          "indexed": true,
          "internalType": "uint256",
          "name": "nftId",
          "type": "uint256"
        },
        {
          "indexed": true,
          "internalType": "address",
          "name": "buyer",
          "type": "address"
        },
        {
          "indexed": false,
          "internalType": "uint256",
          "name": "shares",
          "type": "uint256"
        },
        {
          "indexed": false,
          "internalType": "uint256",
          "name": "totalPrice",
          "type": "uint256"
        }
      ],
      "name": "SharesSold",
      "type": "event"
    },
    {
      "anonymous": false,
      "inputs": [
        {
          "indexed": true,
          "internalType": "uint256",
          "name": "nftId",
          "type": "uint256"
        },
        {
          "indexed": false,
          "internalType": "uint256",
          "name": "period",
          "type": "uint256"
        },
        {
          "indexed": false,
          "internalType": "uint256",
          "name": "unlockedAmount",
          "type": "uint256"
        },
        {
          "indexed": false,
          "internalType": "uint256",
          "name": "newRemainingQuota",
          "type": "uint256"
        }
      ],
      "name": "UnlockProcessed",
      "type": "event"
    },
    {
      "anonymous": false,
      "inputs": [
        {
          "indexed": true,
          "internalType": "address",
          "name": "implementation",
          "type": "address"
        }
      ],
      "name": "Upgraded",
      "type": "event"
    },
    {
      "inputs": [],
      "name": "LOCK_PERIOD",
      "outputs": [
        {
          "internalType": "uint256",
          "name": "",
          "type": "uint256"
        }
      ],
      "stateMutability": "view",
      "type": "function"
    },
    {
      "inputs": [],
      "name": "PRECISION",
      "outputs": [
        {
          "internalType": "uint256",
          "name": "",
          "type": "uint256"
        }
      ],
      "stateMutability": "view",
      "type": "function"
    },
    {
      "inputs": [],
      "name": "SHARES_PER_NFT",
      "outputs": [
        {
          "internalType": "uint256",
          "name": "",
          "type": "uint256"
        }
      ],
      "stateMutability": "view",
      "type": "function"
    },
    {
      "inputs": [],
      "name": "UNLOCK_INTERVAL",
      "outputs": [
        {
          "internalType": "uint256",
          "name": "",
          "type": "uint256"
        }
      ],
      "stateMutability": "view",
      "type": "function"
    },
    {
      "inputs": [],
      "name": "UNLOCK_PERCENTAGE",
      "outputs": [
        {
          "internalType": "uint256",
          "name": "",
          "type": "uint256"
        }
      ],
      "stateMutability": "view",
      "type": "function"
    },
    {
      "inputs": [],
      "name": "UNLOCK_PERIODS",
      "outputs": [
        {
          "internalType": "uint256",
          "name": "",
          "type": "uint256"
        }
      ],
      "stateMutability": "view",
      "type": "function"
    },
    {
      "inputs": [],
      "name": "UPGRADE_INTERFACE_VERSION",
      "outputs": [
        {
          "internalType": "string",
          "name": "",
          "type": "string"
        }
      ],
      "stateMutability": "view",
      "type": "function"
    },
    {
      "inputs": [
        {
          "internalType": "address",
          "name": "token",
          "type": "address"
        }
      ],
      "name": "addRewardToken",
      "outputs": [],
      "stateMutability": "nonpayable",
      "type": "function"
    },
    {
      "inputs": [
        {
          "internalType": "uint256",
          "name": "nftId",
          "type": "uint256"
        }
      ],
      "name": "approveDissolution",
      "outputs": [],
      "stateMutability": "nonpayable",
      "type": "function"
    },
    {
      "inputs": [
        {
          "internalType": "uint256[]",
          "name": "nftIds",
          "type": "uint256[]"
        }
      ],
      "name": "batchClaimProduced",
      "outputs": [
        {
          "internalType": "uint256",
          "name": "",
          "type": "uint256"
        }
      ],
      "stateMutability": "nonpayable",
      "type": "function"
    },
    {
      "inputs": [
        {
          "internalType": "uint256[]",
          "name": "nftIds",
          "type": "uint256[]"
        },
        {
          "internalType": "address",
          "name": "token",
          "type": "address"
        }
      ],
      "name": "batchClaimReward",
      "outputs": [
        {
          "internalType": "uint256",
          "name": "",
          "type": "uint256"
        }
      ],
      "stateMutability": "nonpayable",
      "type": "function"
    },
    {
      "inputs": [
        {
          "internalType": "uint256",
          "name": "orderId",
          "type": "uint256"
        }
      ],
      "name": "buyShares",
      "outputs": [],
      "stateMutability": "nonpayable",
      "type": "function"
    },
    {
      "inputs": [
        {
          "internalType": "uint256",
          "name": "orderId",
          "type": "uint256"
        }
      ],
      "name": "cancelSellOrder",
      "outputs": [],
      "stateMutability": "nonpayable",
      "type": "function"
    },
    {
      "inputs": [
        {
          "internalType": "uint256",
          "name": "nftId",
          "type": "uint256"
        }
      ],
      "name": "claimProduced",
      "outputs": [
        {
          "internalType": "uint256",
          "name": "",
          "type": "uint256"
        }
      ],
      "stateMutability": "nonpayable",
      "type": "function"
    },
    {
      "inputs": [
        {
          "internalType": "uint256",
          "name": "nftId",
          "type": "uint256"
        },
        {
          "internalType": "address",
          "name": "token",
          "type": "address"
        }
      ],
      "name": "claimReward",
      "outputs": [
        {
          "internalType": "uint256",
          "name": "",
          "type": "uint256"
        }
      ],
      "stateMutability": "nonpayable",
      "type": "function"
    },
    {
      "inputs": [
        {
          "internalType": "uint256",
          "name": "nftId",
          "type": "uint256"
        },
        {
          "internalType": "uint256",
          "name": "shares",
          "type": "uint256"
        },
        {
          "internalType": "uint256",
          "name": "pricePerShare",
          "type": "uint256"
        }
      ],
      "name": "createSellOrder",
      "outputs": [
        {
          "internalType": "uint256",
          "name": "",
          "type": "uint256"
        }
      ],
      "stateMutability": "nonpayable",
      "type": "function"
    },
    {
      "inputs": [
        {
          "internalType": "uint256",
          "name": "",
          "type": "uint256"
        }
      ],
      "name": "dissolutionProposals",
      "outputs": [
        {
          "internalType": "uint256",
          "name": "nftId",
          "type": "uint256"
        },
        {
          "internalType": "address",
          "name": "proposer",
          "type": "address"
        },
        {
          "internalType": "uint256",
          "name": "createdAt",
          "type": "uint256"
        },
        {
          "internalType": "uint256",
          "name": "approvalCount",
          "type": "uint256"
        },
        {
          "internalType": "uint256",
          "name": "totalShareholderCount",
          "type": "uint256"
        },
        {
          "internalType": "bool",
          "name": "executed",
          "type": "bool"
        }
      ],
      "stateMutability": "view",
      "type": "function"
    },
    {
      "inputs": [
        {
          "internalType": "uint256",
          "name": "amount",
          "type": "uint256"
        }
      ],
      "name": "distributeProduced",
      "outputs": [],
      "stateMutability": "nonpayable",
      "type": "function"
    },
    {
      "inputs": [
        {
          "internalType": "address",
          "name": "token",
          "type": "address"
        },
        {
          "internalType": "uint256",
          "name": "amount",
          "type": "uint256"
        }
      ],
      "name": "distributeReward",
      "outputs": [],
      "stateMutability": "nonpayable",
      "type": "function"
    },
    {
      "inputs": [],
      "name": "eclvToken",
      "outputs": [
        {
          "internalType": "contract EnclaveToken",
          "name": "",
          "type": "address"
        }
      ],
      "stateMutability": "view",
      "type": "function"
    },
    {
      "inputs": [
        {
          "internalType": "uint256",
          "name": "nftId",
          "type": "uint256"
        },
        {
          "internalType": "address",
          "name": "user",
          "type": "address"
        }
      ],
      "name": "getAvailableShares",
      "outputs": [
        {
          "internalType": "uint256",
          "name": "",
          "type": "uint256"
        }
      ],
      "stateMutability": "view",
      "type": "function"
    },
    {
      "inputs": [
        {
          "internalType": "uint256",
          "name": "nftId",
          "type": "uint256"
        }
      ],
      "name": "getDissolutionProposal",
      "outputs": [
        {
          "internalType": "uint256",
          "name": "",
          "type": "uint256"
        },
        {
          "internalType": "address",
          "name": "",
          "type": "address"
        },
        {
          "internalType": "uint256",
          "name": "",
          "type": "uint256"
        },
        {
          "internalType": "uint256",
          "name": "",
          "type": "uint256"
        },
        {
          "internalType": "uint256",
          "name": "",
          "type": "uint256"
        },
        {
          "internalType": "bool",
          "name": "",
          "type": "bool"
        }
      ],
      "stateMutability": "view",
      "type": "function"
    },
    {
      "inputs": [
        {
          "internalType": "uint256",
          "name": "nftId",
          "type": "uint256"
        }
      ],
      "name": "getNFTSellOrders",
      "outputs": [
        {
          "internalType": "uint256[]",
          "name": "",
          "type": "uint256[]"
        }
      ],
      "stateMutability": "view",
      "type": "function"
    },
    {
      "inputs": [
        {
          "internalType": "uint256",
          "name": "nftId",
          "type": "uint256"
        },
        {
          "internalType": "address",
          "name": "user",
          "type": "address"
        }
      ],
      "name": "getPendingProduced",
      "outputs": [
        {
          "internalType": "uint256",
          "name": "",
          "type": "uint256"
        }
      ],
      "stateMutability": "view",
      "type": "function"
    },
    {
      "inputs": [
        {
          "internalType": "uint256",
          "name": "nftId",
          "type": "uint256"
        },
        {
          "internalType": "address",
          "name": "user",
          "type": "address"
        },
        {
          "internalType": "address",
          "name": "token",
          "type": "address"
        }
      ],
      "name": "getPendingReward",
      "outputs": [
        {
          "internalType": "uint256",
          "name": "",
          "type": "uint256"
        }
      ],
      "stateMutability": "view",
      "type": "function"
    },
    {
      "inputs": [],
      "name": "getRewardTokens",
      "outputs": [
        {
          "internalType": "address[]",
          "name": "",
          "type": "address[]"
        }
      ],
      "stateMutability": "view",
      "type": "function"
    },
    {
      "inputs": [
        {
          "internalType": "uint256",
          "name": "nftId",
          "type": "uint256"
        }
      ],
      "name": "getShareholders",
      "outputs": [
        {
          "internalType": "address[]",
          "name": "",
          "type": "address[]"
        }
      ],
      "stateMutability": "view",
      "type": "function"
    },
    {
      "inputs": [
        {
          "internalType": "address",
          "name": "user",
          "type": "address"
        }
      ],
      "name": "getUserNFTs",
      "outputs": [
        {
          "internalType": "uint256[]",
          "name": "",
          "type": "uint256[]"
        }
      ],
      "stateMutability": "view",
      "type": "function"
    },
    {
      "inputs": [
        {
          "internalType": "uint256",
          "name": "nftId",
          "type": "uint256"
        },
        {
          "internalType": "address",
          "name": "user",
          "type": "address"
        }
      ],
      "name": "getUserShareCount",
      "outputs": [
        {
          "internalType": "uint256",
          "name": "",
          "type": "uint256"
        }
      ],
      "stateMutability": "view",
      "type": "function"
    },
    {
      "inputs": [],
      "name": "globalState",
      "outputs": [
        {
          "internalType": "uint256",
          "name": "accProducedPerWeight",
          "type": "uint256"
        },
        {
          "internalType": "uint256",
          "name": "totalWeightedShares",
          "type": "uint256"
        },
        {
          "internalType": "uint256",
          "name": "lastUpdateTime",
          "type": "uint256"
        }
      ],
      "stateMutability": "view",
      "type": "function"
    },
    {
      "inputs": [
        {
          "internalType": "address",
          "name": "nodeNFT_",
          "type": "address"
        },
        {
          "internalType": "address",
          "name": "eclvToken_",
          "type": "address"
        },
        {
          "internalType": "address",
          "name": "usdtToken_",
          "type": "address"
        },
        {
          "internalType": "address",
          "name": "oracle_",
          "type": "address"
        },
        {
          "internalType": "address",
          "name": "treasury_",
          "type": "address"
        }
      ],
      "name": "initialize",
      "outputs": [],
      "stateMutability": "nonpayable",
      "type": "function"
    },
    {
      "inputs": [
        {
          "internalType": "address",
          "name": "",
          "type": "address"
        }
      ],
      "name": "isRewardToken",
      "outputs": [
        {
          "internalType": "bool",
          "name": "",
          "type": "bool"
        }
      ],
      "stateMutability": "view",
      "type": "function"
    },
    {
      "inputs": [
        {
          "internalType": "enum NFTManager.NFTType",
          "name": "nftType_",
          "type": "uint8"
        }
      ],
      "name": "mintNFT",
      "outputs": [
        {
          "internalType": "uint256",
          "name": "",
          "type": "uint256"
        }
      ],
      "stateMutability": "nonpayable",
      "type": "function"
    },
    {
      "inputs": [],
      "name": "nextOrderId",
      "outputs": [
        {
          "internalType": "uint256",
          "name": "",
          "type": "uint256"
        }
      ],
      "stateMutability": "view",
      "type": "function"
    },
    {
      "inputs": [
        {
          "internalType": "enum NFTManager.NFTType",
          "name": "",
          "type": "uint8"
        }
      ],
      "name": "nftConfigs",
      "outputs": [
        {
          "internalType": "enum NFTManager.NFTType",
          "name": "nftType",
          "type": "uint8"
        },
        {
          "internalType": "uint256",
          "name": "mintPrice",
          "type": "uint256"
        },
        {
          "internalType": "uint256",
          "name": "eclvLockAmount",
          "type": "uint256"
        },
        {
          "internalType": "uint256",
          "name": "shareWeight",
          "type": "uint256"
        }
      ],
      "stateMutability": "view",
      "type": "function"
    },
    {
      "inputs": [
        {
          "internalType": "uint256",
          "name": "",
          "type": "uint256"
        }
      ],
      "name": "nftPools",
      "outputs": [
        {
          "internalType": "uint256",
          "name": "nftId",
          "type": "uint256"
        },
        {
          "internalType": "enum NFTManager.NFTType",
          "name": "nftType",
          "type": "uint8"
        },
        {
          "internalType": "enum NFTManager.NFTStatus",
          "name": "status",
          "type": "uint8"
        },
        {
          "internalType": "uint256",
          "name": "createdAt",
          "type": "uint256"
        },
        {
          "internalType": "uint256",
          "name": "dissolvedAt",
          "type": "uint256"
        },
        {
          "internalType": "uint256",
          "name": "totalEclvLocked",
          "type": "uint256"
        },
        {
          "internalType": "uint256",
          "name": "remainingMintQuota",
          "type": "uint256"
        },
        {
          "internalType": "uint256",
          "name": "unlockedNotWithdrawn",
          "type": "uint256"
        },
        {
          "internalType": "uint256",
          "name": "lastUnlockTime",
          "type": "uint256"
        },
        {
          "internalType": "uint256",
          "name": "unlockedPeriods",
          "type": "uint256"
        },
        {
          "internalType": "uint256",
          "name": "totalShares",
          "type": "uint256"
        },
        {
          "internalType": "uint256",
          "name": "shareWeight",
          "type": "uint256"
        },
        {
          "internalType": "uint256",
          "name": "dissolvedAccProducedPerWeight",
          "type": "uint256"
        }
      ],
      "stateMutability": "view",
      "type": "function"
    },
    {
      "inputs": [
        {
          "internalType": "uint256",
          "name": "",
          "type": "uint256"
        },
        {
          "internalType": "uint256",
          "name": "",
          "type": "uint256"
        }
      ],
      "name": "nftSellOrders",
      "outputs": [
        {
          "internalType": "uint256",
          "name": "",
          "type": "uint256"
        }
      ],
      "stateMutability": "view",
      "type": "function"
    },
    {
      "inputs": [],
      "name": "nodeNFT",
      "outputs": [
        {
          "internalType": "contract NodeNFT",
          "name": "",
          "type": "address"
        }
      ],
      "stateMutability": "view",
      "type": "function"
    },
    {
      "inputs": [],
      "name": "oracle",
      "outputs": [
        {
          "internalType": "address",
          "name": "",
          "type": "address"
        }
      ],
      "stateMutability": "view",
      "type": "function"
    },
    {
      "inputs": [],
      "name": "owner",
      "outputs": [
        {
          "internalType": "address",
          "name": "",
          "type": "address"
        }
      ],
      "stateMutability": "view",
      "type": "function"
    },
    {
      "inputs": [
        {
          "internalType": "uint256",
          "name": "nftId",
          "type": "uint256"
        }
      ],
      "name": "proposeDissolution",
      "outputs": [],
      "stateMutability": "nonpayable",
      "type": "function"
    },
    {
      "inputs": [],
      "name": "proxiableUUID",
      "outputs": [
        {
          "internalType": "bytes32",
          "name": "",
          "type": "bytes32"
        }
      ],
      "stateMutability": "view",
      "type": "function"
    },
    {
      "inputs": [],
      "name": "renounceOwnership",
      "outputs": [],
      "stateMutability": "nonpayable",
      "type": "function"
    },
    {
      "inputs": [
        {
          "internalType": "uint256",
          "name": "",
          "type": "uint256"
        }
      ],
      "name": "rewardTokens",
      "outputs": [
        {
          "internalType": "address",
          "name": "",
          "type": "address"
        }
      ],
      "stateMutability": "view",
      "type": "function"
    },
    {
      "inputs": [
        {
          "internalType": "uint256",
          "name": "",
          "type": "uint256"
        }
      ],
      "name": "sellOrders",
      "outputs": [
        {
          "internalType": "uint256",
          "name": "nftId",
          "type": "uint256"
        },
        {
          "internalType": "address",
          "name": "seller",
          "type": "address"
        },
        {
          "internalType": "uint256",
          "name": "shares",
          "type": "uint256"
        },
        {
          "internalType": "uint256",
          "name": "pricePerShare",
          "type": "uint256"
        },
        {
          "internalType": "uint256",
          "name": "createdAt",
          "type": "uint256"
        },
        {
          "internalType": "bool",
          "name": "active",
          "type": "bool"
        }
      ],
      "stateMutability": "view",
      "type": "function"
    },
    {
      "inputs": [
        {
          "internalType": "address",
          "name": "oracle_",
          "type": "address"
        }
      ],
      "name": "setOracle",
      "outputs": [],
      "stateMutability": "nonpayable",
      "type": "function"
    },
    {
      "inputs": [
        {
          "internalType": "address",
          "name": "treasury_",
          "type": "address"
        }
      ],
      "name": "setTreasury",
      "outputs": [],
      "stateMutability": "nonpayable",
      "type": "function"
    },
    {
      "inputs": [
        {
          "internalType": "address",
          "name": "newOwner",
          "type": "address"
        }
      ],
      "name": "transferOwnership",
      "outputs": [],
      "stateMutability": "nonpayable",
      "type": "function"
    },
    {
      "inputs": [
        {
          "internalType": "uint256",
          "name": "nftId",
          "type": "uint256"
        },
        {
          "internalType": "address",
          "name": "to",
          "type": "address"
        },
        {
          "internalType": "uint256",
          "name": "shares",
          "type": "uint256"
        }
      ],
      "name": "transferShares",
      "outputs": [],
      "stateMutability": "nonpayable",
      "type": "function"
    },
    {
      "inputs": [],
      "name": "treasury",
      "outputs": [
        {
          "internalType": "address",
          "name": "",
          "type": "address"
        }
      ],
      "stateMutability": "view",
      "type": "function"
    },
    {
      "inputs": [
        {
          "internalType": "enum NFTManager.NFTType",
          "name": "nftType_",
          "type": "uint8"
        },
        {
          "internalType": "uint256",
          "name": "mintPrice_",
          "type": "uint256"
        },
        {
          "internalType": "uint256",
          "name": "eclvLockAmount_",
          "type": "uint256"
        },
        {
          "internalType": "uint256",
          "name": "shareWeight_",
          "type": "uint256"
        }
      ],
      "name": "updateNFTConfig",
      "outputs": [],
      "stateMutability": "nonpayable",
      "type": "function"
    },
    {
      "inputs": [
        {
          "internalType": "address",
          "name": "newImplementation",
          "type": "address"
        },
        {
          "internalType": "bytes",
          "name": "data",
          "type": "bytes"
        }
      ],
      "name": "upgradeToAndCall",
      "outputs": [],
      "stateMutability": "payable",
      "type": "function"
    },
    {
      "inputs": [],
      "name": "usdtToken",
      "outputs": [
        {
          "internalType": "contract IERC20",
          "name": "",
          "type": "address"
        }
      ],
      "stateMutability": "view",
      "type": "function"
    },
    {
      "inputs": [
        {
          "internalType": "address",
          "name": "",
          "type": "address"
        },
        {
          "internalType": "uint256",
          "name": "",
          "type": "uint256"
        }
      ],
      "name": "userNFTList",
      "outputs": [
        {
          "internalType": "uint256",
          "name": "",
          "type": "uint256"
        }
      ],
      "stateMutability": "view",
      "type": "function"
    },
    {
      "inputs": [
        {
          "internalType": "uint256",
          "name": "",
          "type": "uint256"
        },
        {
          "internalType": "address",
          "name": "",
          "type": "address"
        }
      ],
      "name": "userShares",
      "outputs": [
        {
          "internalType": "uint256",
          "name": "shares",
          "type": "uint256"
        },
        {
          "internalType": "uint256",
          "name": "producedDebt",
          "type": "uint256"
        },
        {
          "internalType": "uint256",
          "name": "withdrawnAfterDissolve",
          "type": "uint256"
        }
      ],
      "stateMutability": "view",
      "type": "function"
    },
    {
      "inputs": [
        {
          "internalType": "uint256",
          "name": "nftId",
          "type": "uint256"
        },
        {
          "internalType": "uint256",
          "name": "amount",
          "type": "uint256"
        }
      ],
      "name": "withdrawUnlocked",
      "outputs": [],
      "stateMutability": "nonpayable",
      "type": "function"
    }
  ],
  "bytecode": "0x60a0604052306080523480156200001557600080fd5b506200002062000026565b620000da565b7ff0c57e16840df040f15088dc2f81fe391c3923bec73e23a9662efc9c229c6a00805468010000000000000000900460ff1615620000775760405163f92ee8a960e01b815260040160405180910390fd5b80546001600160401b0390811614620000d75780546001600160401b0319166001600160401b0390811782556040519081527fc7f505b2f371ae2175ee4913f4499e1f2633a7b5936321eed1cdaeb6115181d29060200160405180910390a15b50565b608051614eb962000104600039600081816134150152818161343e015261357f0152614eb96000f3fe60806040526004361061036b5760003560e01c80638da5cb5b116101c6578063c7a51487116100f7578063e76c01e411610095578063f2fde38b1161006f578063f2fde38b14610c2f578063f886f75614610c4f578063fa77983e14610c6f578063fd75866514610c8f57600080fd5b8063e76c01e414610bd0578063ee0db06714610bef578063f0f4426014610c0f57600080fd5b8063d1a93d18116100d1578063d1a93d1814610acf578063d7fbff7314610aef578063e101487814610b0f578063e70eb39214610bb057600080fd5b8063c7a5148714610a6f578063ca93d4cf14610a8f578063cbbc5ee514610aaf57600080fd5b8063ad95487811610164578063b916905c1161013e578063b916905c146109f8578063be2ccd2b14610a18578063c4f59f9b14610a2d578063c5350e0714610a4f57600080fd5b8063ad95487814610936578063b5fd73f814610998578063b763c415146109d857600080fd5b8063a98ad46c116101a0578063a98ad46c14610879578063aaf5eb6814610899578063acf50aa2146108b5578063ad3cb1cc146108f857600080fd5b80638da5cb5b146107fc5780639535e9b214610839578063a5e1fad71461085957600080fd5b806352d1902d116102a057806379f1e3ab1161023e5780637dc0d1d0116102185780637dc0d1d01461073d5780637dd1f7161461075d5780637f2020341461077d57806384b9a6e6146107dc57600080fd5b806379f1e3ab146106dd5780637adbf973146106fd5780637bb7bed11461071d57600080fd5b806361d027b31161027a57806361d027b31461063257806367bb3d42146106525780636c94a76914610672578063715018a6146106c857600080fd5b806352d1902d146105d957806352de4ee5146105ee5780635ce105211461061b57600080fd5b80632a58b3301161030d5780633a219c29116102e75780633a219c291461051157806345d7046f146105315780634a8393f3146105695780634f1ef286146105c657600080fd5b80632a58b330146104525780632db56e0e146104685780633926fd08146104fc57600080fd5b80631a46e42a116103495780631a46e42a146103dd5780631c03e6cc146103fd5780631e7a860b1461041d5780631ec8bb8c1461043257600080fd5b80630f3390ac146103705780631459457a146103a35780631820cabb146103c5575b600080fd5b34801561037c57600080fd5b5061039061038b36600461476d565b610caf565b6040519081526020015b60405180910390f35b3480156103af57600080fd5b506103c36103be3660046147c6565b610cfb565b005b3480156103d157600080fd5b506103906301e1338081565b3480156103e957600080fd5b506103c36103f836600461482b565b611193565b34801561040957600080fd5b506103c3610418366004614844565b611281565b34801561042957600080fd5b50610390600a81565b34801561043e57600080fd5b506103c361044d36600461485f565b61136f565b34801561045e57600080fd5b5061039060105481565b34801561047457600080fd5b506104c561048336600461482b565b60126020526000908152604090208054600182015460028301546004840154600585015460069095015493946001600160a01b03909316939192909160ff1686565b604080519687526001600160a01b0390951660208701529385019290925260608401526080830152151560a082015260c00161039a565b34801561050857600080fd5b50610390601981565b34801561051d57600080fd5b5061039061052c366004614889565b61154b565b34801561053d57600080fd5b50600454610551906001600160a01b031681565b6040516001600160a01b03909116815260200161039a565b34801561057557600080fd5b506104c561058436600461482b565b600f6020526000908152604090208054600182015460028301546003840154600485015460059095015493946001600160a01b03909316939192909160ff1686565b6103c36105d43660046148cb565b61175d565b3480156105e557600080fd5b50610390611778565b3480156105fa57600080fd5b5061060e610609366004614844565b611795565b60405161039a919061498d565b34801561062757600080fd5b5061039062278d0081565b34801561063e57600080fd5b50600854610551906001600160a01b031681565b34801561065e57600080fd5b5061039061066d36600461482b565b611801565b34801561067e57600080fd5b506106b861068d3660046149e0565b600960205260009081526040902080546001820154600283015460039093015460ff90921692909184565b60405161039a9493929190614a2f565b3480156106d457600080fd5b506103c3611994565b3480156106e957600080fd5b506103906106f8366004614a58565b6119a8565b34801561070957600080fd5b506103c3610718366004614844565b6119f4565b34801561072957600080fd5b5061055161073836600461482b565b611a44565b34801561074957600080fd5b50600754610551906001600160a01b031681565b34801561076957600080fd5b506103c3610778366004614aac565b611a6e565b34801561078957600080fd5b506104c561079836600461482b565b60009081526012602052604090208054600182015460028301546004840154600585015460069095015493956001600160a01b03909316949193909260ff90911690565b3480156107e857600080fd5b506103c36107f7366004614ae5565b611b77565b34801561080857600080fd5b507f9016d09d72d40fdae2fd8ceac6b6234c7706214fd39c1cd1e609a0528c199300546001600160a01b0316610551565b34801561084557600080fd5b506103c361085436600461482b565b611fdd565b34801561086557600080fd5b5061039061087436600461485f565b612191565b34801561088557600080fd5b50600654610551906001600160a01b031681565b3480156108a557600080fd5b50610390670de0b6b3a764000081565b3480156108c157600080fd5b506103906108d0366004614b1a565b6000918252600b602090815260408084206001600160a01b0393909316845291905290205490565b34801561090457600080fd5b50610929604051806040016040528060058152602001640352e302e360dc1b81525081565b60405161039a9190614b6a565b34801561094257600080fd5b5061097d610951366004614b1a565b600b60209081526000928352604080842090915290825290208054600182015460039092015490919083565b6040805193845260208401929092529082015260600161039a565b3480156109a457600080fd5b506109c86109b3366004614844565b600e6020526000908152604090205460ff1681565b604051901515815260200161039a565b3480156109e457600080fd5b5061060e6109f336600461482b565b6121c2565b348015610a0457600080fd5b506103c3610a13366004614b9d565b61234d565b348015610a2457600080fd5b50610390600481565b348015610a3957600080fd5b50610a4261254b565b60405161039a9190614bbf565b348015610a5b57600080fd5b50610a42610a6a36600461482b565b6125ad565b348015610a7b57600080fd5b50610390610a8a366004614b1a565b61261b565b348015610a9b57600080fd5b506103c3610aaa36600461482b565b612627565b348015610abb57600080fd5b50610390610aca366004614b9d565b6127d3565b348015610adb57600080fd5b506103c3610aea36600461482b565b6127ef565b348015610afb57600080fd5b50610390610b0a366004614b1a565b6129d6565b348015610b1b57600080fd5b50610b97610b2a36600461482b565b600a60208190526000918252604090912080546001820154600283015460038401546004850154600586015460068701546007880154600889015460098a01549a8a0154600c909a0154989a60ff808a169b610100909a041699979896979596949593949293919290918d565b60405161039a9d9c9b9a99989796959493929190614c00565b348015610bbc57600080fd5b50610390610bcb366004614b1a565b612b01565b348015610bdc57600080fd5b5060005460025460035461097d92919083565b348015610bfb57600080fd5b506103c3610c0a36600461482b565b612cd6565b348015610c1b57600080fd5b506103c3610c2a366004614844565b612e73565b348015610c3b57600080fd5b506103c3610c4a366004614844565b612ec3565b348015610c5b57600080fd5b50610390610c6a366004614c75565b612efe565b348015610c7b57600080fd5b50610390610c8a3660046149e0565b612f13565b348015610c9b57600080fd5b50600554610551906001600160a01b031681565b600080805b83811015610cf157610cdd858583818110610cd157610cd1614ca8565b90506020020135611801565b610ce79083614cd4565b9150600101610cb4565b5090505b92915050565b6000610d05613280565b805490915060ff600160401b820416159067ffffffffffffffff16600081158015610d2d5750825b905060008267ffffffffffffffff166001148015610d4a5750303b155b905081158015610d58575080155b15610d765760405163f92ee8a960e01b815260040160405180910390fd5b845467ffffffffffffffff191660011785558315610da057845460ff60401b1916600160401b1785555b6001600160a01b038a16610dfb5760405162461bcd60e51b815260206004820152601760248201527f496e76616c6964204e6f64654e4654206164647265737300000000000000000060448201526064015b60405180910390fd5b6001600160a01b038916610e465760405162461bcd60e51b8152602060048201526012602482015271496e76616c6964202445206164647265737360701b6044820152606401610df2565b6001600160a01b038816610e935760405162461bcd60e51b8152602060048201526014602482015273496e76616c69642055534454206164647265737360601b6044820152606401610df2565b6001600160a01b038716610ee25760405162461bcd60e51b8152602060048201526016602482015275496e76616c6964206f7261636c65206164647265737360501b6044820152606401610df2565b6001600160a01b038616610f385760405162461bcd60e51b815260206004820152601860248201527f496e76616c6964207472656173757279206164647265737300000000000000006044820152606401610df2565b610f41336132a9565b610f496132ba565b610f516132c2565b600480546001600160a01b03199081166001600160a01b038d8116919091179092556005805482168c84161790556006805482168b84161790556007805482168a84161790556008805490911691881691909117905560408051608081018252600080825269021e19e0c9bab2400000602083015269043c33c1937564800000928201929092526001606082015290600990808152602081019190915260400160002081518154829060ff191660018381811115611011576110116149fb565b02179055506020820151816001015560408201518160020155606082015181600301559050506040518060800160405280600180811115611054576110546149fb565b8152690a968163f0a57b400000602082015269152d02c7e14af6800000604082015260066060909101526009600060018152602081019190915260400160002081518154829060ff1916600183818111156110b1576110b16149fb565b02179055506020828101516001838101919091556040808501516002850155606090940151600393840155600d80548083019091557fd7b6990105719101dabeb77144f2a3385c8033acd3af97e9423a695e81ad1eb50180546001600160a01b0319166001600160a01b038e169081179091556000908152600e909252929020805460ff191683179055429055601055831561118757845460ff60401b19168555604051600181527fc7f505b2f371ae2175ee4913f4499e1f2633a7b5936321eed1cdaeb6115181d29060200160405180910390a15b50505050505050505050565b61119b6132d2565b6000818152600f60205260409020600581015460ff166111f05760405162461bcd60e51b815260206004820152601060248201526f4f72646572206e6f742061637469766560801b6044820152606401610df2565b60018101546001600160a01b0316331461123e5760405162461bcd60e51b815260206004820152600f60248201526e2737ba1037b93232b91037bbb732b960891b6044820152606401610df2565b60058101805460ff1916905560405182907fcd8504889bbebfbd5b4e87d5550948fedab56dea9df7b40e7d8f6106b2e913af90600090a25061127e61331c565b50565b611289613342565b6001600160a01b0381166112af5760405162461bcd60e51b8152600401610df290614ce7565b6001600160a01b0381166000908152600e602052604090205460ff16156113085760405162461bcd60e51b815260206004820152600d60248201526c105b1c9958591e481859191959609a1b6044820152606401610df2565b600d805460018181019092557fd7b6990105719101dabeb77144f2a3385c8033acd3af97e9423a695e81ad1eb50180546001600160a01b039093166001600160a01b0319909316831790556000918252600e6020526040909120805460ff19169091179055565b6007546001600160a01b031633146113b75760405162461bcd60e51b815260206004820152600b60248201526a4f6e6c79206f7261636c6560a81b6044820152606401610df2565b6113bf6132d2565b600081116113df5760405162461bcd60e51b8152600401610df290614d10565b6001600160a01b0382166000908152600e602052604090205460ff1661143d5760405162461bcd60e51b8152602060048201526013602482015272151bdad95b881b9bdd081cdd5c1c1bdc9d1959606a1b6044820152606401610df2565b60025461147d5760405162461bcd60e51b815260206004820152600e60248201526d4e6f20616374697665204e46547360901b6044820152606401610df2565b6114926001600160a01b03831633308461339d565b6002546114a7670de0b6b3a764000083614d47565b6114b19190614d5e565b6001600160a01b038316600090815260016020526040812080549091906114d9908490614cd4565b90915550504260038190556001600160a01b0383166000818152600160209081526040918290205482518681529182015290810192909252907ff0f44087179a926066b42ce5c1720884709cd0766b995b4595a33c8e4fd3a2b29060600160405180910390a261154761331c565b5050565b60006115556132d2565b600083116115a55760405162461bcd60e51b815260206004820152601a60248201527f4d7573742073656c6c206174206c6561737420312073686172650000000000006044820152606401610df2565b600082116115ee5760405162461bcd60e51b81526020600482015260166024820152755072696365206d75737420626520706f73697469766560501b6044820152606401610df2565b60006115fa85336129d6565b90508381101561164c5760405162461bcd60e51b815260206004820152601d60248201527f496e73756666696369656e7420617661696c61626c65207368617265730000006044820152606401610df2565b601080546000918261165d83614d80565b909155506040805160c0810182528881523360208083018281528385018b8152606085018b81524260808701908152600160a0880181815260008b8152600f88528a812099518a55955189830180546001600160a01b0319166001600160a01b03909216919091179055935160028901559151600388015551600487015590516005909501805460ff1916951515959095179094558b8152601182528481208054948501815581528190209092018490558251898152918201889052929350889184917f019885652a4a8dfdfca02c68db30c0e34d05185a6ffcd7779d140e33d1a2a90c910160405180910390a491505061175661331c565b9392505050565b61176561340a565b61176e826134af565b61154782826134b7565b6000611782613574565b50600080516020614e6483398151915290565b6001600160a01b0381166000908152600c60209081526040918290208054835181840281018401909452808452606093928301828280156117f557602002820191906000526020600020905b8154815260200190600101908083116117e1575b50505050509050919050565b600061180b6132d2565b6000828152600a60209081526040808320600b8352818420338552909252909120805461184a5760405162461bcd60e51b8152600401610df290614d99565b611853846135bd565b600061185f8533613728565b9050801561198357600080600185810154610100900460ff1690811115611888576118886149fb565b146118975783600c015461189b565b6000545b9050670de0b6b3a76400008185600a015485600001546118bb9190614d47565b6118c59190614d47565b6118cf9190614d5e565b600184015560055460405163a9059cbb60e01b8152336004820152602481018490526001600160a01b039091169063a9059cbb906044016020604051808303816000875af1158015611925573d6000803e3d6000fd5b505050506040513d601f19601f820116820180604052508101906119499190614dc2565b50604051828152339087907fec98b8698abd46dc2240ba4b7f9602e92fa50c5b84ce3c226d777b4ab65e7a219060200160405180910390a3505b9250505061198f61331c565b919050565b61199c613342565b6119a66000613803565b565b600080805b848110156119eb576119d78686838181106119ca576119ca614ca8565b9050602002013585612b01565b6119e19083614cd4565b91506001016119ad565b50949350505050565b6119fc613342565b6001600160a01b038116611a225760405162461bcd60e51b8152600401610df290614ce7565b600780546001600160a01b0319166001600160a01b0392909216919091179055565b600d8181548110611a5457600080fd5b6000918252602090912001546001600160a01b0316905081565b611a76613342565b60008111611ac65760405162461bcd60e51b815260206004820152601760248201527f576569676874206d75737420626520706f7369746976650000000000000000006044820152606401610df2565b6040518060800160405280856001811115611ae357611ae36149fb565b81526020018481526020018381526020018281525060096000866001811115611b0e57611b0e6149fb565b6001811115611b1f57611b1f6149fb565b8152602081019190915260400160002081518154829060ff191660018381811115611b4c57611b4c6149fb565b0217905550602082015160018201556040820151600282015560609091015160039091015550505050565b611b7f6132d2565b6001600160a01b038216611bc95760405162461bcd60e51b8152602060048201526011602482015270125b9d985b1a59081c9958da5c1a595b9d607a1b6044820152606401610df2565b336001600160a01b03831603611c215760405162461bcd60e51b815260206004820152601760248201527f43616e6e6f74207472616e7366657220746f2073656c660000000000000000006044820152606401610df2565b60008111611c715760405162461bcd60e51b815260206004820152601e60248201527f4d757374207472616e73666572206174206c65617374203120736861726500006044820152606401610df2565b6000838152600a60209081526040808320600b83528184203385528084528285206001600160a01b0388168652935292208154841115611ce95760405162461bcd60e51b8152602060048201526013602482015272496e73756666696369656e742073686172657360681b6044820152606401610df2565b611cf2866135bd565b611cfc8633613874565b805415611d0d57611d0d8686613874565b83826000016000828254611d219190614de4565b9091555050805484908290600090611d3a908490614cd4565b909155506000905080600185810154610100900460ff1690811115611d6157611d616149fb565b14611d705783600c0154611d74565b6000545b9050670de0b6b3a76400008185600a01548560000154611d949190614d47565b611d9e9190614d47565b611da89190614d5e565b6001840155600a8401548254670de0b6b3a7640000918391611dca9190614d47565b611dd49190614d47565b611dde9190614d5e565b600183015560005b600d54811015611f21576000600d8281548110611e0557611e05614ca8565b60009182526020822001546001600160a01b0316915080600188810154610100900460ff1690811115611e3a57611e3a6149fb565b14611e5f576001600160a01b0382166000908152600d88016020526040902054611e79565b6001600160a01b0382166000908152600160205260409020545b9050670de0b6b3a76400008188600a01548860000154611e999190614d47565b611ea39190614d47565b611ead9190614d5e565b6001600160a01b0383166000908152600288016020526040902055600a8701548554670de0b6b3a7640000918391611ee59190614d47565b611eef9190614d47565b611ef99190614d5e565b6001600160a01b03909216600090815260028601602052604090209190915550600101611de6565b50611f2c8787613b71565b611f368733613c0c565b8154859003611f6b576001600160a01b0386166000908152600c60209081526040822080546001810182559083529120018790555b8254600003611f7e57611f7e3388613d4e565b856001600160a01b0316336001600160a01b0316887f47b6f5075904cd0f1f8801ba5355db3939388d00827bdcc8785ee045345e4baf88604051611fc491815260200190565b60405180910390a450505050611fd861331c565b505050565b6007546001600160a01b031633146120255760405162461bcd60e51b815260206004820152600b60248201526a4f6e6c79206f7261636c6560a81b6044820152606401610df2565b61202d6132d2565b6000811161204d5760405162461bcd60e51b8152600401610df290614d10565b60025461208d5760405162461bcd60e51b815260206004820152600e60248201526d4e6f20616374697665204e46547360901b6044820152606401610df2565b6005546040516323b872dd60e01b8152336004820152306024820152604481018390526001600160a01b03909116906323b872dd906064016020604051808303816000875af11580156120e4573d6000803e3d6000fd5b505050506040513d601f19601f820116820180604052508101906121089190614dc2565b5060025461211e670de0b6b3a764000083614d47565b6121289190614d5e565b600080548190612139908490614cd4565b90915550504260038190556000546040805184815260208101929092528101919091527fefb9f62cd6ad65913c36f83bb550fe3ec84ad4553e81ab326bf4365d326a2eda9060600160405180910390a161127e61331c565b600c60205281600052604060002081815481106121ad57600080fd5b90600052602060002001600091509150505481565b60408051600a8082526101608201909252606091600091906020820161014080368337019050509050600060015b601054811080156122015750600a82105b156122bb576000818152600f6020908152604091829020825160c0810184528154815260018201546001600160a01b031692810192909252600281015492820192909252600382015460608201526004820154608082015260059091015460ff1615801560a08301819052906122775750805186145b156122a8578184848151811061228f5761228f614ca8565b6020908102919091010152826122a481614d80565b9350505b50806122b381614d80565b9150506121f0565b5060008167ffffffffffffffff8111156122d7576122d76148b5565b604051908082528060200260200182016040528015612300578160200160208202803683370190505b50905060005b828110156119eb5783818151811061232057612320614ca8565b602002602001015182828151811061233a5761233a614ca8565b6020908102919091010152600101612306565b6123556132d2565b6000828152600a60209081526040808320600b835281842033855290925290912060018083810154610100900460ff1690811115612395576123956149fb565b146123da5760405162461bcd60e51b8152602060048201526015602482015274139195081b5d5cdd08189948191a5cdcdbdb1d9959605a1b6044820152606401610df2565b80546123f85760405162461bcd60e51b8152600401610df290614d99565b600083116124185760405162461bcd60e51b8152600401610df290614d10565b612421846135bd565b6009820154815460068401546000929161243a91614d47565b6124449190614d5e565b9050808411156124965760405162461bcd60e51b815260206004820152601860248201527f4578636565647320617661696c61626c6520616d6f756e7400000000000000006044820152606401610df2565b838360060160008282546124aa9190614de4565b92505081905550838260030160008282546124c59190614cd4565b909155505060055460405163a9059cbb60e01b8152336004820152602481018690526001600160a01b039091169063a9059cbb906044016020604051808303816000875af115801561251b573d6000803e3d6000fd5b505050506040513d601f19601f8201168201806040525081019061253f9190614dc2565b5050505061154761331c565b6060600d8054806020026020016040519081016040528092919081815260200182805480156125a357602002820191906000526020600020905b81546001600160a01b03168152600190910190602001808311612585575b5050505050905090565b6000818152600a6020908152604091829020600b018054835181840281018401909452808452606093928301828280156117f557602002820191906000526020600020905b81546001600160a01b031681526001909101906020018083116125f25750505050509050919050565b60006117568383613728565b61262f6132d2565b6000818152601260209081526040808320600b835281842033855290925290912060018201546001600160a01b03166126985760405162461bcd60e51b815260206004820152600b60248201526a139bc81c1c9bdc1bdcd85b60aa1b6044820152606401610df2565b600682015460ff16156126e05760405162461bcd60e51b815260206004820152601060248201526f105b1c9958591e48195e1958dd5d195960821b6044820152606401610df2565b80546126fe5760405162461bcd60e51b8152600401610df290614d99565b33600090815260038301602052604090205460ff16156127535760405162461bcd60e51b815260206004820152601060248201526f105b1c9958591e48185c1c1c9bdd995960821b6044820152606401610df2565b3360009081526003830160205260408120805460ff191660011790556004830180549161277f83614d80565b9091555050604051339084907fa75f541c6938fed86b5f707eca7dc1f53bbca989894b9010cd627b8fe3e7333390600090a381600501548260040154106127c9576127c983613e13565b505061127e61331c565b601160205281600052604060002081815481106121ad57600080fd5b6127f76132d2565b6000818152600f60205260409020600581015460ff1661284c5760405162461bcd60e51b815260206004820152601060248201526f4f72646572206e6f742061637469766560801b6044820152606401610df2565b6001810154336001600160a01b03909116036128a15760405162461bcd60e51b815260206004820152601460248201527321b0b73737ba10313abc9037bbb71037b93232b960611b6044820152606401610df2565b80546000908152600b6020908152604080832060018501546001600160a01b03168452909152902060028201548154101561291e5760405162461bcd60e51b815260206004820152601e60248201527f53656c6c65722068617320696e73756666696369656e742073686172657300006044820152606401610df2565b6000826003015483600201546129349190614d47565b6001840154600654919250612958916001600160a01b03908116913391168461339d565b82546001840154600285015461297a92916001600160a01b0316903390613fcb565b60058301805460ff1916905582546002840154604080519182526020820184905233929187917f33c49da1ff633ff516cc2661d0cd94af11b7b76985b6fe549151782c14db745a910160405180910390a450505061127e61331c565b6000828152600b602090815260408083206001600160a01b0385168452909152812054808203612a0a576000915050610cf5565b600060015b600a8111612ade57601054811015612acc576000818152600f6020908152604091829020825160c0810184528154815260018201546001600160a01b031692810192909252600281015492820192909252600382015460608201526004820154608082015260059091015460ff1615801560a0830181905290612aa75750856001600160a01b031681602001516001600160a01b0316145b8015612ab35750805187145b15612aca576040810151612ac79084614cd4565b92505b505b80612ad681614d80565b915050612a0f565b5080821015612aee576000612af8565b612af88183614de4565b95945050505050565b6000612b0b6132d2565b6001600160a01b0382166000908152600e602052604090205460ff16612b695760405162461bcd60e51b8152602060048201526013602482015272151bdad95b881b9bdd081cdd5c1c1bdc9d1959606a1b6044820152606401610df2565b6000838152600a60209081526040808320600b83528184203385529092529091208054612ba85760405162461bcd60e51b8152600401610df290614d99565b6000612bb5863387614330565b90508015612cca57600080600185810154610100900460ff1690811115612bde57612bde6149fb565b14612c03576001600160a01b0386166000908152600d85016020526040902054612c1d565b6001600160a01b0386166000908152600160205260409020545b9050670de0b6b3a76400008185600a01548560000154612c3d9190614d47565b612c479190614d47565b612c519190614d5e565b6001600160a01b0387166000818152600286016020526040902091909155612c7a903384614465565b856001600160a01b0316336001600160a01b0316887fd7566a1f449b7ee89a6af29f319e117c231ea862057eb65395ca2bf70283b1c885604051612cc091815260200190565b60405180910390a4505b92505050610cf561331c565b612cde6132d2565b6000818152600a60209081526040808320600b835281842033855290925282209091600183810154610100900460ff1690811115612d1e57612d1e6149fb565b14612d5a5760405162461bcd60e51b815260206004820152600c60248201526b4e4654206e6f74206c69766560a01b6044820152606401610df2565b8054612d785760405162461bcd60e51b8152600401610df290614d99565b6000838152601260205260409020600101546001600160a01b031615612dd25760405162461bcd60e51b815260206004820152600f60248201526e50726f706f73616c2065786973747360881b6044820152606401610df2565b6000838152601260209081526040808320868155600180820180546001600160a01b0319163390811790915542600284015580865260038301909452828520805460ff19168217905560048201819055600582018190559151909391929187917f73ef7f15a1373edc9dada062c115059fd34aeec71e2a66364c7aa87e3698264a9190a380600103612e6757612e6785613e13565b5050505061127e61331c565b612e7b613342565b6001600160a01b038116612ea15760405162461bcd60e51b8152600401610df290614ce7565b600880546001600160a01b0319166001600160a01b0392909216919091179055565b612ecb613342565b6001600160a01b038116612ef557604051631e4fbdf760e01b815260006004820152602401610df2565b61127e81613803565b6000612f0b848484614330565b949350505050565b6000612f1d6132d2565b600060096000846001811115612f3557612f356149fb565b6001811115612f4657612f466149fb565b8152602081019190915260409081016000208151608081019092528054829060ff166001811115612f7957612f796149fb565b6001811115612f8a57612f8a6149fb565b815260018201546020808301919091526002830154604083015260039092015460609091015260085490820151600654929350612fd7926001600160a01b0390811692339291169061339d565b600480546040516335313c2160e11b815233928101929092526000916001600160a01b0390911690636a627842906024016020604051808303816000875af1158015613027573d6000803e3d6000fd5b505050506040513d601f19601f8201168201806040525081019061304b9190614df7565b6000818152600a6020526040902081815560018082018054939450919287929160ff19909116908381811115613083576130836149fb565b021790555060018101805461ff00191690554260028201819055604084810151600484018190556005840155600a600984018190556060860180518286015560078501939093556000858152600b60209081528382203383529052918220818155915492519192670de0b6b3a76400009290916131009190614d47565b61310a9190614d47565b6131149190614d5e565b600182015560005b600d548110156131b5576000600d828154811061313b5761313b614ca8565b60009182526020808320909101546001600160a01b031680835260019091526040909120546060880151919250670de0b6b3a76400009161317d90600a614d47565b6131879190614d47565b6131919190614d5e565b6001600160a01b03909116600090815260028401602052604090205560010161311c565b50336000818152600c60209081526040822080546001818101835591845282842001879055600b860180549182018155835291200180546001600160a01b0319169091179055606084015161320b90600a614d47565b6002805460009061321d908490614cd4565b92505081905550336001600160a01b0316837fe991f992caac301eb2752d5c105bfe9ae2b0fd301d0fa7ebcf4e887ff182b221888760200151886040015160405161326a93929190614e10565b60405180910390a350909250505061198f61331c565b6000807ff0c57e16840df040f15088dc2f81fe391c3923bec73e23a9662efc9c229c6a00610cf5565b6132b1614496565b61127e816144bb565b6119a6614496565b6132ca614496565b6119a66144c3565b7f9b779b17422d0df92223018b32b4d1fa46e071723d6817e2486d003becc55f0080546001190161331657604051633ee5aeb560e01b815260040160405180910390fd5b60029055565b60017f9b779b17422d0df92223018b32b4d1fa46e071723d6817e2486d003becc55f0055565b336133747f9016d09d72d40fdae2fd8ceac6b6234c7706214fd39c1cd1e609a0528c199300546001600160a01b031690565b6001600160a01b0316146119a65760405163118cdaa760e01b8152336004820152602401610df2565b6040516001600160a01b0384811660248301528381166044830152606482018390526134049186918216906323b872dd906084015b604051602081830303815290604052915060e01b6020820180516001600160e01b0383818316178352505050506144cb565b50505050565b306001600160a01b037f000000000000000000000000000000000000000000000000000000000000000016148061349157507f00000000000000000000000000000000000000000000000000000000000000006001600160a01b0316613485600080516020614e64833981519152546001600160a01b031690565b6001600160a01b031614155b156119a65760405163703e46dd60e11b815260040160405180910390fd5b61127e613342565b816001600160a01b03166352d1902d6040518163ffffffff1660e01b8152600401602060405180830381865afa925050508015613511575060408051601f3d908101601f1916820190925261350e91810190614df7565b60015b61353957604051634c9c8ce360e01b81526001600160a01b0383166004820152602401610df2565b600080516020614e64833981519152811461356a57604051632a87526960e21b815260048101829052602401610df2565b611fd8838361453c565b306001600160a01b037f000000000000000000000000000000000000000000000000000000000000000016146119a65760405163703e46dd60e11b815260040160405180910390fd5b6000818152600a6020526040902060088101546019116135db575050565b6301e1338081600201546135ef9190614cd4565b4210156135fa575050565b60006301e1338082600201546136109190614cd4565b61361a9042614de4565b9050600061362b62278d0083614d5e565b613636906001614cd4565b90506019811115613645575060195b826008015481116136565750505050565b60008360080154826136689190614de4565b90506000606482600487600401546136809190614d47565b61368a9190614d47565b6136949190614d5e565b9050808560050160008282546136aa9190614de4565b92505081905550808560060160008282546136c59190614cd4565b909155505060088501839055426007860155600585015460408051858152602081018490529081019190915286907f7ad6700e1ad261386e9f1595faccf9d003f1e6f503b7e0ee598ed852a46d42ea9060600160405180910390a2505050505050565b6000828152600a60209081526040808320600b83528184206001600160a01b038616855290925282208054830361376457600092505050610cf5565b600080600184810154610100900460ff1690811115613785576137856149fb565b146137945782600c0154613798565b6000545b90506000670de0b6b3a76400008285600a015485600001546137ba9190614d47565b6137c49190614d47565b6137ce9190614d5e565b905082600101548111156137f65760018301546137eb9082614de4565b945050505050610cf5565b5060009695505050505050565b7f9016d09d72d40fdae2fd8ceac6b6234c7706214fd39c1cd1e609a0528c19930080546001600160a01b031981166001600160a01b03848116918217845560405192169182907f8be0079c531659141344cd1fd0a4f28419497f9722a3daafe3b4186f6b6457e090600090a3505050565b60006138808383613728565b905080156139e1576000838152600b602090815260408083206001600160a01b03861684528252808320868452600a9092528220909180600183810154610100900460ff16908111156138d5576138d56149fb565b146138e45781600c01546138e8565b6000545b9050670de0b6b3a76400008183600a015485600001546139089190614d47565b6139129190614d47565b61391c9190614d5e565b600184015560055460405163a9059cbb60e01b81526001600160a01b038781166004830152602482018790529091169063a9059cbb906044016020604051808303816000875af1158015613974573d6000803e3d6000fd5b505050506040513d601f19601f820116820180604052508101906139989190614dc2565b50846001600160a01b0316867fec98b8698abd46dc2240ba4b7f9602e92fa50c5b84ce3c226d777b4ab65e7a21866040516139d591815260200190565b60405180910390a35050505b60005b600d54811015613404576000600d8281548110613a0357613a03614ca8565b60009182526020822001546001600160a01b03169150613a24868684614330565b90508015613b67576000868152600b602090815260408083206001600160a01b03891684528252808320898452600a9092528220909180600183810154610100900460ff1690811115613a7957613a796149fb565b14613a9e576001600160a01b0385166000908152600d83016020526040902054613ab8565b6001600160a01b0385166000908152600160205260409020545b9050670de0b6b3a76400008183600a01548560000154613ad89190614d47565b613ae29190614d47565b613aec9190614d5e565b6001600160a01b0386166000818152600286016020526040902091909155613b15908986614465565b846001600160a01b0316886001600160a01b03168a7fd7566a1f449b7ee89a6af29f319e117c231ea862057eb65395ca2bf70283b1c887604051613b5b91815260200190565b60405180910390a45050505b50506001016139e4565b6000828152600a60205260408120905b600b820154811015613bd457826001600160a01b031682600b018281548110613bac57613bac614ca8565b6000918252602090912001546001600160a01b031603613bcc5750505050565b600101613b81565b50600b018054600181018255600091825260209091200180546001600160a01b0319166001600160a01b039290921691909117905550565b6000828152600b602090815260408083206001600160a01b038516845290915290205415613c38575050565b6000828152600a60205260408120905b600b82015481101561340457826001600160a01b031682600b018281548110613c7357613c73614ca8565b6000918252602090912001546001600160a01b031603613d4657600b82018054613c9f90600190614de4565b81548110613caf57613caf614ca8565b600091825260209091200154600b830180546001600160a01b039092169183908110613cdd57613cdd614ca8565b9060005260206000200160006101000a8154816001600160a01b0302191690836001600160a01b0316021790555081600b01805480613d1e57613d1e614e31565b600082815260209020810160001990810180546001600160a01b031916905501905550505050565b600101613c48565b6001600160a01b0382166000908152600c60205260408120905b81548110156134045782828281548110613d8457613d84614ca8565b906000526020600020015403613e0b5781548290613da490600190614de4565b81548110613db457613db4614ca8565b9060005260206000200154828281548110613dd157613dd1614ca8565b906000526020600020018190555081805480613def57613def614e31565b6001900381819060005260206000200160009055905550505050565b600101613d68565b6000818152600a60209081526040808320601290925282209091600183810154610100900460ff1690811115613e4b57613e4b6149fb565b14613e875760405162461bcd60e51b815260206004820152600c60248201526b4e4654206e6f74206c69766560a01b6044820152606401610df2565b600681015460ff1615613ecf5760405162461bcd60e51b815260206004820152601060248201526f105b1c9958591e48195e1958dd5d195960821b6044820152606401610df2565b613ed8836135bd565b60008054600c8401555b600d54811015613f3b576000600d8281548110613f0157613f01614ca8565b60009182526020808320909101546001600160a01b031682526001808252604080842054600d890190935290922055919091019050613ee2565b506001828101805461ff00191661010083021790555042600383015560068101805460ff19166001179055600a8201546009830154613f7a9190614d47565b60028054600090613f8c908490614de4565b909155505060405142815283907f588698902d7c9545f553f37b52a73bdf4ea58d636d55af86076f7fb4940245789060200160405180910390a2505050565b6000848152600a60209081526040808320600b83528184206001600160a01b03888116865293528184209286168452922081548411156140435760405162461bcd60e51b8152602060048201526013602482015272496e73756666696369656e742073686172657360681b6044820152606401610df2565b61404c876135bd565b6140568787613874565b805415614067576140678786613874565b8382600001600082825461407b9190614de4565b9091555050805484908290600090614094908490614cd4565b909155506000905080600185810154610100900460ff16908111156140bb576140bb6149fb565b146140ca5783600c01546140ce565b6000545b9050670de0b6b3a76400008185600a015485600001546140ee9190614d47565b6140f89190614d47565b6141029190614d5e565b6001840155600a8401548254670de0b6b3a76400009183916141249190614d47565b61412e9190614d47565b6141389190614d5e565b600183015560005b600d5481101561427b576000600d828154811061415f5761415f614ca8565b60009182526020822001546001600160a01b0316915080600188810154610100900460ff1690811115614194576141946149fb565b146141b9576001600160a01b0382166000908152600d880160205260409020546141d3565b6001600160a01b0382166000908152600160205260409020545b9050670de0b6b3a76400008188600a015488600001546141f39190614d47565b6141fd9190614d47565b6142079190614d5e565b6001600160a01b0383166000908152600288016020526040902055600a8701548554670de0b6b3a764000091839161423f9190614d47565b6142499190614d47565b6142539190614d5e565b6001600160a01b03909216600090815260028601602052604090209190915550600101614140565b506142868887613b71565b6142908888613c0c565b81548590036142c5576001600160a01b0386166000908152600c60209081526040822080546001810182559083529120018890555b82546000036142d8576142d88789613d4e565b856001600160a01b0316876001600160a01b0316897f47b6f5075904cd0f1f8801ba5355db3939388d00827bdcc8785ee045345e4baf8860405161431e91815260200190565b60405180910390a45050505050505050565b6000838152600a60209081526040808320600b83528184206001600160a01b038716855290925282208054830361436c57600092505050611756565b600080600184810154610100900460ff169081111561438d5761438d6149fb565b146143b2576001600160a01b0385166000908152600d840160205260409020546143cc565b6001600160a01b0385166000908152600160205260409020545b90506000670de0b6b3a76400008285600a015485600001546143ee9190614d47565b6143f89190614d47565b6144029190614d5e565b6001600160a01b0387166000908152600285016020526040902054909150811115614457576001600160a01b038616600090815260028401602052604090205461444c9082614de4565b945050505050611756565b506000979650505050505050565b6040516001600160a01b03838116602483015260448201839052611fd891859182169063a9059cbb906064016133d2565b61449e614592565b6119a657604051631afcd79f60e31b815260040160405180910390fd5b612ecb614496565b61331c614496565b600080602060008451602086016000885af1806144ee576040513d6000823e3d81fd5b50506000513d91508115614506578060011415614513565b6001600160a01b0384163b155b1561340457604051635274afe760e01b81526001600160a01b0385166004820152602401610df2565b614545826145ac565b6040516001600160a01b038316907fbc7cd75a20ee27fd9adebab32041f755214dbc6bffa90cc0225b39da2e5c2d3b90600090a280511561458a57611fd88282614611565b61154761467e565b600061459c613280565b54600160401b900460ff16919050565b806001600160a01b03163b6000036145e257604051634c9c8ce360e01b81526001600160a01b0382166004820152602401610df2565b600080516020614e6483398151915280546001600160a01b0319166001600160a01b0392909216919091179055565b6060600080846001600160a01b03168460405161462e9190614e47565b600060405180830381855af49150503d8060008114614669576040519150601f19603f3d011682016040523d82523d6000602084013e61466e565b606091505b5091509150612af885838361469d565b34156119a65760405163b398979f60e01b815260040160405180910390fd5b6060826146b2576146ad826146f9565b611756565b81511580156146c957506001600160a01b0384163b155b156146f257604051639996b31560e01b81526001600160a01b0385166004820152602401610df2565b5080611756565b80511561470857805160208201fd5b60405163d6bda27560e01b815260040160405180910390fd5b60008083601f84011261473357600080fd5b50813567ffffffffffffffff81111561474b57600080fd5b6020830191508360208260051b850101111561476657600080fd5b9250929050565b6000806020838503121561478057600080fd5b823567ffffffffffffffff81111561479757600080fd5b6147a385828601614721565b90969095509350505050565b80356001600160a01b038116811461198f57600080fd5b600080600080600060a086880312156147de57600080fd5b6147e7866147af565b94506147f5602087016147af565b9350614803604087016147af565b9250614811606087016147af565b915061481f608087016147af565b90509295509295909350565b60006020828403121561483d57600080fd5b5035919050565b60006020828403121561485657600080fd5b611756826147af565b6000806040838503121561487257600080fd5b61487b836147af565b946020939093013593505050565b60008060006060848603121561489e57600080fd5b505081359360208301359350604090920135919050565b634e487b7160e01b600052604160045260246000fd5b600080604083850312156148de57600080fd5b6148e7836147af565b9150602083013567ffffffffffffffff8082111561490457600080fd5b818501915085601f83011261491857600080fd5b81358181111561492a5761492a6148b5565b604051601f8201601f19908116603f01168101908382118183101715614952576149526148b5565b8160405282815288602084870101111561496b57600080fd5b8260208601602083013760006020848301015280955050505050509250929050565b6020808252825182820181905260009190848201906040850190845b818110156149c5578351835292840192918401916001016149a9565b50909695505050505050565b80356002811061198f57600080fd5b6000602082840312156149f257600080fd5b611756826149d1565b634e487b7160e01b600052602160045260246000fd5b6002811061127e57634e487b7160e01b600052602160045260246000fd5b60808101614a3c86614a11565b9481526020810193909352604083019190915260609091015290565b600080600060408486031215614a6d57600080fd5b833567ffffffffffffffff811115614a8457600080fd5b614a9086828701614721565b9094509250614aa39050602085016147af565b90509250925092565b60008060008060808587031215614ac257600080fd5b614acb856149d1565b966020860135965060408601359560600135945092505050565b600080600060608486031215614afa57600080fd5b83359250614b0a602085016147af565b9150604084013590509250925092565b60008060408385031215614b2d57600080fd5b82359150614b3d602084016147af565b90509250929050565b60005b83811015614b61578181015183820152602001614b49565b50506000910152565b6020815260008251806020840152614b89816040850160208701614b46565b601f01601f19169190910160400192915050565b60008060408385031215614bb057600080fd5b50508035926020909101359150565b6020808252825182820181905260009190848201906040850190845b818110156149c55783516001600160a01b031683529284019291840191600101614bdb565b8d81526101a08101614c118e614a11565b8d6020830152614c208d614a11565b604082019c909c52606081019a909a5260808a019890985260a089019690965260c088019490945260e08701929092526101008601526101208501526101408401526101608301526101809091015292915050565b600080600060608486031215614c8a57600080fd5b83359250614c9a602085016147af565b9150614aa3604085016147af565b634e487b7160e01b600052603260045260246000fd5b634e487b7160e01b600052601160045260246000fd5b80820180821115610cf557610cf5614cbe565b6020808252600f908201526e496e76616c6964206164647265737360881b604082015260600190565b60208082526017908201527f416d6f756e74206d75737420626520706f736974697665000000000000000000604082015260600190565b8082028115828204841417610cf557610cf5614cbe565b600082614d7b57634e487b7160e01b600052601260045260246000fd5b500490565b600060018201614d9257614d92614cbe565b5060010190565b6020808252600f908201526e139bc81cda185c995cc81bdddb9959608a1b604082015260600190565b600060208284031215614dd457600080fd5b8151801515811461175657600080fd5b81810381811115610cf557610cf5614cbe565b600060208284031215614e0957600080fd5b5051919050565b60608101614e1d85614a11565b938152602081019290925260409091015290565b634e487b7160e01b600052603160045260246000fd5b60008251614e59818460208701614b46565b919091019291505056fe360894a13ba1a3210667c828492db98dca3e2076cc3735a920a3ca505d382bbca264697066735822122006114297f6064849ea899c43c74481266eac196b022460ef1bf02559f6d080bf64736f6c63430008160033",
  "linkReferences": {},
  "deployedLinkReferences": {}
}