{
  "_format": "hh-sol-artifact-1",
  "contractName": "NodeNFT",
  "sourceName": "contracts/NodeNFT.sol",
  "abi": [
    {
      "inputs": [
        {
          "internalType": "string",
          "name": "name_",
          "type": "string"
        },
        {
          "internalType": "string",
          "name": "symbol_",
          "type": "string"
        }
      ],
      "stateMutability": "nonpayable",
      "type": "constructor"
    },
    {
      "inputs": [
        {
          "internalType": "address",
          "name": "sender",
          "type": "address"
        },
        {
          "internalType": "uint256",
          "name": "tokenId",
          "type": "uint256"
        },
        {
          "internalType": "address",
          "name": "owner",
          "type": "address"
        }
      ],
      "name": "ERC721IncorrectOwner",
      "type": "error"
    },
    {
      "inputs": [
        {
          "internalType": "address",
          "name": "operator",
          "type": "address"
        },
        {
          "internalType": "uint256",
          "name": "tokenId",
          "type": "uint256"
        }
      ],
      "name": "ERC721InsufficientApproval",
      "type": "error"
    },
    {
      "inputs": [
        {
          "internalType": "address",
          "name": "approver",
          "type": "address"
        }
      ],
      "name": "ERC721InvalidApprover",
      "type": "error"
    },
    {
      "inputs": [
        {
          "internalType": "address",
          "name": "operator",
          "type": "address"
        }
      ],
      "name": "ERC721InvalidOperator",
      "type": "error"
    },
    {
      "inputs": [
        {
          "internalType": "address",
          "name": "owner",
          "type": "address"
        }
      ],
      "name": "ERC721InvalidOwner",
      "type": "error"
    },
    {
      "inputs": [
        {
          "internalType": "address",
          "name": "receiver",
          "type": "address"
        }
      ],
      "name": "ERC721InvalidReceiver",
      "type": "error"
    },
    {
      "inputs": [
        {
          "internalType": "address",
          "name": "sender",
          "type": "address"
        }
      ],
      "name": "ERC721InvalidSender",
      "type": "error"
    },
    {
      "inputs": [
        {
          "internalType": "uint256",
          "name": "tokenId",
          "type": "uint256"
        }
      ],
      "name": "ERC721NonexistentToken",
      "type": "error"
    },
    {
      "inputs": [
        {
          "internalType": "address",
          "name": "owner",
          "type": "address"
        }
      ],
      "name": "OwnableInvalidOwner",
      "type": "error"
    },
    {
      "inputs": [
        {
          "internalType": "address",
          "name": "account",
          "type": "address"
        }
      ],
      "name": "OwnableUnauthorizedAccount",
      "type": "error"
    },
    {
      "anonymous": false,
      "inputs": [
        {
          "indexed": true,
          "internalType": "address",
          "name": "owner",
          "type": "address"
        },
        {
          "indexed": true,
          "internalType": "address",
          "name": "approved",
          "type": "address"
        },
        {
          "indexed": true,
          "internalType": "uint256",
          "name": "tokenId",
          "type": "uint256"
        }
      ],
      "name": "Approval",
      "type": "event"
    },
    {
      "anonymous": false,
      "inputs": [
        {
          "indexed": true,
          "internalType": "address",
          "name": "owner",
          "type": "address"
        },
        {
          "indexed": true,
          "internalType": "address",
          "name": "operator",
          "type": "address"
        },
        {
          "indexed": false,
          "internalType": "bool",
          "name": "approved",
          "type": "bool"
        }
      ],
      "name": "ApprovalForAll",
      "type": "event"
    },
    {
      "anonymous": false,
      "inputs": [
        {
          "indexed": false,
          "internalType": "string",
          "name": "newBaseURI",
          "type": "string"
        }
      ],
      "name": "BaseURIUpdated",
      "type": "event"
    },
    {
      "anonymous": false,
      "inputs": [
        {
          "indexed": true,
          "internalType": "address",
          "name": "manager",
          "type": "address"
        }
      ],
      "name": "NFTManagerSet",
      "type": "event"
    },
    {
      "anonymous": false,
      "inputs": [
        {
          "indexed": true,
          "internalType": "address",
          "name": "previousOwner",
          "type": "address"
        },
        {
          "indexed": true,
          "internalType": "address",
          "name": "newOwner",
          "type": "address"
        }
      ],
      "name": "OwnershipTransferred",
      "type": "event"
    },
    {
      "anonymous": false,
      "inputs": [
        {
          "indexed": true,
          "internalType": "address",
          "name": "from",
          "type": "address"
        },
        {
          "indexed": true,
          "internalType": "address",
          "name": "to",
          "type": "address"
        },
        {
          "indexed": true,
          "internalType": "uint256",
          "name": "tokenId",
          "type": "uint256"
        }
      ],
      "name": "Transfer",
      "type": "event"
    },
    {
      "inputs": [
        {
          "internalType": "address",
          "name": "to",
          "type": "address"
        },
        {
          "internalType": "uint256",
          "name": "tokenId",
          "type": "uint256"
        }
      ],
      "name": "approve",
      "outputs": [],
      "stateMutability": "nonpayable",
      "type": "function"
    },
    {
      "inputs": [
        {
          "internalType": "address",
          "name": "owner",
          "type": "address"
        }
      ],
      "name": "balanceOf",
      "outputs": [
        {
          "internalType": "uint256",
          "name": "",
          "type": "uint256"
        }
      ],
      "stateMutability": "view",
      "type": "function"
    },
    {
      "inputs": [
        {
          "internalType": "uint256",
          "name": "tokenId",
          "type": "uint256"
        }
      ],
      "name": "burn",
      "outputs": [],
      "stateMutability": "nonpayable",
      "type": "function"
    },
    {
      "inputs": [
        {
          "internalType": "uint256",
          "name": "tokenId",
          "type": "uint256"
        }
      ],
      "name": "getApproved",
      "outputs": [
        {
          "internalType": "address",
          "name": "",
          "type": "address"
        }
      ],
      "stateMutability": "view",
      "type": "function"
    },
    {
      "inputs": [],
      "name": "getNextTokenId",
      "outputs": [
        {
          "internalType": "uint256",
          "name": "",
          "type": "uint256"
        }
      ],
      "stateMutability": "view",
      "type": "function"
    },
    {
      "inputs": [
        {
          "internalType": "address",
          "name": "owner",
          "type": "address"
        },
        {
          "internalType": "address",
          "name": "operator",
          "type": "address"
        }
      ],
      "name": "isApprovedForAll",
      "outputs": [
        {
          "internalType": "bool",
          "name": "",
          "type": "bool"
        }
      ],
      "stateMutability": "view",
      "type": "function"
    },
    {
      "inputs": [
        {
          "internalType": "address",
          "name": "to",
          "type": "address"
        }
      ],
      "name": "mint",
      "outputs": [
        {
          "internalType": "uint256",
          "name": "",
          "type": "uint256"
        }
      ],
      "stateMutability": "nonpayable",
      "type": "function"
    },
    {
      "inputs": [],
      "name": "name",
      "outputs": [
        {
          "internalType": "string",
          "name": "",
          "type": "string"
        }
      ],
      "stateMutability": "view",
      "type": "function"
    },
    {
      "inputs": [],
      "name": "nftManager",
      "outputs": [
        {
          "internalType": "address",
          "name": "",
          "type": "address"
        }
      ],
      "stateMutability": "view",
      "type": "function"
    },
    {
      "inputs": [],
      "name": "owner",
      "outputs": [
        {
          "internalType": "address",
          "name": "",
          "type": "address"
        }
      ],
      "stateMutability": "view",
      "type": "function"
    },
    {
      "inputs": [
        {
          "internalType": "uint256",
          "name": "tokenId",
          "type": "uint256"
        }
      ],
      "name": "ownerOf",
      "outputs": [
        {
          "internalType": "address",
          "name": "",
          "type": "address"
        }
      ],
      "stateMutability": "view",
      "type": "function"
    },
    {
      "inputs": [],
      "name": "renounceOwnership",
      "outputs": [],
      "stateMutability": "nonpayable",
      "type": "function"
    },
    {
      "inputs": [
        {
          "internalType": "address",
          "name": "from",
          "type": "address"
        },
        {
          "internalType": "address",
          "name": "to",
          "type": "address"
        },
        {
          "internalType": "uint256",
          "name": "tokenId",
          "type": "uint256"
        }
      ],
      "name": "safeTransferFrom",
      "outputs": [],
      "stateMutability": "nonpayable",
      "type": "function"
    },
    {
      "inputs": [
        {
          "internalType": "address",
          "name": "from",
          "type": "address"
        },
        {
          "internalType": "address",
          "name": "to",
          "type": "address"
        },
        {
          "internalType": "uint256",
          "name": "tokenId",
          "type": "uint256"
        },
        {
          "internalType": "bytes",
          "name": "data",
          "type": "bytes"
        }
      ],
      "name": "safeTransferFrom",
      "outputs": [],
      "stateMutability": "nonpayable",
      "type": "function"
    },
    {
      "inputs": [
        {
          "internalType": "address",
          "name": "operator",
          "type": "address"
        },
        {
          "internalType": "bool",
          "name": "approved",
          "type": "bool"
        }
      ],
      "name": "setApprovalForAll",
      "outputs": [],
      "stateMutability": "nonpayable",
      "type": "function"
    },
    {
      "inputs": [
        {
          "internalType": "string",
          "name": "baseURI_",
          "type": "string"
        }
      ],
      "name": "setBaseURI",
      "outputs": [],
      "stateMutability": "nonpayable",
      "type": "function"
    },
    {
      "inputs": [
        {
          "internalType": "address",
          "name": "manager_",
          "type": "address"
        }
      ],
      "name": "setNFTManager",
      "outputs": [],
      "stateMutability": "nonpayable",
      "type": "function"
    },
    {
      "inputs": [
        {
          "internalType": "bytes4",
          "name": "interfaceId",
          "type": "bytes4"
        }
      ],
      "name": "supportsInterface",
      "outputs": [
        {
          "internalType": "bool",
          "name": "",
          "type": "bool"
        }
      ],
      "stateMutability": "view",
      "type": "function"
    },
    {
      "inputs": [],
      "name": "symbol",
      "outputs": [
        {
          "internalType": "string",
          "name": "",
          "type": "string"
        }
      ],
      "stateMutability": "view",
      "type": "function"
    },
    {
      "inputs": [
        {
          "internalType": "uint256",
          "name": "tokenId",
          "type": "uint256"
        }
      ],
      "name": "tokenURI",
      "outputs": [
        {
          "internalType": "string",
          "name": "",
          "type": "string"
        }
      ],
      "stateMutability": "view",
      "type": "function"
    },
    {
      "inputs": [],
      "name": "totalMinted",
      "outputs": [
        {
          "internalType": "uint256",
          "name": "",
          "type": "uint256"
        }
      ],
      "stateMutability": "view",
      "type": "function"
    },
    {
      "inputs": [
        {
          "internalType": "address",
          "name": "from",
          "type": "address"
        },
        {
          "internalType": "address",
          "name": "to",
          "type": "address"
        },
        {
          "internalType": "uint256",
          "name": "tokenId",
          "type": "uint256"
        }
      ],
      "name": "transferFrom",
      "outputs": [],
      "stateMutability": "nonpayable",
      "type": "function"
    },
    {
      "inputs": [
        {
          "internalType": "address",
          "name": "newOwner",
          "type": "address"
        }
      ],
      "name": "transferOwnership",
      "outputs": [],
      "stateMutability": "nonpayable",
      "type": "function"
    }
  ],
  "bytecode": "0x60806040523480156200001157600080fd5b50604051620019e2380380620019e28339810160408190526200003491620001b9565b3382826000620000458382620002b4565b506001620000548282620002b4565b5050506001600160a01b0381166200008657604051631e4fbdf760e01b81526000600482015260240160405180910390fd5b62000091816200009f565b505060016008555062000380565b600680546001600160a01b038381166001600160a01b0319831681179093556040519116919082907f8be0079c531659141344cd1fd0a4f28419497f9722a3daafe3b4186f6b6457e090600090a35050565b634e487b7160e01b600052604160045260246000fd5b600082601f8301126200011957600080fd5b81516001600160401b0380821115620001365762000136620000f1565b604051601f8301601f19908116603f01168101908282118183101715620001615762000161620000f1565b81604052838152602092508660208588010111156200017f57600080fd5b600091505b83821015620001a3578582018301518183018401529082019062000184565b6000602085830101528094505050505092915050565b60008060408385031215620001cd57600080fd5b82516001600160401b0380821115620001e557600080fd5b620001f38683870162000107565b935060208501519150808211156200020a57600080fd5b50620002198582860162000107565b9150509250929050565b600181811c908216806200023857607f821691505b6020821081036200025957634e487b7160e01b600052602260045260246000fd5b50919050565b601f821115620002af576000816000526020600020601f850160051c810160208610156200028a5750805b601f850160051c820191505b81811015620002ab5782815560010162000296565b5050505b505050565b81516001600160401b03811115620002d057620002d0620000f1565b620002e881620002e1845462000223565b846200025f565b602080601f831160018114620003205760008415620003075750858301515b600019600386901b1c1916600185901b178555620002ab565b600085815260208120601f198616915b82811015620003515788860151825594840194600190910190840162000330565b5085821015620003705787850151600019600388901b60f8161c191681555b5050505050600190811b01905550565b61165280620003906000396000f3fe608060405234801561001057600080fd5b506004361061014d5760003560e01c8063715018a6116100c3578063c87b56dd1161007c578063c87b56dd146102b1578063caa0f92a146102c4578063e88b91ea146102cc578063e985e9c5146102df578063f178ad7a146102f2578063f2fde38b1461030557600080fd5b8063715018a6146102625780638da5cb5b1461026a57806395d89b411461027b578063a22cb46514610283578063a2309ff814610296578063b88d4fde1461029e57600080fd5b806342842e0e1161011557806342842e0e146101e257806342966c68146101f557806355f804b3146102085780636352211e1461021b5780636a6278421461022e57806370a082311461024f57600080fd5b806301ffc9a71461015257806306fdde031461017a578063081812fc1461018f578063095ea7b3146101ba57806323b872dd146101cf575b600080fd5b610165610160366004611119565b610318565b60405190151581526020015b60405180910390f35b61018261036a565b6040516101719190611186565b6101a261019d366004611199565b6103fc565b6040516001600160a01b039091168152602001610171565b6101cd6101c83660046111ce565b610425565b005b6101cd6101dd3660046111f8565b610434565b6101cd6101f03660046111f8565b6104c4565b6101cd610203366004611199565b6104e4565b6101cd6102163660046112c0565b61054a565b6101a2610229366004611199565b610599565b61024161023c366004611309565b6105a4565b604051908152602001610171565b61024161025d366004611309565b610678565b6101cd6106c0565b6006546001600160a01b03166101a2565b6101826106d4565b6101cd610291366004611324565b6106e3565b6102416106ee565b6101cd6102ac366004611360565b610704565b6101826102bf366004611199565b61071c565b600854610241565b6007546101a2906001600160a01b031681565b6101656102ed3660046113dc565b610784565b6101cd610300366004611309565b6107b2565b6101cd610313366004611309565b6108a9565b60006001600160e01b031982166380ac58cd60e01b148061034957506001600160e01b03198216635b5e139f60e01b145b8061036457506301ffc9a760e01b6001600160e01b03198316145b92915050565b6060600080546103799061140f565b80601f01602080910402602001604051908101604052809291908181526020018280546103a59061140f565b80156103f25780601f106103c7576101008083540402835291602001916103f2565b820191906000526020600020905b8154815290600101906020018083116103d557829003601f168201915b5050505050905090565b6000610407826108e4565b506000828152600460205260409020546001600160a01b0316610364565b61043082823361091d565b5050565b6001600160a01b03821661046357604051633250574960e11b8152600060048201526024015b60405180910390fd5b600061047083833361092a565b9050836001600160a01b0316816001600160a01b0316146104be576040516364283d7b60e01b81526001600160a01b038086166004830152602482018490528216604482015260640161045a565b50505050565b6104df83838360405180602001604052806000815250610704565b505050565b6007546001600160a01b0316331461053e5760405162461bcd60e51b815260206004820152601960248201527f4f6e6c79204e4654204d616e616765722063616e206275726e00000000000000604482015260640161045a565b610547816109a8565b50565b6105526109e3565b600961055e8282611491565b507f6741b2fc379fad678116fe3d4d4b9a1a184ab53ba36b86ad0fa66340b1ab41ad8160405161058e9190611186565b60405180910390a150565b6000610364826108e4565b6007546000906001600160a01b031633146106015760405162461bcd60e51b815260206004820152601960248201527f4f6e6c79204e4654204d616e616765722063616e206d696e7400000000000000604482015260640161045a565b6001600160a01b0382166106575760405162461bcd60e51b815260206004820152601b60248201527f43616e6e6f74206d696e7420746f207a65726f20616464726573730000000000604482015260640161045a565b60088054908190600061066983611567565b91905055506103648382610a10565b60006001600160a01b0382166106a4576040516322718ad960e21b81526000600482015260240161045a565b506001600160a01b031660009081526003602052604090205490565b6106c86109e3565b6106d26000610a2a565b565b6060600180546103799061140f565b610430338383610a7c565b600060016008546106ff9190611580565b905090565b61070f848484610434565b6104be3385858585610b1b565b6060610727826108e4565b506000610732610c46565b90506000815111610752576040518060200160405280600081525061077d565b8061075c84610c55565b60405160200161076d929190611593565b6040516020818303038152906040525b9392505050565b6001600160a01b03918216600090815260056020908152604080832093909416825291909152205460ff1690565b6107ba6109e3565b6001600160a01b0381166108105760405162461bcd60e51b815260206004820152601760248201527f496e76616c6964206d616e616765722061646472657373000000000000000000604482015260640161045a565b6007546001600160a01b03161561085f5760405162461bcd60e51b815260206004820152601360248201527213585b9859d95c88185b1c9958591e481cd95d606a1b604482015260640161045a565b600780546001600160a01b0319166001600160a01b0383169081179091556040517fab0362c329b9c5b200033e5d428630c924428ca64d9096c8eec737912fdeffae90600090a250565b6108b16109e3565b6001600160a01b0381166108db57604051631e4fbdf760e01b81526000600482015260240161045a565b61054781610a2a565b6000818152600260205260408120546001600160a01b03168061036457604051637e27328960e01b81526004810184905260240161045a565b6104df8383836001610ce8565b60006001600160a01b038216158061094957506001600160a01b038416155b6109955760405162461bcd60e51b815260206004820152601c60248201527f446972656374207472616e7366657273206e6f7420616c6c6f77656400000000604482015260640161045a565b6109a0848484610dee565b949350505050565b60006109b7600083600061092a565b90506001600160a01b03811661043057604051637e27328960e01b81526004810183905260240161045a565b6006546001600160a01b031633146106d25760405163118cdaa760e01b815233600482015260240161045a565b610430828260405180602001604052806000815250610ee7565b600680546001600160a01b038381166001600160a01b0319831681179093556040519116919082907f8be0079c531659141344cd1fd0a4f28419497f9722a3daafe3b4186f6b6457e090600090a35050565b6001600160a01b038216610aae57604051630b61174360e31b81526001600160a01b038316600482015260240161045a565b6001600160a01b03838116600081815260056020908152604080832094871680845294825291829020805460ff191686151590811790915591519182527f17307eab39ab6107e8899845ad3d59bd9653f200f220920489ca2b5937696c31910160405180910390a3505050565b6001600160a01b0383163b15610c3f57604051630a85bd0160e11b81526001600160a01b0384169063150b7a0290610b5d9088908890879087906004016115c2565b6020604051808303816000875af1925050508015610b98575060408051601f3d908101601f19168201909252610b95918101906115ff565b60015b610c01573d808015610bc6576040519150601f19603f3d011682016040523d82523d6000602084013e610bcb565b606091505b508051600003610bf957604051633250574960e11b81526001600160a01b038516600482015260240161045a565b805160208201fd5b6001600160e01b03198116630a85bd0160e11b14610c3d57604051633250574960e11b81526001600160a01b038516600482015260240161045a565b505b5050505050565b6060600980546103799061140f565b60606000610c6283610eff565b600101905060008167ffffffffffffffff811115610c8257610c82611234565b6040519080825280601f01601f191660200182016040528015610cac576020820181803683370190505b5090508181016020015b600019016f181899199a1a9b1b9c1cb0b131b232b360811b600a86061a8153600a8504945084610cb657509392505050565b8080610cfc57506001600160a01b03821615155b15610dbe576000610d0c846108e4565b90506001600160a01b03831615801590610d385750826001600160a01b0316816001600160a01b031614155b8015610d4b5750610d498184610784565b155b15610d745760405163a9fbf51f60e01b81526001600160a01b038416600482015260240161045a565b8115610dbc5783856001600160a01b0316826001600160a01b03167f8c5be1e5ebec7d5bd14f71427d1e84f3dd0314c0f7b2291e5b200ac8c7c3b92560405160405180910390a45b505b5050600090815260046020526040902080546001600160a01b0319166001600160a01b0392909216919091179055565b6000828152600260205260408120546001600160a01b0390811690831615610e1b57610e1b818486610fd7565b6001600160a01b03811615610e5957610e38600085600080610ce8565b6001600160a01b038116600090815260036020526040902080546000190190555b6001600160a01b03851615610e88576001600160a01b0385166000908152600360205260409020805460010190555b60008481526002602052604080822080546001600160a01b0319166001600160a01b0389811691821790925591518793918516917fddf252ad1be2c89b69c2b068fc378daa952ba7f163c4a11628f55a4df523b3ef91a4949350505050565b610ef1838361103b565b6104df336000858585610b1b565b60008072184f03e93ff9f4daa797ed6e38ed64bf6a1f0160401b8310610f3e5772184f03e93ff9f4daa797ed6e38ed64bf6a1f0160401b830492506040015b6d04ee2d6d415b85acef81000000008310610f6a576d04ee2d6d415b85acef8100000000830492506020015b662386f26fc100008310610f8857662386f26fc10000830492506010015b6305f5e1008310610fa0576305f5e100830492506008015b6127108310610fb457612710830492506004015b60648310610fc6576064830492506002015b600a83106103645760010192915050565b610fe28383836110a0565b6104df576001600160a01b03831661101057604051637e27328960e01b81526004810182905260240161045a565b60405163177e802f60e01b81526001600160a01b03831660048201526024810182905260440161045a565b6001600160a01b03821661106557604051633250574960e11b81526000600482015260240161045a565b60006110738383600061092a565b90506001600160a01b038116156104df576040516339e3563760e11b81526000600482015260240161045a565b60006001600160a01b038316158015906109a05750826001600160a01b0316846001600160a01b031614806110da57506110da8484610784565b806109a05750506000908152600460205260409020546001600160a01b03908116911614919050565b6001600160e01b03198116811461054757600080fd5b60006020828403121561112b57600080fd5b813561077d81611103565b60005b83811015611151578181015183820152602001611139565b50506000910152565b60008151808452611172816020860160208601611136565b601f01601f19169290920160200192915050565b60208152600061077d602083018461115a565b6000602082840312156111ab57600080fd5b5035919050565b80356001600160a01b03811681146111c957600080fd5b919050565b600080604083850312156111e157600080fd5b6111ea836111b2565b946020939093013593505050565b60008060006060848603121561120d57600080fd5b611216846111b2565b9250611224602085016111b2565b9150604084013590509250925092565b634e487b7160e01b600052604160045260246000fd5b600067ffffffffffffffff8084111561126557611265611234565b604051601f8501601f19908116603f0116810190828211818310171561128d5761128d611234565b816040528093508581528686860111156112a657600080fd5b858560208301376000602087830101525050509392505050565b6000602082840312156112d257600080fd5b813567ffffffffffffffff8111156112e957600080fd5b8201601f810184136112fa57600080fd5b6109a08482356020840161124a565b60006020828403121561131b57600080fd5b61077d826111b2565b6000806040838503121561133757600080fd5b611340836111b2565b91506020830135801515811461135557600080fd5b809150509250929050565b6000806000806080858703121561137657600080fd5b61137f856111b2565b935061138d602086016111b2565b925060408501359150606085013567ffffffffffffffff8111156113b057600080fd5b8501601f810187136113c157600080fd5b6113d08782356020840161124a565b91505092959194509250565b600080604083850312156113ef57600080fd5b6113f8836111b2565b9150611406602084016111b2565b90509250929050565b600181811c9082168061142357607f821691505b60208210810361144357634e487b7160e01b600052602260045260246000fd5b50919050565b601f8211156104df576000816000526020600020601f850160051c810160208610156114725750805b601f850160051c820191505b81811015610c3d5782815560010161147e565b815167ffffffffffffffff8111156114ab576114ab611234565b6114bf816114b9845461140f565b84611449565b602080601f8311600181146114f457600084156114dc5750858301515b600019600386901b1c1916600185901b178555610c3d565b600085815260208120601f198616915b8281101561152357888601518255948401946001909101908401611504565b50858210156115415787850151600019600388901b60f8161c191681555b5050505050600190811b01905550565b634e487b7160e01b600052601160045260246000fd5b60006001820161157957611579611551565b5060010190565b8181038181111561036457610364611551565b600083516115a5818460208801611136565b8351908301906115b9818360208801611136565b01949350505050565b6001600160a01b03858116825284166020820152604081018390526080606082018190526000906115f59083018461115a565b9695505050505050565b60006020828403121561161157600080fd5b815161077d8161110356fea26469706673582212204b8d590b61f58e7b3e19659231e0563288cdb8b5957c7500e83d76176a4ed1d964736f6c63430008160033",
  "linkReferences": {},
  "deployedLinkReferences": {}
}